{
	"contracts/bancoAutonomo.sol": {
		"Banco": {
			"abi": [
				{
					"inputs": [],
					"name": "consultar",
					"outputs": [
						{
							"internalType": "uint256",
							"name": "",
							"type": "uint256"
						}
					],
					"stateMutability": "view",
					"type": "function"
				},
				{
					"inputs": [
						{
							"internalType": "address",
							"name": "_cuenta",
							"type": "address"
						}
					],
					"name": "consultarSaldoDeudor",
					"outputs": [
						{
							"internalType": "uint256",
							"name": "",
							"type": "uint256"
						}
					],
					"stateMutability": "view",
					"type": "function"
				},
				{
					"inputs": [],
					"name": "depositar",
					"outputs": [],
					"stateMutability": "payable",
					"type": "function"
				},
				{
					"inputs": [],
					"name": "pagarPrestamo",
					"outputs": [],
					"stateMutability": "payable",
					"type": "function"
				},
				{
					"inputs": [
						{
							"internalType": "uint256",
							"name": "cantidad",
							"type": "uint256"
						}
					],
					"name": "pagarPrestamoConSaldo",
					"outputs": [],
					"stateMutability": "nonpayable",
					"type": "function"
				},
				{
					"inputs": [
						{
							"internalType": "uint256",
							"name": "_monto",
							"type": "uint256"
						}
					],
					"name": "pedirPrestamo",
					"outputs": [],
					"stateMutability": "nonpayable",
					"type": "function"
				},
				{
					"inputs": [
						{
							"internalType": "uint256",
							"name": "monto",
							"type": "uint256"
						}
					],
					"name": "retirar",
					"outputs": [],
					"stateMutability": "nonpayable",
					"type": "function"
				}
			],
			"devdoc": {
				"kind": "dev",
				"methods": {},
				"version": 1
			},
			"evm": {
				"assembly": "    /* \"contracts/bancoAutonomo.sol\":216:2929  contract Banco {... */\n  mstore(0x40, 0x80)\n  callvalue\n  dup1\n  iszero\n  tag_1\n  jumpi\n  0x00\n  dup1\n  revert\ntag_1:\n  pop\n  dataSize(sub_0)\n  dup1\n  dataOffset(sub_0)\n  0x00\n  codecopy\n  0x00\n  return\nstop\n\nsub_0: assembly {\n        /* \"contracts/bancoAutonomo.sol\":216:2929  contract Banco {... */\n      mstore(0x40, 0x80)\n      jumpi(tag_1, lt(calldatasize, 0x04))\n      shr(0xe0, calldataload(0x00))\n      dup1\n      0x6ce1aedc\n      gt\n      tag_9\n      jumpi\n      dup1\n      0x6ce1aedc\n      eq\n      tag_5\n      jumpi\n      dup1\n      0x70f05f97\n      eq\n      tag_6\n      jumpi\n      dup1\n      0x8768e5c8\n      eq\n      tag_7\n      jumpi\n      dup1\n      0xe8b1298f\n      eq\n      tag_8\n      jumpi\n      jump(tag_1)\n    tag_9:\n      dup1\n      0x206935fe\n      eq\n      tag_2\n      jumpi\n      dup1\n      0x2da168da\n      eq\n      tag_3\n      jumpi\n      dup1\n      0x3d922f90\n      eq\n      tag_4\n      jumpi\n    tag_1:\n      0x00\n      dup1\n      revert\n        /* \"contracts/bancoAutonomo.sol\":2188:2475  function pagarPrestamo() external payable {... */\n    tag_2:\n      tag_10\n      tag_11\n      jump\t// in\n    tag_10:\n      stop\n        /* \"contracts/bancoAutonomo.sol\":2481:2780  function pagarPrestamoConSaldo(uint256 cantidad) public {... */\n    tag_3:\n      callvalue\n      dup1\n      iszero\n      tag_12\n      jumpi\n      0x00\n      dup1\n      revert\n    tag_12:\n      pop\n      tag_13\n      0x04\n      dup1\n      calldatasize\n      sub\n      dup2\n      add\n      swap1\n      tag_14\n      swap2\n      swap1\n      tag_15\n      jump\t// in\n    tag_14:\n      tag_16\n      jump\t// in\n    tag_13:\n      stop\n        /* \"contracts/bancoAutonomo.sol\":915:1249  function depositar() external payable { ... */\n    tag_4:\n      tag_17\n      tag_18\n      jump\t// in\n    tag_17:\n      stop\n        /* \"contracts/bancoAutonomo.sol\":1688:2180  function pedirPrestamo(uint256 _monto) public {... */\n    tag_5:\n      callvalue\n      dup1\n      iszero\n      tag_19\n      jumpi\n      0x00\n      dup1\n      revert\n    tag_19:\n      pop\n      tag_20\n      0x04\n      dup1\n      calldatasize\n      sub\n      dup2\n      add\n      swap1\n      tag_21\n      swap2\n      swap1\n      tag_15\n      jump\t// in\n    tag_21:\n      tag_22\n      jump\t// in\n    tag_20:\n      stop\n        /* \"contracts/bancoAutonomo.sol\":1581:1676  function consultar() public view returns (uint256) {... */\n    tag_6:\n      callvalue\n      dup1\n      iszero\n      tag_23\n      jumpi\n      0x00\n      dup1\n      revert\n    tag_23:\n      pop\n      tag_24\n      tag_25\n      jump\t// in\n    tag_24:\n      mload(0x40)\n      tag_26\n      swap2\n      swap1\n      tag_27\n      jump\t// in\n    tag_26:\n      mload(0x40)\n      dup1\n      swap2\n      sub\n      swap1\n      return\n        /* \"contracts/bancoAutonomo.sol\":2788:2918  function consultarSaldoDeudor(address _cuenta) public view returns (uint256) {... */\n    tag_7:\n      callvalue\n      dup1\n      iszero\n      tag_28\n      jumpi\n      0x00\n      dup1\n      revert\n    tag_28:\n      pop\n      tag_29\n      0x04\n      dup1\n      calldatasize\n      sub\n      dup2\n      add\n      swap1\n      tag_30\n      swap2\n      swap1\n      tag_31\n      jump\t// in\n    tag_30:\n      tag_32\n      jump\t// in\n    tag_29:\n      mload(0x40)\n      tag_33\n      swap2\n      swap1\n      tag_27\n      jump\t// in\n    tag_33:\n      mload(0x40)\n      dup1\n      swap2\n      sub\n      swap1\n      return\n        /* \"contracts/bancoAutonomo.sol\":1257:1573  function retirar(uint256 monto) public {... */\n    tag_8:\n      callvalue\n      dup1\n      iszero\n      tag_34\n      jumpi\n      0x00\n      dup1\n      revert\n    tag_34:\n      pop\n      tag_35\n      0x04\n      dup1\n      calldatasize\n      sub\n      dup2\n      add\n      swap1\n      tag_36\n      swap2\n      swap1\n      tag_15\n      jump\t// in\n    tag_36:\n      tag_37\n      jump\t// in\n    tag_35:\n      stop\n        /* \"contracts/bancoAutonomo.sol\":2188:2475  function pagarPrestamo() external payable {... */\n    tag_11:\n        /* \"contracts/bancoAutonomo.sol\":2261:2269  deudores */\n      0x01\n        /* \"contracts/bancoAutonomo.sol\":2261:2281  deudores[msg.sender] */\n      0x00\n        /* \"contracts/bancoAutonomo.sol\":2270:2280  msg.sender */\n      caller\n        /* \"contracts/bancoAutonomo.sol\":2261:2281  deudores[msg.sender] */\n      0xffffffffffffffffffffffffffffffffffffffff\n      and\n      0xffffffffffffffffffffffffffffffffffffffff\n      and\n      dup2\n      mstore\n      0x20\n      add\n      swap1\n      dup2\n      mstore\n      0x20\n      add\n      0x00\n      keccak256\n      sload\n        /* \"contracts/bancoAutonomo.sol\":2249:2258  msg.value */\n      callvalue\n        /* \"contracts/bancoAutonomo.sol\":2249:2281  msg.value<= deudores[msg.sender] */\n      gt\n      iszero\n        /* \"contracts/bancoAutonomo.sol\":2241:2332  require(msg.value<= deudores[msg.sender], \"el valor enviado es mayor que la deuda a pagar\") */\n      tag_39\n      jumpi\n      mload(0x40)\n      0x08c379a000000000000000000000000000000000000000000000000000000000\n      dup2\n      mstore\n      0x04\n      add\n      tag_40\n      swap1\n      tag_41\n      jump\t// in\n    tag_40:\n      mload(0x40)\n      dup1\n      swap2\n      sub\n      swap1\n      revert\n    tag_39:\n        /* \"contracts/bancoAutonomo.sol\":2367:2376  msg.value */\n      callvalue\n        /* \"contracts/bancoAutonomo.sol\":2343:2351  deudores */\n      0x01\n        /* \"contracts/bancoAutonomo.sol\":2343:2363  deudores[msg.sender] */\n      0x00\n        /* \"contracts/bancoAutonomo.sol\":2352:2362  msg.sender */\n      caller\n        /* \"contracts/bancoAutonomo.sol\":2343:2363  deudores[msg.sender] */\n      0xffffffffffffffffffffffffffffffffffffffff\n      and\n      0xffffffffffffffffffffffffffffffffffffffff\n      and\n      dup2\n      mstore\n      0x20\n      add\n      swap1\n      dup2\n      mstore\n      0x20\n      add\n      0x00\n      keccak256\n      0x00\n        /* \"contracts/bancoAutonomo.sol\":2343:2376  deudores[msg.sender] -= msg.value */\n      dup3\n      dup3\n      sload\n      tag_42\n      swap2\n      swap1\n      tag_43\n      jump\t// in\n    tag_42:\n      swap3\n      pop\n      pop\n      dup2\n      swap1\n      sstore\n      pop\n        /* \"contracts/bancoAutonomo.sol\":2412:2413  0 */\n      0x00\n        /* \"contracts/bancoAutonomo.sol\":2390:2398  deudores */\n      0x01\n        /* \"contracts/bancoAutonomo.sol\":2390:2410  deudores[msg.sender] */\n      0x00\n        /* \"contracts/bancoAutonomo.sol\":2399:2409  msg.sender */\n      caller\n        /* \"contracts/bancoAutonomo.sol\":2390:2410  deudores[msg.sender] */\n      0xffffffffffffffffffffffffffffffffffffffff\n      and\n      0xffffffffffffffffffffffffffffffffffffffff\n      and\n      dup2\n      mstore\n      0x20\n      add\n      swap1\n      dup2\n      mstore\n      0x20\n      add\n      0x00\n      keccak256\n      sload\n        /* \"contracts/bancoAutonomo.sol\":2390:2413  deudores[msg.sender]==0 */\n      sub\n        /* \"contracts/bancoAutonomo.sol\":2387:2468  if(deudores[msg.sender]==0){... */\n      tag_44\n      jumpi\n        /* \"contracts/bancoAutonomo.sol\":2436:2444  deudores */\n      0x01\n        /* \"contracts/bancoAutonomo.sol\":2436:2456  deudores[msg.sender] */\n      0x00\n        /* \"contracts/bancoAutonomo.sol\":2445:2455  msg.sender */\n      caller\n        /* \"contracts/bancoAutonomo.sol\":2436:2456  deudores[msg.sender] */\n      0xffffffffffffffffffffffffffffffffffffffff\n      and\n      0xffffffffffffffffffffffffffffffffffffffff\n      and\n      dup2\n      mstore\n      0x20\n      add\n      swap1\n      dup2\n      mstore\n      0x20\n      add\n      0x00\n      keccak256\n        /* \"contracts/bancoAutonomo.sol\":2429:2456  delete deudores[msg.sender] */\n      0x00\n      swap1\n      sstore\n        /* \"contracts/bancoAutonomo.sol\":2387:2468  if(deudores[msg.sender]==0){... */\n    tag_44:\n        /* \"contracts/bancoAutonomo.sol\":2188:2475  function pagarPrestamo() external payable {... */\n      jump\t// out\n        /* \"contracts/bancoAutonomo.sol\":2481:2780  function pagarPrestamoConSaldo(uint256 cantidad) public {... */\n    tag_16:\n        /* \"contracts/bancoAutonomo.sol\":2567:2575  deudores */\n      0x01\n        /* \"contracts/bancoAutonomo.sol\":2567:2587  deudores[msg.sender] */\n      0x00\n        /* \"contracts/bancoAutonomo.sol\":2576:2586  msg.sender */\n      caller\n        /* \"contracts/bancoAutonomo.sol\":2567:2587  deudores[msg.sender] */\n      0xffffffffffffffffffffffffffffffffffffffff\n      and\n      0xffffffffffffffffffffffffffffffffffffffff\n      and\n      dup2\n      mstore\n      0x20\n      add\n      swap1\n      dup2\n      mstore\n      0x20\n      add\n      0x00\n      keccak256\n      sload\n        /* \"contracts/bancoAutonomo.sol\":2556:2564  cantidad */\n      dup2\n        /* \"contracts/bancoAutonomo.sol\":2556:2587  cantidad<= deudores[msg.sender] */\n      gt\n      iszero\n        /* \"contracts/bancoAutonomo.sol\":2548:2638  require(cantidad<= deudores[msg.sender], \"el valor enviado es mayor que la deuda a pagar\") */\n      tag_46\n      jumpi\n      mload(0x40)\n      0x08c379a000000000000000000000000000000000000000000000000000000000\n      dup2\n      mstore\n      0x04\n      add\n      tag_47\n      swap1\n      tag_41\n      jump\t// in\n    tag_47:\n      mload(0x40)\n      dup1\n      swap2\n      sub\n      swap1\n      revert\n    tag_46:\n        /* \"contracts/bancoAutonomo.sol\":2673:2681  cantidad */\n      dup1\n        /* \"contracts/bancoAutonomo.sol\":2649:2657  deudores */\n      0x01\n        /* \"contracts/bancoAutonomo.sol\":2649:2669  deudores[msg.sender] */\n      0x00\n        /* \"contracts/bancoAutonomo.sol\":2658:2668  msg.sender */\n      caller\n        /* \"contracts/bancoAutonomo.sol\":2649:2669  deudores[msg.sender] */\n      0xffffffffffffffffffffffffffffffffffffffff\n      and\n      0xffffffffffffffffffffffffffffffffffffffff\n      and\n      dup2\n      mstore\n      0x20\n      add\n      swap1\n      dup2\n      mstore\n      0x20\n      add\n      0x00\n      keccak256\n      0x00\n        /* \"contracts/bancoAutonomo.sol\":2649:2681  deudores[msg.sender] -= cantidad */\n      dup3\n      dup3\n      sload\n      tag_48\n      swap2\n      swap1\n      tag_43\n      jump\t// in\n    tag_48:\n      swap3\n      pop\n      pop\n      dup2\n      swap1\n      sstore\n      pop\n        /* \"contracts/bancoAutonomo.sol\":2717:2718  0 */\n      0x00\n        /* \"contracts/bancoAutonomo.sol\":2695:2703  deudores */\n      0x01\n        /* \"contracts/bancoAutonomo.sol\":2695:2715  deudores[msg.sender] */\n      0x00\n        /* \"contracts/bancoAutonomo.sol\":2704:2714  msg.sender */\n      caller\n        /* \"contracts/bancoAutonomo.sol\":2695:2715  deudores[msg.sender] */\n      0xffffffffffffffffffffffffffffffffffffffff\n      and\n      0xffffffffffffffffffffffffffffffffffffffff\n      and\n      dup2\n      mstore\n      0x20\n      add\n      swap1\n      dup2\n      mstore\n      0x20\n      add\n      0x00\n      keccak256\n      sload\n        /* \"contracts/bancoAutonomo.sol\":2695:2718  deudores[msg.sender]==0 */\n      sub\n        /* \"contracts/bancoAutonomo.sol\":2692:2773  if(deudores[msg.sender]==0){... */\n      tag_49\n      jumpi\n        /* \"contracts/bancoAutonomo.sol\":2741:2749  deudores */\n      0x01\n        /* \"contracts/bancoAutonomo.sol\":2741:2761  deudores[msg.sender] */\n      0x00\n        /* \"contracts/bancoAutonomo.sol\":2750:2760  msg.sender */\n      caller\n        /* \"contracts/bancoAutonomo.sol\":2741:2761  deudores[msg.sender] */\n      0xffffffffffffffffffffffffffffffffffffffff\n      and\n      0xffffffffffffffffffffffffffffffffffffffff\n      and\n      dup2\n      mstore\n      0x20\n      add\n      swap1\n      dup2\n      mstore\n      0x20\n      add\n      0x00\n      keccak256\n        /* \"contracts/bancoAutonomo.sol\":2734:2761  delete deudores[msg.sender] */\n      0x00\n      swap1\n      sstore\n        /* \"contracts/bancoAutonomo.sol\":2692:2773  if(deudores[msg.sender]==0){... */\n    tag_49:\n        /* \"contracts/bancoAutonomo.sol\":2481:2780  function pagarPrestamoConSaldo(uint256 cantidad) public {... */\n      pop\n      jump\t// out\n        /* \"contracts/bancoAutonomo.sol\":915:1249  function depositar() external payable { ... */\n    tag_18:\n        /* \"contracts/bancoAutonomo.sol\":1163:1164  0 */\n      0x00\n        /* \"contracts/bancoAutonomo.sol\":1151:1160  msg.value */\n      callvalue\n        /* \"contracts/bancoAutonomo.sol\":1151:1164  msg.value > 0 */\n      gt\n        /* \"contracts/bancoAutonomo.sol\":1143:1199  require(msg.value > 0, \"El deposito debe ser mayor a 0\") */\n      tag_51\n      jumpi\n      mload(0x40)\n      0x08c379a000000000000000000000000000000000000000000000000000000000\n      dup2\n      mstore\n      0x04\n      add\n      tag_52\n      swap1\n      tag_53\n      jump\t// in\n    tag_52:\n      mload(0x40)\n      dup1\n      swap2\n      sub\n      swap1\n      revert\n    tag_51:\n        /* \"contracts/bancoAutonomo.sol\":1232:1241  msg.value */\n      callvalue\n        /* \"contracts/bancoAutonomo.sol\":1210:1216  saldos */\n      0x00\n        /* \"contracts/bancoAutonomo.sol\":1210:1228  saldos[msg.sender] */\n      dup1\n        /* \"contracts/bancoAutonomo.sol\":1217:1227  msg.sender */\n      caller\n        /* \"contracts/bancoAutonomo.sol\":1210:1228  saldos[msg.sender] */\n      0xffffffffffffffffffffffffffffffffffffffff\n      and\n      0xffffffffffffffffffffffffffffffffffffffff\n      and\n      dup2\n      mstore\n      0x20\n      add\n      swap1\n      dup2\n      mstore\n      0x20\n      add\n      0x00\n      keccak256\n      0x00\n        /* \"contracts/bancoAutonomo.sol\":1210:1241  saldos[msg.sender] += msg.value */\n      dup3\n      dup3\n      sload\n      tag_54\n      swap2\n      swap1\n      tag_55\n      jump\t// in\n    tag_54:\n      swap3\n      pop\n      pop\n      dup2\n      swap1\n      sstore\n      pop\n        /* \"contracts/bancoAutonomo.sol\":915:1249  function depositar() external payable { ... */\n      jump\t// out\n        /* \"contracts/bancoAutonomo.sol\":1688:2180  function pedirPrestamo(uint256 _monto) public {... */\n    tag_22:\n        /* \"contracts/bancoAutonomo.sol\":1762:1763  0 */\n      0x00\n        /* \"contracts/bancoAutonomo.sol\":1753:1759  _monto */\n      dup2\n        /* \"contracts/bancoAutonomo.sol\":1753:1763  _monto > 0 */\n      gt\n        /* \"contracts/bancoAutonomo.sol\":1745:1798  require(_monto > 0, \"El deposito debe ser mayor a 0\") */\n      tag_57\n      jumpi\n      mload(0x40)\n      0x08c379a000000000000000000000000000000000000000000000000000000000\n      dup2\n      mstore\n      0x04\n      add\n      tag_58\n      swap1\n      tag_53\n      jump\t// in\n    tag_58:\n      mload(0x40)\n      dup1\n      swap2\n      sub\n      swap1\n      revert\n    tag_57:\n        /* \"contracts/bancoAutonomo.sol\":1838:1839  0 */\n      0x00\n        /* \"contracts/bancoAutonomo.sol\":1817:1825  deudores */\n      0x01\n        /* \"contracts/bancoAutonomo.sol\":1817:1837  deudores[msg.sender] */\n      0x00\n        /* \"contracts/bancoAutonomo.sol\":1826:1836  msg.sender */\n      caller\n        /* \"contracts/bancoAutonomo.sol\":1817:1837  deudores[msg.sender] */\n      0xffffffffffffffffffffffffffffffffffffffff\n      and\n      0xffffffffffffffffffffffffffffffffffffffff\n      and\n      dup2\n      mstore\n      0x20\n      add\n      swap1\n      dup2\n      mstore\n      0x20\n      add\n      0x00\n      keccak256\n      sload\n        /* \"contracts/bancoAutonomo.sol\":1817:1839  deudores[msg.sender]>0 */\n      gt\n        /* \"contracts/bancoAutonomo.sol\":1809:1895  require(deudores[msg.sender]>0, \"ya se le hizo un prestamo y aun no ha sido devuelto\") */\n      tag_59\n      jumpi\n      mload(0x40)\n      0x08c379a000000000000000000000000000000000000000000000000000000000\n      dup2\n      mstore\n      0x04\n      add\n      tag_60\n      swap1\n      tag_61\n      jump\t// in\n    tag_60:\n      mload(0x40)\n      dup1\n      swap2\n      sub\n      swap1\n      revert\n    tag_59:\n        /* \"contracts/bancoAutonomo.sol\":1922:1943  address(this).balance */\n      selfbalance\n        /* \"contracts/bancoAutonomo.sol\":1914:1920  _monto */\n      dup2\n        /* \"contracts/bancoAutonomo.sol\":1914:1943  _monto<=address(this).balance */\n      gt\n      iszero\n        /* \"contracts/bancoAutonomo.sol\":1906:2016  require(_monto<=address(this).balance, \"no se dispone de dicha cantidad en nuestros fondos en estos momentos\") */\n      tag_62\n      jumpi\n      mload(0x40)\n      0x08c379a000000000000000000000000000000000000000000000000000000000\n      dup2\n      mstore\n      0x04\n      add\n      tag_63\n      swap1\n      tag_64\n      jump\t// in\n    tag_63:\n      mload(0x40)\n      dup1\n      swap2\n      sub\n      swap1\n      revert\n    tag_62:\n        /* \"contracts/bancoAutonomo.sol\":2060:2066  _monto */\n      dup1\n        /* \"contracts/bancoAutonomo.sol\":2037:2045  deudores */\n      0x01\n        /* \"contracts/bancoAutonomo.sol\":2037:2057  deudores[msg.sender] */\n      0x00\n        /* \"contracts/bancoAutonomo.sol\":2046:2056  msg.sender */\n      caller\n        /* \"contracts/bancoAutonomo.sol\":2037:2057  deudores[msg.sender] */\n      0xffffffffffffffffffffffffffffffffffffffff\n      and\n      0xffffffffffffffffffffffffffffffffffffffff\n      and\n      dup2\n      mstore\n      0x20\n      add\n      swap1\n      dup2\n      mstore\n      0x20\n      add\n      0x00\n      keccak256\n        /* \"contracts/bancoAutonomo.sol\":2037:2066  deudores[msg.sender] = _monto */\n      dup2\n      swap1\n      sstore\n      pop\n        /* \"contracts/bancoAutonomo.sol\":2099:2105  _monto */\n      dup1\n        /* \"contracts/bancoAutonomo.sol\":2077:2083  saldos */\n      0x00\n        /* \"contracts/bancoAutonomo.sol\":2077:2095  saldos[msg.sender] */\n      dup1\n        /* \"contracts/bancoAutonomo.sol\":2084:2094  msg.sender */\n      caller\n        /* \"contracts/bancoAutonomo.sol\":2077:2095  saldos[msg.sender] */\n      0xffffffffffffffffffffffffffffffffffffffff\n      and\n      0xffffffffffffffffffffffffffffffffffffffff\n      and\n      dup2\n      mstore\n      0x20\n      add\n      swap1\n      dup2\n      mstore\n      0x20\n      add\n      0x00\n      keccak256\n      0x00\n        /* \"contracts/bancoAutonomo.sol\":2077:2105  saldos[msg.sender] += _monto */\n      dup3\n      dup3\n      sload\n      tag_65\n      swap2\n      swap1\n      tag_55\n      jump\t// in\n    tag_65:\n      swap3\n      pop\n      pop\n      dup2\n      swap1\n      sstore\n      pop\n        /* \"contracts/bancoAutonomo.sol\":1688:2180  function pedirPrestamo(uint256 _monto) public {... */\n      pop\n      jump\t// out\n        /* \"contracts/bancoAutonomo.sol\":1581:1676  function consultar() public view returns (uint256) {... */\n    tag_25:\n        /* \"contracts/bancoAutonomo.sol\":1623:1630  uint256 */\n      0x00\n        /* \"contracts/bancoAutonomo.sol\":1650:1656  saldos */\n      dup1\n        /* \"contracts/bancoAutonomo.sol\":1650:1668  saldos[msg.sender] */\n      0x00\n        /* \"contracts/bancoAutonomo.sol\":1657:1667  msg.sender */\n      caller\n        /* \"contracts/bancoAutonomo.sol\":1650:1668  saldos[msg.sender] */\n      0xffffffffffffffffffffffffffffffffffffffff\n      and\n      0xffffffffffffffffffffffffffffffffffffffff\n      and\n      dup2\n      mstore\n      0x20\n      add\n      swap1\n      dup2\n      mstore\n      0x20\n      add\n      0x00\n      keccak256\n      sload\n        /* \"contracts/bancoAutonomo.sol\":1643:1668  return saldos[msg.sender] */\n      swap1\n      pop\n        /* \"contracts/bancoAutonomo.sol\":1581:1676  function consultar() public view returns (uint256) {... */\n      swap1\n      jump\t// out\n        /* \"contracts/bancoAutonomo.sol\":2788:2918  function consultarSaldoDeudor(address _cuenta) public view returns (uint256) {... */\n    tag_32:\n        /* \"contracts/bancoAutonomo.sol\":2856:2863  uint256 */\n      0x00\n        /* \"contracts/bancoAutonomo.sol\":2883:2891  deudores */\n      0x01\n        /* \"contracts/bancoAutonomo.sol\":2883:2900  deudores[_cuenta] */\n      0x00\n        /* \"contracts/bancoAutonomo.sol\":2892:2899  _cuenta */\n      dup4\n        /* \"contracts/bancoAutonomo.sol\":2883:2900  deudores[_cuenta] */\n      0xffffffffffffffffffffffffffffffffffffffff\n      and\n      0xffffffffffffffffffffffffffffffffffffffff\n      and\n      dup2\n      mstore\n      0x20\n      add\n      swap1\n      dup2\n      mstore\n      0x20\n      add\n      0x00\n      keccak256\n      sload\n        /* \"contracts/bancoAutonomo.sol\":2876:2900  return deudores[_cuenta] */\n      swap1\n      pop\n        /* \"contracts/bancoAutonomo.sol\":2788:2918  function consultarSaldoDeudor(address _cuenta) public view returns (uint256) {... */\n      swap2\n      swap1\n      pop\n      jump\t// out\n        /* \"contracts/bancoAutonomo.sol\":1257:1573  function retirar(uint256 monto) public {... */\n    tag_37:\n        /* \"contracts/bancoAutonomo.sol\":1337:1342  monto */\n      dup1\n        /* \"contracts/bancoAutonomo.sol\":1315:1321  saldos */\n      0x00\n        /* \"contracts/bancoAutonomo.sol\":1315:1333  saldos[msg.sender] */\n      dup1\n        /* \"contracts/bancoAutonomo.sol\":1322:1332  msg.sender */\n      caller\n        /* \"contracts/bancoAutonomo.sol\":1315:1333  saldos[msg.sender] */\n      0xffffffffffffffffffffffffffffffffffffffff\n      and\n      0xffffffffffffffffffffffffffffffffffffffff\n      and\n      dup2\n      mstore\n      0x20\n      add\n      swap1\n      dup2\n      mstore\n      0x20\n      add\n      0x00\n      keccak256\n      sload\n        /* \"contracts/bancoAutonomo.sol\":1315:1342  saldos[msg.sender] >= monto */\n      lt\n      iszero\n        /* \"contracts/bancoAutonomo.sol\":1307:1365  require(saldos[msg.sender] >= monto, \"Saldo insuficiente\") */\n      tag_69\n      jumpi\n      mload(0x40)\n      0x08c379a000000000000000000000000000000000000000000000000000000000\n      dup2\n      mstore\n      0x04\n      add\n      tag_70\n      swap1\n      tag_71\n      jump\t// in\n    tag_70:\n      mload(0x40)\n      dup1\n      swap2\n      sub\n      swap1\n      revert\n    tag_69:\n        /* \"contracts/bancoAutonomo.sol\":1409:1414  monto */\n      dup1\n        /* \"contracts/bancoAutonomo.sol\":1385:1406  address(this).balance */\n      selfbalance\n        /* \"contracts/bancoAutonomo.sol\":1385:1414  address(this).balance>= monto */\n      lt\n      iszero\n        /* \"contracts/bancoAutonomo.sol\":1376:1481  require( address(this).balance>= monto, \"No disponemos de tantos fondos en este momento, siga esperando\") */\n      tag_72\n      jumpi\n      mload(0x40)\n      0x08c379a000000000000000000000000000000000000000000000000000000000\n      dup2\n      mstore\n      0x04\n      add\n      tag_73\n      swap1\n      tag_74\n      jump\t// in\n    tag_73:\n      mload(0x40)\n      dup1\n      swap2\n      sub\n      swap1\n      revert\n    tag_72:\n        /* \"contracts/bancoAutonomo.sol\":1514:1519  monto */\n      dup1\n        /* \"contracts/bancoAutonomo.sol\":1492:1498  saldos */\n      0x00\n        /* \"contracts/bancoAutonomo.sol\":1492:1510  saldos[msg.sender] */\n      dup1\n        /* \"contracts/bancoAutonomo.sol\":1499:1509  msg.sender */\n      caller\n        /* \"contracts/bancoAutonomo.sol\":1492:1510  saldos[msg.sender] */\n      0xffffffffffffffffffffffffffffffffffffffff\n      and\n      0xffffffffffffffffffffffffffffffffffffffff\n      and\n      dup2\n      mstore\n      0x20\n      add\n      swap1\n      dup2\n      mstore\n      0x20\n      add\n      0x00\n      keccak256\n      0x00\n        /* \"contracts/bancoAutonomo.sol\":1492:1519  saldos[msg.sender] -= monto */\n      dup3\n      dup3\n      sload\n      tag_75\n      swap2\n      swap1\n      tag_43\n      jump\t// in\n    tag_75:\n      swap3\n      pop\n      pop\n      dup2\n      swap1\n      sstore\n      pop\n        /* \"contracts/bancoAutonomo.sol\":1538:1548  msg.sender */\n      caller\n        /* \"contracts/bancoAutonomo.sol\":1530:1558  payable(msg.sender).transfer */\n      0xffffffffffffffffffffffffffffffffffffffff\n      and\n        /* \"contracts/bancoAutonomo.sol\":1530:1565  payable(msg.sender).transfer(monto) */\n      0x08fc\n        /* \"contracts/bancoAutonomo.sol\":1559:1564  monto */\n      dup3\n        /* \"contracts/bancoAutonomo.sol\":1530:1565  payable(msg.sender).transfer(monto) */\n      swap1\n      dup2\n      iszero\n      mul\n      swap1\n      mload(0x40)\n      0x00\n      mload(0x40)\n      dup1\n      dup4\n      sub\n      dup2\n      dup6\n      dup9\n      dup9\n      call\n      swap4\n      pop\n      pop\n      pop\n      pop\n      iszero\n      dup1\n      iszero\n      tag_77\n      jumpi\n      returndatasize\n      0x00\n      dup1\n      returndatacopy\n      revert(0x00, returndatasize)\n    tag_77:\n      pop\n        /* \"contracts/bancoAutonomo.sol\":1257:1573  function retirar(uint256 monto) public {... */\n      pop\n      jump\t// out\n        /* \"#utility.yul\":88:205   */\n    tag_79:\n        /* \"#utility.yul\":197:198   */\n      0x00\n        /* \"#utility.yul\":194:195   */\n      dup1\n        /* \"#utility.yul\":187:199   */\n      revert\n        /* \"#utility.yul\":334:411   */\n    tag_81:\n        /* \"#utility.yul\":371:378   */\n      0x00\n        /* \"#utility.yul\":400:405   */\n      dup2\n        /* \"#utility.yul\":389:405   */\n      swap1\n      pop\n        /* \"#utility.yul\":334:411   */\n      swap2\n      swap1\n      pop\n      jump\t// out\n        /* \"#utility.yul\":417:539   */\n    tag_82:\n        /* \"#utility.yul\":490:514   */\n      tag_109\n        /* \"#utility.yul\":508:513   */\n      dup2\n        /* \"#utility.yul\":490:514   */\n      tag_81\n      jump\t// in\n    tag_109:\n        /* \"#utility.yul\":483:488   */\n      dup2\n        /* \"#utility.yul\":480:515   */\n      eq\n        /* \"#utility.yul\":470:533   */\n      tag_110\n      jumpi\n        /* \"#utility.yul\":529:530   */\n      0x00\n        /* \"#utility.yul\":526:527   */\n      dup1\n        /* \"#utility.yul\":519:531   */\n      revert\n        /* \"#utility.yul\":470:533   */\n    tag_110:\n        /* \"#utility.yul\":417:539   */\n      pop\n      jump\t// out\n        /* \"#utility.yul\":545:684   */\n    tag_83:\n        /* \"#utility.yul\":591:596   */\n      0x00\n        /* \"#utility.yul\":629:635   */\n      dup2\n        /* \"#utility.yul\":616:636   */\n      calldataload\n        /* \"#utility.yul\":607:636   */\n      swap1\n      pop\n        /* \"#utility.yul\":645:678   */\n      tag_112\n        /* \"#utility.yul\":672:677   */\n      dup2\n        /* \"#utility.yul\":645:678   */\n      tag_82\n      jump\t// in\n    tag_112:\n        /* \"#utility.yul\":545:684   */\n      swap3\n      swap2\n      pop\n      pop\n      jump\t// out\n        /* \"#utility.yul\":690:1019   */\n    tag_15:\n        /* \"#utility.yul\":749:755   */\n      0x00\n        /* \"#utility.yul\":798:800   */\n      0x20\n        /* \"#utility.yul\":786:795   */\n      dup3\n        /* \"#utility.yul\":777:784   */\n      dup5\n        /* \"#utility.yul\":773:796   */\n      sub\n        /* \"#utility.yul\":769:801   */\n      slt\n        /* \"#utility.yul\":766:885   */\n      iszero\n      tag_114\n      jumpi\n        /* \"#utility.yul\":804:883   */\n      tag_115\n      tag_79\n      jump\t// in\n    tag_115:\n        /* \"#utility.yul\":766:885   */\n    tag_114:\n        /* \"#utility.yul\":924:925   */\n      0x00\n        /* \"#utility.yul\":949:1002   */\n      tag_116\n        /* \"#utility.yul\":994:1001   */\n      dup5\n        /* \"#utility.yul\":985:991   */\n      dup3\n        /* \"#utility.yul\":974:983   */\n      dup6\n        /* \"#utility.yul\":970:992   */\n      add\n        /* \"#utility.yul\":949:1002   */\n      tag_83\n      jump\t// in\n    tag_116:\n        /* \"#utility.yul\":939:1002   */\n      swap2\n      pop\n        /* \"#utility.yul\":895:1012   */\n      pop\n        /* \"#utility.yul\":690:1019   */\n      swap3\n      swap2\n      pop\n      pop\n      jump\t// out\n        /* \"#utility.yul\":1025:1143   */\n    tag_84:\n        /* \"#utility.yul\":1112:1136   */\n      tag_118\n        /* \"#utility.yul\":1130:1135   */\n      dup2\n        /* \"#utility.yul\":1112:1136   */\n      tag_81\n      jump\t// in\n    tag_118:\n        /* \"#utility.yul\":1107:1110   */\n      dup3\n        /* \"#utility.yul\":1100:1137   */\n      mstore\n        /* \"#utility.yul\":1025:1143   */\n      pop\n      pop\n      jump\t// out\n        /* \"#utility.yul\":1149:1371   */\n    tag_27:\n        /* \"#utility.yul\":1242:1246   */\n      0x00\n        /* \"#utility.yul\":1280:1282   */\n      0x20\n        /* \"#utility.yul\":1269:1278   */\n      dup3\n        /* \"#utility.yul\":1265:1283   */\n      add\n        /* \"#utility.yul\":1257:1283   */\n      swap1\n      pop\n        /* \"#utility.yul\":1293:1364   */\n      tag_120\n        /* \"#utility.yul\":1361:1362   */\n      0x00\n        /* \"#utility.yul\":1350:1359   */\n      dup4\n        /* \"#utility.yul\":1346:1363   */\n      add\n        /* \"#utility.yul\":1337:1343   */\n      dup5\n        /* \"#utility.yul\":1293:1364   */\n      tag_84\n      jump\t// in\n    tag_120:\n        /* \"#utility.yul\":1149:1371   */\n      swap3\n      swap2\n      pop\n      pop\n      jump\t// out\n        /* \"#utility.yul\":1377:1503   */\n    tag_85:\n        /* \"#utility.yul\":1414:1421   */\n      0x00\n        /* \"#utility.yul\":1454:1496   */\n      0xffffffffffffffffffffffffffffffffffffffff\n        /* \"#utility.yul\":1447:1452   */\n      dup3\n        /* \"#utility.yul\":1443:1497   */\n      and\n        /* \"#utility.yul\":1432:1497   */\n      swap1\n      pop\n        /* \"#utility.yul\":1377:1503   */\n      swap2\n      swap1\n      pop\n      jump\t// out\n        /* \"#utility.yul\":1509:1605   */\n    tag_86:\n        /* \"#utility.yul\":1546:1553   */\n      0x00\n        /* \"#utility.yul\":1575:1599   */\n      tag_123\n        /* \"#utility.yul\":1593:1598   */\n      dup3\n        /* \"#utility.yul\":1575:1599   */\n      tag_85\n      jump\t// in\n    tag_123:\n        /* \"#utility.yul\":1564:1599   */\n      swap1\n      pop\n        /* \"#utility.yul\":1509:1605   */\n      swap2\n      swap1\n      pop\n      jump\t// out\n        /* \"#utility.yul\":1611:1733   */\n    tag_87:\n        /* \"#utility.yul\":1684:1708   */\n      tag_125\n        /* \"#utility.yul\":1702:1707   */\n      dup2\n        /* \"#utility.yul\":1684:1708   */\n      tag_86\n      jump\t// in\n    tag_125:\n        /* \"#utility.yul\":1677:1682   */\n      dup2\n        /* \"#utility.yul\":1674:1709   */\n      eq\n        /* \"#utility.yul\":1664:1727   */\n      tag_126\n      jumpi\n        /* \"#utility.yul\":1723:1724   */\n      0x00\n        /* \"#utility.yul\":1720:1721   */\n      dup1\n        /* \"#utility.yul\":1713:1725   */\n      revert\n        /* \"#utility.yul\":1664:1727   */\n    tag_126:\n        /* \"#utility.yul\":1611:1733   */\n      pop\n      jump\t// out\n        /* \"#utility.yul\":1739:1878   */\n    tag_88:\n        /* \"#utility.yul\":1785:1790   */\n      0x00\n        /* \"#utility.yul\":1823:1829   */\n      dup2\n        /* \"#utility.yul\":1810:1830   */\n      calldataload\n        /* \"#utility.yul\":1801:1830   */\n      swap1\n      pop\n        /* \"#utility.yul\":1839:1872   */\n      tag_128\n        /* \"#utility.yul\":1866:1871   */\n      dup2\n        /* \"#utility.yul\":1839:1872   */\n      tag_87\n      jump\t// in\n    tag_128:\n        /* \"#utility.yul\":1739:1878   */\n      swap3\n      swap2\n      pop\n      pop\n      jump\t// out\n        /* \"#utility.yul\":1884:2213   */\n    tag_31:\n        /* \"#utility.yul\":1943:1949   */\n      0x00\n        /* \"#utility.yul\":1992:1994   */\n      0x20\n        /* \"#utility.yul\":1980:1989   */\n      dup3\n        /* \"#utility.yul\":1971:1978   */\n      dup5\n        /* \"#utility.yul\":1967:1990   */\n      sub\n        /* \"#utility.yul\":1963:1995   */\n      slt\n        /* \"#utility.yul\":1960:2079   */\n      iszero\n      tag_130\n      jumpi\n        /* \"#utility.yul\":1998:2077   */\n      tag_131\n      tag_79\n      jump\t// in\n    tag_131:\n        /* \"#utility.yul\":1960:2079   */\n    tag_130:\n        /* \"#utility.yul\":2118:2119   */\n      0x00\n        /* \"#utility.yul\":2143:2196   */\n      tag_132\n        /* \"#utility.yul\":2188:2195   */\n      dup5\n        /* \"#utility.yul\":2179:2185   */\n      dup3\n        /* \"#utility.yul\":2168:2177   */\n      dup6\n        /* \"#utility.yul\":2164:2186   */\n      add\n        /* \"#utility.yul\":2143:2196   */\n      tag_88\n      jump\t// in\n    tag_132:\n        /* \"#utility.yul\":2133:2196   */\n      swap2\n      pop\n        /* \"#utility.yul\":2089:2206   */\n      pop\n        /* \"#utility.yul\":1884:2213   */\n      swap3\n      swap2\n      pop\n      pop\n      jump\t// out\n        /* \"#utility.yul\":2219:2388   */\n    tag_89:\n        /* \"#utility.yul\":2303:2314   */\n      0x00\n        /* \"#utility.yul\":2337:2343   */\n      dup3\n        /* \"#utility.yul\":2332:2335   */\n      dup3\n        /* \"#utility.yul\":2325:2344   */\n      mstore\n        /* \"#utility.yul\":2377:2381   */\n      0x20\n        /* \"#utility.yul\":2372:2375   */\n      dup3\n        /* \"#utility.yul\":2368:2382   */\n      add\n        /* \"#utility.yul\":2353:2382   */\n      swap1\n      pop\n        /* \"#utility.yul\":2219:2388   */\n      swap3\n      swap2\n      pop\n      pop\n      jump\t// out\n        /* \"#utility.yul\":2394:2627   */\n    tag_90:\n        /* \"#utility.yul\":2534:2568   */\n      0x656c2076616c6f7220656e766961646f206573206d61796f7220717565206c61\n        /* \"#utility.yul\":2530:2531   */\n      0x00\n        /* \"#utility.yul\":2522:2528   */\n      dup3\n        /* \"#utility.yul\":2518:2532   */\n      add\n        /* \"#utility.yul\":2511:2569   */\n      mstore\n        /* \"#utility.yul\":2603:2619   */\n      0x2064657564612061207061676172000000000000000000000000000000000000\n        /* \"#utility.yul\":2598:2600   */\n      0x20\n        /* \"#utility.yul\":2590:2596   */\n      dup3\n        /* \"#utility.yul\":2586:2601   */\n      add\n        /* \"#utility.yul\":2579:2620   */\n      mstore\n        /* \"#utility.yul\":2394:2627   */\n      pop\n      jump\t// out\n        /* \"#utility.yul\":2633:2999   */\n    tag_91:\n        /* \"#utility.yul\":2775:2778   */\n      0x00\n        /* \"#utility.yul\":2796:2863   */\n      tag_136\n        /* \"#utility.yul\":2860:2862   */\n      0x2e\n        /* \"#utility.yul\":2855:2858   */\n      dup4\n        /* \"#utility.yul\":2796:2863   */\n      tag_89\n      jump\t// in\n    tag_136:\n        /* \"#utility.yul\":2789:2863   */\n      swap2\n      pop\n        /* \"#utility.yul\":2872:2965   */\n      tag_137\n        /* \"#utility.yul\":2961:2964   */\n      dup3\n        /* \"#utility.yul\":2872:2965   */\n      tag_90\n      jump\t// in\n    tag_137:\n        /* \"#utility.yul\":2990:2992   */\n      0x40\n        /* \"#utility.yul\":2985:2988   */\n      dup3\n        /* \"#utility.yul\":2981:2993   */\n      add\n        /* \"#utility.yul\":2974:2993   */\n      swap1\n      pop\n        /* \"#utility.yul\":2633:2999   */\n      swap2\n      swap1\n      pop\n      jump\t// out\n        /* \"#utility.yul\":3005:3424   */\n    tag_41:\n        /* \"#utility.yul\":3171:3175   */\n      0x00\n        /* \"#utility.yul\":3209:3211   */\n      0x20\n        /* \"#utility.yul\":3198:3207   */\n      dup3\n        /* \"#utility.yul\":3194:3212   */\n      add\n        /* \"#utility.yul\":3186:3212   */\n      swap1\n      pop\n        /* \"#utility.yul\":3258:3267   */\n      dup2\n        /* \"#utility.yul\":3252:3256   */\n      dup2\n        /* \"#utility.yul\":3248:3268   */\n      sub\n        /* \"#utility.yul\":3244:3245   */\n      0x00\n        /* \"#utility.yul\":3233:3242   */\n      dup4\n        /* \"#utility.yul\":3229:3246   */\n      add\n        /* \"#utility.yul\":3222:3269   */\n      mstore\n        /* \"#utility.yul\":3286:3417   */\n      tag_139\n        /* \"#utility.yul\":3412:3416   */\n      dup2\n        /* \"#utility.yul\":3286:3417   */\n      tag_91\n      jump\t// in\n    tag_139:\n        /* \"#utility.yul\":3278:3417   */\n      swap1\n      pop\n        /* \"#utility.yul\":3005:3424   */\n      swap2\n      swap1\n      pop\n      jump\t// out\n        /* \"#utility.yul\":3430:3610   */\n    tag_92:\n        /* \"#utility.yul\":3478:3555   */\n      0x4e487b7100000000000000000000000000000000000000000000000000000000\n        /* \"#utility.yul\":3475:3476   */\n      0x00\n        /* \"#utility.yul\":3468:3556   */\n      mstore\n        /* \"#utility.yul\":3575:3579   */\n      0x11\n        /* \"#utility.yul\":3572:3573   */\n      0x04\n        /* \"#utility.yul\":3565:3580   */\n      mstore\n        /* \"#utility.yul\":3599:3603   */\n      0x24\n        /* \"#utility.yul\":3596:3597   */\n      0x00\n        /* \"#utility.yul\":3589:3604   */\n      revert\n        /* \"#utility.yul\":3616:3810   */\n    tag_43:\n        /* \"#utility.yul\":3656:3660   */\n      0x00\n        /* \"#utility.yul\":3676:3696   */\n      tag_142\n        /* \"#utility.yul\":3694:3695   */\n      dup3\n        /* \"#utility.yul\":3676:3696   */\n      tag_81\n      jump\t// in\n    tag_142:\n        /* \"#utility.yul\":3671:3696   */\n      swap2\n      pop\n        /* \"#utility.yul\":3710:3730   */\n      tag_143\n        /* \"#utility.yul\":3728:3729   */\n      dup4\n        /* \"#utility.yul\":3710:3730   */\n      tag_81\n      jump\t// in\n    tag_143:\n        /* \"#utility.yul\":3705:3730   */\n      swap3\n      pop\n        /* \"#utility.yul\":3754:3755   */\n      dup3\n        /* \"#utility.yul\":3751:3752   */\n      dup3\n        /* \"#utility.yul\":3747:3756   */\n      sub\n        /* \"#utility.yul\":3739:3756   */\n      swap1\n      pop\n        /* \"#utility.yul\":3778:3779   */\n      dup2\n        /* \"#utility.yul\":3772:3776   */\n      dup2\n        /* \"#utility.yul\":3769:3780   */\n      gt\n        /* \"#utility.yul\":3766:3803   */\n      iszero\n      tag_144\n      jumpi\n        /* \"#utility.yul\":3783:3801   */\n      tag_145\n      tag_92\n      jump\t// in\n    tag_145:\n        /* \"#utility.yul\":3766:3803   */\n    tag_144:\n        /* \"#utility.yul\":3616:3810   */\n      swap3\n      swap2\n      pop\n      pop\n      jump\t// out\n        /* \"#utility.yul\":3816:3996   */\n    tag_93:\n        /* \"#utility.yul\":3956:3988   */\n      0x456c206465706f7369746f206465626520736572206d61796f72206120300000\n        /* \"#utility.yul\":3952:3953   */\n      0x00\n        /* \"#utility.yul\":3944:3950   */\n      dup3\n        /* \"#utility.yul\":3940:3954   */\n      add\n        /* \"#utility.yul\":3933:3989   */\n      mstore\n        /* \"#utility.yul\":3816:3996   */\n      pop\n      jump\t// out\n        /* \"#utility.yul\":4002:4368   */\n    tag_94:\n        /* \"#utility.yul\":4144:4147   */\n      0x00\n        /* \"#utility.yul\":4165:4232   */\n      tag_148\n        /* \"#utility.yul\":4229:4231   */\n      0x1e\n        /* \"#utility.yul\":4224:4227   */\n      dup4\n        /* \"#utility.yul\":4165:4232   */\n      tag_89\n      jump\t// in\n    tag_148:\n        /* \"#utility.yul\":4158:4232   */\n      swap2\n      pop\n        /* \"#utility.yul\":4241:4334   */\n      tag_149\n        /* \"#utility.yul\":4330:4333   */\n      dup3\n        /* \"#utility.yul\":4241:4334   */\n      tag_93\n      jump\t// in\n    tag_149:\n        /* \"#utility.yul\":4359:4361   */\n      0x20\n        /* \"#utility.yul\":4354:4357   */\n      dup3\n        /* \"#utility.yul\":4350:4362   */\n      add\n        /* \"#utility.yul\":4343:4362   */\n      swap1\n      pop\n        /* \"#utility.yul\":4002:4368   */\n      swap2\n      swap1\n      pop\n      jump\t// out\n        /* \"#utility.yul\":4374:4793   */\n    tag_53:\n        /* \"#utility.yul\":4540:4544   */\n      0x00\n        /* \"#utility.yul\":4578:4580   */\n      0x20\n        /* \"#utility.yul\":4567:4576   */\n      dup3\n        /* \"#utility.yul\":4563:4581   */\n      add\n        /* \"#utility.yul\":4555:4581   */\n      swap1\n      pop\n        /* \"#utility.yul\":4627:4636   */\n      dup2\n        /* \"#utility.yul\":4621:4625   */\n      dup2\n        /* \"#utility.yul\":4617:4637   */\n      sub\n        /* \"#utility.yul\":4613:4614   */\n      0x00\n        /* \"#utility.yul\":4602:4611   */\n      dup4\n        /* \"#utility.yul\":4598:4615   */\n      add\n        /* \"#utility.yul\":4591:4638   */\n      mstore\n        /* \"#utility.yul\":4655:4786   */\n      tag_151\n        /* \"#utility.yul\":4781:4785   */\n      dup2\n        /* \"#utility.yul\":4655:4786   */\n      tag_94\n      jump\t// in\n    tag_151:\n        /* \"#utility.yul\":4647:4786   */\n      swap1\n      pop\n        /* \"#utility.yul\":4374:4793   */\n      swap2\n      swap1\n      pop\n      jump\t// out\n        /* \"#utility.yul\":4799:4990   */\n    tag_55:\n        /* \"#utility.yul\":4839:4842   */\n      0x00\n        /* \"#utility.yul\":4858:4878   */\n      tag_153\n        /* \"#utility.yul\":4876:4877   */\n      dup3\n        /* \"#utility.yul\":4858:4878   */\n      tag_81\n      jump\t// in\n    tag_153:\n        /* \"#utility.yul\":4853:4878   */\n      swap2\n      pop\n        /* \"#utility.yul\":4892:4912   */\n      tag_154\n        /* \"#utility.yul\":4910:4911   */\n      dup4\n        /* \"#utility.yul\":4892:4912   */\n      tag_81\n      jump\t// in\n    tag_154:\n        /* \"#utility.yul\":4887:4912   */\n      swap3\n      pop\n        /* \"#utility.yul\":4935:4936   */\n      dup3\n        /* \"#utility.yul\":4932:4933   */\n      dup3\n        /* \"#utility.yul\":4928:4937   */\n      add\n        /* \"#utility.yul\":4921:4937   */\n      swap1\n      pop\n        /* \"#utility.yul\":4956:4959   */\n      dup1\n        /* \"#utility.yul\":4953:4954   */\n      dup3\n        /* \"#utility.yul\":4950:4960   */\n      gt\n        /* \"#utility.yul\":4947:4983   */\n      iszero\n      tag_155\n      jumpi\n        /* \"#utility.yul\":4963:4981   */\n      tag_156\n      tag_92\n      jump\t// in\n    tag_156:\n        /* \"#utility.yul\":4947:4983   */\n    tag_155:\n        /* \"#utility.yul\":4799:4990   */\n      swap3\n      swap2\n      pop\n      pop\n      jump\t// out\n        /* \"#utility.yul\":4996:5234   */\n    tag_95:\n        /* \"#utility.yul\":5136:5170   */\n      0x7961207365206c652068697a6f20756e207072657374616d6f20792061756e20\n        /* \"#utility.yul\":5132:5133   */\n      0x00\n        /* \"#utility.yul\":5124:5130   */\n      dup3\n        /* \"#utility.yul\":5120:5134   */\n      add\n        /* \"#utility.yul\":5113:5171   */\n      mstore\n        /* \"#utility.yul\":5205:5226   */\n      0x6e6f206861207369646f2064657675656c746f00000000000000000000000000\n        /* \"#utility.yul\":5200:5202   */\n      0x20\n        /* \"#utility.yul\":5192:5198   */\n      dup3\n        /* \"#utility.yul\":5188:5203   */\n      add\n        /* \"#utility.yul\":5181:5227   */\n      mstore\n        /* \"#utility.yul\":4996:5234   */\n      pop\n      jump\t// out\n        /* \"#utility.yul\":5240:5606   */\n    tag_96:\n        /* \"#utility.yul\":5382:5385   */\n      0x00\n        /* \"#utility.yul\":5403:5470   */\n      tag_159\n        /* \"#utility.yul\":5467:5469   */\n      0x33\n        /* \"#utility.yul\":5462:5465   */\n      dup4\n        /* \"#utility.yul\":5403:5470   */\n      tag_89\n      jump\t// in\n    tag_159:\n        /* \"#utility.yul\":5396:5470   */\n      swap2\n      pop\n        /* \"#utility.yul\":5479:5572   */\n      tag_160\n        /* \"#utility.yul\":5568:5571   */\n      dup3\n        /* \"#utility.yul\":5479:5572   */\n      tag_95\n      jump\t// in\n    tag_160:\n        /* \"#utility.yul\":5597:5599   */\n      0x40\n        /* \"#utility.yul\":5592:5595   */\n      dup3\n        /* \"#utility.yul\":5588:5600   */\n      add\n        /* \"#utility.yul\":5581:5600   */\n      swap1\n      pop\n        /* \"#utility.yul\":5240:5606   */\n      swap2\n      swap1\n      pop\n      jump\t// out\n        /* \"#utility.yul\":5612:6031   */\n    tag_61:\n        /* \"#utility.yul\":5778:5782   */\n      0x00\n        /* \"#utility.yul\":5816:5818   */\n      0x20\n        /* \"#utility.yul\":5805:5814   */\n      dup3\n        /* \"#utility.yul\":5801:5819   */\n      add\n        /* \"#utility.yul\":5793:5819   */\n      swap1\n      pop\n        /* \"#utility.yul\":5865:5874   */\n      dup2\n        /* \"#utility.yul\":5859:5863   */\n      dup2\n        /* \"#utility.yul\":5855:5875   */\n      sub\n        /* \"#utility.yul\":5851:5852   */\n      0x00\n        /* \"#utility.yul\":5840:5849   */\n      dup4\n        /* \"#utility.yul\":5836:5853   */\n      add\n        /* \"#utility.yul\":5829:5876   */\n      mstore\n        /* \"#utility.yul\":5893:6024   */\n      tag_162\n        /* \"#utility.yul\":6019:6023   */\n      dup2\n        /* \"#utility.yul\":5893:6024   */\n      tag_96\n      jump\t// in\n    tag_162:\n        /* \"#utility.yul\":5885:6024   */\n      swap1\n      pop\n        /* \"#utility.yul\":5612:6031   */\n      swap2\n      swap1\n      pop\n      jump\t// out\n        /* \"#utility.yul\":6037:6329   */\n    tag_97:\n        /* \"#utility.yul\":6177:6211   */\n      0x6e6f20736520646973706f6e652064652064696368612063616e746964616420\n        /* \"#utility.yul\":6173:6174   */\n      0x00\n        /* \"#utility.yul\":6165:6171   */\n      dup3\n        /* \"#utility.yul\":6161:6175   */\n      add\n        /* \"#utility.yul\":6154:6212   */\n      mstore\n        /* \"#utility.yul\":6246:6280   */\n      0x656e206e75657374726f7320666f6e646f7320656e206573746f73206d6f6d65\n        /* \"#utility.yul\":6241:6243   */\n      0x20\n        /* \"#utility.yul\":6233:6239   */\n      dup3\n        /* \"#utility.yul\":6229:6244   */\n      add\n        /* \"#utility.yul\":6222:6281   */\n      mstore\n        /* \"#utility.yul\":6315:6321   */\n      0x6e746f7300000000000000000000000000000000000000000000000000000000\n        /* \"#utility.yul\":6310:6312   */\n      0x40\n        /* \"#utility.yul\":6302:6308   */\n      dup3\n        /* \"#utility.yul\":6298:6313   */\n      add\n        /* \"#utility.yul\":6291:6322   */\n      mstore\n        /* \"#utility.yul\":6037:6329   */\n      pop\n      jump\t// out\n        /* \"#utility.yul\":6335:6701   */\n    tag_98:\n        /* \"#utility.yul\":6477:6480   */\n      0x00\n        /* \"#utility.yul\":6498:6565   */\n      tag_165\n        /* \"#utility.yul\":6562:6564   */\n      0x44\n        /* \"#utility.yul\":6557:6560   */\n      dup4\n        /* \"#utility.yul\":6498:6565   */\n      tag_89\n      jump\t// in\n    tag_165:\n        /* \"#utility.yul\":6491:6565   */\n      swap2\n      pop\n        /* \"#utility.yul\":6574:6667   */\n      tag_166\n        /* \"#utility.yul\":6663:6666   */\n      dup3\n        /* \"#utility.yul\":6574:6667   */\n      tag_97\n      jump\t// in\n    tag_166:\n        /* \"#utility.yul\":6692:6694   */\n      0x60\n        /* \"#utility.yul\":6687:6690   */\n      dup3\n        /* \"#utility.yul\":6683:6695   */\n      add\n        /* \"#utility.yul\":6676:6695   */\n      swap1\n      pop\n        /* \"#utility.yul\":6335:6701   */\n      swap2\n      swap1\n      pop\n      jump\t// out\n        /* \"#utility.yul\":6707:7126   */\n    tag_64:\n        /* \"#utility.yul\":6873:6877   */\n      0x00\n        /* \"#utility.yul\":6911:6913   */\n      0x20\n        /* \"#utility.yul\":6900:6909   */\n      dup3\n        /* \"#utility.yul\":6896:6914   */\n      add\n        /* \"#utility.yul\":6888:6914   */\n      swap1\n      pop\n        /* \"#utility.yul\":6960:6969   */\n      dup2\n        /* \"#utility.yul\":6954:6958   */\n      dup2\n        /* \"#utility.yul\":6950:6970   */\n      sub\n        /* \"#utility.yul\":6946:6947   */\n      0x00\n        /* \"#utility.yul\":6935:6944   */\n      dup4\n        /* \"#utility.yul\":6931:6948   */\n      add\n        /* \"#utility.yul\":6924:6971   */\n      mstore\n        /* \"#utility.yul\":6988:7119   */\n      tag_168\n        /* \"#utility.yul\":7114:7118   */\n      dup2\n        /* \"#utility.yul\":6988:7119   */\n      tag_98\n      jump\t// in\n    tag_168:\n        /* \"#utility.yul\":6980:7119   */\n      swap1\n      pop\n        /* \"#utility.yul\":6707:7126   */\n      swap2\n      swap1\n      pop\n      jump\t// out\n        /* \"#utility.yul\":7132:7300   */\n    tag_99:\n        /* \"#utility.yul\":7272:7292   */\n      0x53616c646f20696e737566696369656e74650000000000000000000000000000\n        /* \"#utility.yul\":7268:7269   */\n      0x00\n        /* \"#utility.yul\":7260:7266   */\n      dup3\n        /* \"#utility.yul\":7256:7270   */\n      add\n        /* \"#utility.yul\":7249:7293   */\n      mstore\n        /* \"#utility.yul\":7132:7300   */\n      pop\n      jump\t// out\n        /* \"#utility.yul\":7306:7672   */\n    tag_100:\n        /* \"#utility.yul\":7448:7451   */\n      0x00\n        /* \"#utility.yul\":7469:7536   */\n      tag_171\n        /* \"#utility.yul\":7533:7535   */\n      0x12\n        /* \"#utility.yul\":7528:7531   */\n      dup4\n        /* \"#utility.yul\":7469:7536   */\n      tag_89\n      jump\t// in\n    tag_171:\n        /* \"#utility.yul\":7462:7536   */\n      swap2\n      pop\n        /* \"#utility.yul\":7545:7638   */\n      tag_172\n        /* \"#utility.yul\":7634:7637   */\n      dup3\n        /* \"#utility.yul\":7545:7638   */\n      tag_99\n      jump\t// in\n    tag_172:\n        /* \"#utility.yul\":7663:7665   */\n      0x20\n        /* \"#utility.yul\":7658:7661   */\n      dup3\n        /* \"#utility.yul\":7654:7666   */\n      add\n        /* \"#utility.yul\":7647:7666   */\n      swap1\n      pop\n        /* \"#utility.yul\":7306:7672   */\n      swap2\n      swap1\n      pop\n      jump\t// out\n        /* \"#utility.yul\":7678:8097   */\n    tag_71:\n        /* \"#utility.yul\":7844:7848   */\n      0x00\n        /* \"#utility.yul\":7882:7884   */\n      0x20\n        /* \"#utility.yul\":7871:7880   */\n      dup3\n        /* \"#utility.yul\":7867:7885   */\n      add\n        /* \"#utility.yul\":7859:7885   */\n      swap1\n      pop\n        /* \"#utility.yul\":7931:7940   */\n      dup2\n        /* \"#utility.yul\":7925:7929   */\n      dup2\n        /* \"#utility.yul\":7921:7941   */\n      sub\n        /* \"#utility.yul\":7917:7918   */\n      0x00\n        /* \"#utility.yul\":7906:7915   */\n      dup4\n        /* \"#utility.yul\":7902:7919   */\n      add\n        /* \"#utility.yul\":7895:7942   */\n      mstore\n        /* \"#utility.yul\":7959:8090   */\n      tag_174\n        /* \"#utility.yul\":8085:8089   */\n      dup2\n        /* \"#utility.yul\":7959:8090   */\n      tag_100\n      jump\t// in\n    tag_174:\n        /* \"#utility.yul\":7951:8090   */\n      swap1\n      pop\n        /* \"#utility.yul\":7678:8097   */\n      swap2\n      swap1\n      pop\n      jump\t// out\n        /* \"#utility.yul\":8103:8352   */\n    tag_101:\n        /* \"#utility.yul\":8243:8277   */\n      0x4e6f20646973706f6e656d6f732064652074616e746f7320666f6e646f732065\n        /* \"#utility.yul\":8239:8240   */\n      0x00\n        /* \"#utility.yul\":8231:8237   */\n      dup3\n        /* \"#utility.yul\":8227:8241   */\n      add\n        /* \"#utility.yul\":8220:8278   */\n      mstore\n        /* \"#utility.yul\":8312:8344   */\n      0x6e2065737465206d6f6d656e746f2c2073696761206573706572616e646f0000\n        /* \"#utility.yul\":8307:8309   */\n      0x20\n        /* \"#utility.yul\":8299:8305   */\n      dup3\n        /* \"#utility.yul\":8295:8310   */\n      add\n        /* \"#utility.yul\":8288:8345   */\n      mstore\n        /* \"#utility.yul\":8103:8352   */\n      pop\n      jump\t// out\n        /* \"#utility.yul\":8358:8724   */\n    tag_102:\n        /* \"#utility.yul\":8500:8503   */\n      0x00\n        /* \"#utility.yul\":8521:8588   */\n      tag_177\n        /* \"#utility.yul\":8585:8587   */\n      0x3e\n        /* \"#utility.yul\":8580:8583   */\n      dup4\n        /* \"#utility.yul\":8521:8588   */\n      tag_89\n      jump\t// in\n    tag_177:\n        /* \"#utility.yul\":8514:8588   */\n      swap2\n      pop\n        /* \"#utility.yul\":8597:8690   */\n      tag_178\n        /* \"#utility.yul\":8686:8689   */\n      dup3\n        /* \"#utility.yul\":8597:8690   */\n      tag_101\n      jump\t// in\n    tag_178:\n        /* \"#utility.yul\":8715:8717   */\n      0x40\n        /* \"#utility.yul\":8710:8713   */\n      dup3\n        /* \"#utility.yul\":8706:8718   */\n      add\n        /* \"#utility.yul\":8699:8718   */\n      swap1\n      pop\n        /* \"#utility.yul\":8358:8724   */\n      swap2\n      swap1\n      pop\n      jump\t// out\n        /* \"#utility.yul\":8730:9149   */\n    tag_74:\n        /* \"#utility.yul\":8896:8900   */\n      0x00\n        /* \"#utility.yul\":8934:8936   */\n      0x20\n        /* \"#utility.yul\":8923:8932   */\n      dup3\n        /* \"#utility.yul\":8919:8937   */\n      add\n        /* \"#utility.yul\":8911:8937   */\n      swap1\n      pop\n        /* \"#utility.yul\":8983:8992   */\n      dup2\n        /* \"#utility.yul\":8977:8981   */\n      dup2\n        /* \"#utility.yul\":8973:8993   */\n      sub\n        /* \"#utility.yul\":8969:8970   */\n      0x00\n        /* \"#utility.yul\":8958:8967   */\n      dup4\n        /* \"#utility.yul\":8954:8971   */\n      add\n        /* \"#utility.yul\":8947:8994   */\n      mstore\n        /* \"#utility.yul\":9011:9142   */\n      tag_180\n        /* \"#utility.yul\":9137:9141   */\n      dup2\n        /* \"#utility.yul\":9011:9142   */\n      tag_102\n      jump\t// in\n    tag_180:\n        /* \"#utility.yul\":9003:9142   */\n      swap1\n      pop\n        /* \"#utility.yul\":8730:9149   */\n      swap2\n      swap1\n      pop\n      jump\t// out\n\n    auxdata: 0xa2646970667358221220d28fb62c02954f0534079b2007e523db8082e7716f7221303abe830869fd0dab64736f6c634300081a0033\n}\n",
				"bytecode": {
					"linkReferences": {},
					"object": "6080604052348015600e575f80fd5b50610d458061001c5f395ff3fe60806040526004361061006f575f3560e01c80636ce1aedc1161004d5780636ce1aedc146100af57806370f05f97146100d75780638768e5c814610101578063e8b1298f1461013d5761006f565b8063206935fe146100735780632da168da1461007d5780633d922f90146100a5575b5f80fd5b61007b610165565b005b348015610088575f80fd5b506100a3600480360381019061009e9190610866565b6102bf565b005b6100ad61041a565b005b3480156100ba575f80fd5b506100d560048036038101906100d09190610866565b6104b0565b005b3480156100e2575f80fd5b506100eb61064b565b6040516100f891906108a0565b60405180910390f35b34801561010c575f80fd5b5061012760048036038101906101229190610913565b61068e565b60405161013491906108a0565b60405180910390f35b348015610148575f80fd5b50610163600480360381019061015e9190610866565b6106d4565b005b60015f3373ffffffffffffffffffffffffffffffffffffffff1673ffffffffffffffffffffffffffffffffffffffff1681526020019081526020015f20543411156101e5576040517f08c379a00000000000000000000000000000000000000000000000000000000081526004016101dc906109be565b60405180910390fd5b3460015f3373ffffffffffffffffffffffffffffffffffffffff1673ffffffffffffffffffffffffffffffffffffffff1681526020019081526020015f205f8282546102319190610a09565b925050819055505f60015f3373ffffffffffffffffffffffffffffffffffffffff1673ffffffffffffffffffffffffffffffffffffffff1681526020019081526020015f2054036102bd5760015f3373ffffffffffffffffffffffffffffffffffffffff1673ffffffffffffffffffffffffffffffffffffffff1681526020019081526020015f205f90555b565b60015f3373ffffffffffffffffffffffffffffffffffffffff1673ffffffffffffffffffffffffffffffffffffffff1681526020019081526020015f205481111561033f576040517f08c379a0000000000000000000000000000000000000000000000000000000008152600401610336906109be565b60405180910390fd5b8060015f3373ffffffffffffffffffffffffffffffffffffffff1673ffffffffffffffffffffffffffffffffffffffff1681526020019081526020015f205f82825461038b9190610a09565b925050819055505f60015f3373ffffffffffffffffffffffffffffffffffffffff1673ffffffffffffffffffffffffffffffffffffffff1681526020019081526020015f2054036104175760015f3373ffffffffffffffffffffffffffffffffffffffff1673ffffffffffffffffffffffffffffffffffffffff1681526020019081526020015f205f90555b50565b5f341161045c576040517f08c379a000000000000000000000000000000000000000000000000000000000815260040161045390610a86565b60405180910390fd5b345f803373ffffffffffffffffffffffffffffffffffffffff1673ffffffffffffffffffffffffffffffffffffffff1681526020019081526020015f205f8282546104a79190610aa4565b92505081905550565b5f81116104f2576040517f08c379a00000000000000000000000000000000000000000000000000000000081526004016104e990610a86565b60405180910390fd5b5f60015f3373ffffffffffffffffffffffffffffffffffffffff1673ffffffffffffffffffffffffffffffffffffffff1681526020019081526020015f205411610571576040517f08c379a000000000000000000000000000000000000000000000000000000000815260040161056890610b47565b60405180910390fd5b478111156105b4576040517f08c379a00000000000000000000000000000000000000000000000000000000081526004016105ab90610bfb565b60405180910390fd5b8060015f3373ffffffffffffffffffffffffffffffffffffffff1673ffffffffffffffffffffffffffffffffffffffff1681526020019081526020015f2081905550805f803373ffffffffffffffffffffffffffffffffffffffff1673ffffffffffffffffffffffffffffffffffffffff1681526020019081526020015f205f8282546106419190610aa4565b9250508190555050565b5f805f3373ffffffffffffffffffffffffffffffffffffffff1673ffffffffffffffffffffffffffffffffffffffff1681526020019081526020015f2054905090565b5f60015f8373ffffffffffffffffffffffffffffffffffffffff1673ffffffffffffffffffffffffffffffffffffffff1681526020019081526020015f20549050919050565b805f803373ffffffffffffffffffffffffffffffffffffffff1673ffffffffffffffffffffffffffffffffffffffff1681526020019081526020015f20541015610753576040517f08c379a000000000000000000000000000000000000000000000000000000000815260040161074a90610c63565b60405180910390fd5b80471015610796576040517f08c379a000000000000000000000000000000000000000000000000000000000815260040161078d90610cf1565b60405180910390fd5b805f803373ffffffffffffffffffffffffffffffffffffffff1673ffffffffffffffffffffffffffffffffffffffff1681526020019081526020015f205f8282546107e19190610a09565b925050819055503373ffffffffffffffffffffffffffffffffffffffff166108fc8290811502906040515f60405180830381858888f1935050505015801561082b573d5f803e3d5ffd5b5050565b5f80fd5b5f819050919050565b61084581610833565b811461084f575f80fd5b50565b5f813590506108608161083c565b92915050565b5f6020828403121561087b5761087a61082f565b5b5f61088884828501610852565b91505092915050565b61089a81610833565b82525050565b5f6020820190506108b35f830184610891565b92915050565b5f73ffffffffffffffffffffffffffffffffffffffff82169050919050565b5f6108e2826108b9565b9050919050565b6108f2816108d8565b81146108fc575f80fd5b50565b5f8135905061090d816108e9565b92915050565b5f602082840312156109285761092761082f565b5b5f610935848285016108ff565b91505092915050565b5f82825260208201905092915050565b7f656c2076616c6f7220656e766961646f206573206d61796f7220717565206c615f8201527f2064657564612061207061676172000000000000000000000000000000000000602082015250565b5f6109a8602e8361093e565b91506109b38261094e565b604082019050919050565b5f6020820190508181035f8301526109d58161099c565b9050919050565b7f4e487b71000000000000000000000000000000000000000000000000000000005f52601160045260245ffd5b5f610a1382610833565b9150610a1e83610833565b9250828203905081811115610a3657610a356109dc565b5b92915050565b7f456c206465706f7369746f206465626520736572206d61796f722061203000005f82015250565b5f610a70601e8361093e565b9150610a7b82610a3c565b602082019050919050565b5f6020820190508181035f830152610a9d81610a64565b9050919050565b5f610aae82610833565b9150610ab983610833565b9250828201905080821115610ad157610ad06109dc565b5b92915050565b7f7961207365206c652068697a6f20756e207072657374616d6f20792061756e205f8201527f6e6f206861207369646f2064657675656c746f00000000000000000000000000602082015250565b5f610b3160338361093e565b9150610b3c82610ad7565b604082019050919050565b5f6020820190508181035f830152610b5e81610b25565b9050919050565b7f6e6f20736520646973706f6e652064652064696368612063616e7469646164205f8201527f656e206e75657374726f7320666f6e646f7320656e206573746f73206d6f6d6560208201527f6e746f7300000000000000000000000000000000000000000000000000000000604082015250565b5f610be560448361093e565b9150610bf082610b65565b606082019050919050565b5f6020820190508181035f830152610c1281610bd9565b9050919050565b7f53616c646f20696e737566696369656e746500000000000000000000000000005f82015250565b5f610c4d60128361093e565b9150610c5882610c19565b602082019050919050565b5f6020820190508181035f830152610c7a81610c41565b9050919050565b7f4e6f20646973706f6e656d6f732064652074616e746f7320666f6e646f7320655f8201527f6e2065737465206d6f6d656e746f2c2073696761206573706572616e646f0000602082015250565b5f610cdb603e8361093e565b9150610ce682610c81565b604082019050919050565b5f6020820190508181035f830152610d0881610ccf565b905091905056fea2646970667358221220d28fb62c02954f0534079b2007e523db8082e7716f7221303abe830869fd0dab64736f6c634300081a0033",
					"opcodes": "PUSH1 0x80 PUSH1 0x40 MSTORE CALLVALUE DUP1 ISZERO PUSH1 0xE JUMPI PUSH0 DUP1 REVERT JUMPDEST POP PUSH2 0xD45 DUP1 PUSH2 0x1C PUSH0 CODECOPY PUSH0 RETURN INVALID PUSH1 0x80 PUSH1 0x40 MSTORE PUSH1 0x4 CALLDATASIZE LT PUSH2 0x6F JUMPI PUSH0 CALLDATALOAD PUSH1 0xE0 SHR DUP1 PUSH4 0x6CE1AEDC GT PUSH2 0x4D JUMPI DUP1 PUSH4 0x6CE1AEDC EQ PUSH2 0xAF JUMPI DUP1 PUSH4 0x70F05F97 EQ PUSH2 0xD7 JUMPI DUP1 PUSH4 0x8768E5C8 EQ PUSH2 0x101 JUMPI DUP1 PUSH4 0xE8B1298F EQ PUSH2 0x13D JUMPI PUSH2 0x6F JUMP JUMPDEST DUP1 PUSH4 0x206935FE EQ PUSH2 0x73 JUMPI DUP1 PUSH4 0x2DA168DA EQ PUSH2 0x7D JUMPI DUP1 PUSH4 0x3D922F90 EQ PUSH2 0xA5 JUMPI JUMPDEST PUSH0 DUP1 REVERT JUMPDEST PUSH2 0x7B PUSH2 0x165 JUMP JUMPDEST STOP JUMPDEST CALLVALUE DUP1 ISZERO PUSH2 0x88 JUMPI PUSH0 DUP1 REVERT JUMPDEST POP PUSH2 0xA3 PUSH1 0x4 DUP1 CALLDATASIZE SUB DUP2 ADD SWAP1 PUSH2 0x9E SWAP2 SWAP1 PUSH2 0x866 JUMP JUMPDEST PUSH2 0x2BF JUMP JUMPDEST STOP JUMPDEST PUSH2 0xAD PUSH2 0x41A JUMP JUMPDEST STOP JUMPDEST CALLVALUE DUP1 ISZERO PUSH2 0xBA JUMPI PUSH0 DUP1 REVERT JUMPDEST POP PUSH2 0xD5 PUSH1 0x4 DUP1 CALLDATASIZE SUB DUP2 ADD SWAP1 PUSH2 0xD0 SWAP2 SWAP1 PUSH2 0x866 JUMP JUMPDEST PUSH2 0x4B0 JUMP JUMPDEST STOP JUMPDEST CALLVALUE DUP1 ISZERO PUSH2 0xE2 JUMPI PUSH0 DUP1 REVERT JUMPDEST POP PUSH2 0xEB PUSH2 0x64B JUMP JUMPDEST PUSH1 0x40 MLOAD PUSH2 0xF8 SWAP2 SWAP1 PUSH2 0x8A0 JUMP JUMPDEST PUSH1 0x40 MLOAD DUP1 SWAP2 SUB SWAP1 RETURN JUMPDEST CALLVALUE DUP1 ISZERO PUSH2 0x10C JUMPI PUSH0 DUP1 REVERT JUMPDEST POP PUSH2 0x127 PUSH1 0x4 DUP1 CALLDATASIZE SUB DUP2 ADD SWAP1 PUSH2 0x122 SWAP2 SWAP1 PUSH2 0x913 JUMP JUMPDEST PUSH2 0x68E JUMP JUMPDEST PUSH1 0x40 MLOAD PUSH2 0x134 SWAP2 SWAP1 PUSH2 0x8A0 JUMP JUMPDEST PUSH1 0x40 MLOAD DUP1 SWAP2 SUB SWAP1 RETURN JUMPDEST CALLVALUE DUP1 ISZERO PUSH2 0x148 JUMPI PUSH0 DUP1 REVERT JUMPDEST POP PUSH2 0x163 PUSH1 0x4 DUP1 CALLDATASIZE SUB DUP2 ADD SWAP1 PUSH2 0x15E SWAP2 SWAP1 PUSH2 0x866 JUMP JUMPDEST PUSH2 0x6D4 JUMP JUMPDEST STOP JUMPDEST PUSH1 0x1 PUSH0 CALLER PUSH20 0xFFFFFFFFFFFFFFFFFFFFFFFFFFFFFFFFFFFFFFFF AND PUSH20 0xFFFFFFFFFFFFFFFFFFFFFFFFFFFFFFFFFFFFFFFF AND DUP2 MSTORE PUSH1 0x20 ADD SWAP1 DUP2 MSTORE PUSH1 0x20 ADD PUSH0 KECCAK256 SLOAD CALLVALUE GT ISZERO PUSH2 0x1E5 JUMPI PUSH1 0x40 MLOAD PUSH32 0x8C379A000000000000000000000000000000000000000000000000000000000 DUP2 MSTORE PUSH1 0x4 ADD PUSH2 0x1DC SWAP1 PUSH2 0x9BE JUMP JUMPDEST PUSH1 0x40 MLOAD DUP1 SWAP2 SUB SWAP1 REVERT JUMPDEST CALLVALUE PUSH1 0x1 PUSH0 CALLER PUSH20 0xFFFFFFFFFFFFFFFFFFFFFFFFFFFFFFFFFFFFFFFF AND PUSH20 0xFFFFFFFFFFFFFFFFFFFFFFFFFFFFFFFFFFFFFFFF AND DUP2 MSTORE PUSH1 0x20 ADD SWAP1 DUP2 MSTORE PUSH1 0x20 ADD PUSH0 KECCAK256 PUSH0 DUP3 DUP3 SLOAD PUSH2 0x231 SWAP2 SWAP1 PUSH2 0xA09 JUMP JUMPDEST SWAP3 POP POP DUP2 SWAP1 SSTORE POP PUSH0 PUSH1 0x1 PUSH0 CALLER PUSH20 0xFFFFFFFFFFFFFFFFFFFFFFFFFFFFFFFFFFFFFFFF AND PUSH20 0xFFFFFFFFFFFFFFFFFFFFFFFFFFFFFFFFFFFFFFFF AND DUP2 MSTORE PUSH1 0x20 ADD SWAP1 DUP2 MSTORE PUSH1 0x20 ADD PUSH0 KECCAK256 SLOAD SUB PUSH2 0x2BD JUMPI PUSH1 0x1 PUSH0 CALLER PUSH20 0xFFFFFFFFFFFFFFFFFFFFFFFFFFFFFFFFFFFFFFFF AND PUSH20 0xFFFFFFFFFFFFFFFFFFFFFFFFFFFFFFFFFFFFFFFF AND DUP2 MSTORE PUSH1 0x20 ADD SWAP1 DUP2 MSTORE PUSH1 0x20 ADD PUSH0 KECCAK256 PUSH0 SWAP1 SSTORE JUMPDEST JUMP JUMPDEST PUSH1 0x1 PUSH0 CALLER PUSH20 0xFFFFFFFFFFFFFFFFFFFFFFFFFFFFFFFFFFFFFFFF AND PUSH20 0xFFFFFFFFFFFFFFFFFFFFFFFFFFFFFFFFFFFFFFFF AND DUP2 MSTORE PUSH1 0x20 ADD SWAP1 DUP2 MSTORE PUSH1 0x20 ADD PUSH0 KECCAK256 SLOAD DUP2 GT ISZERO PUSH2 0x33F JUMPI PUSH1 0x40 MLOAD PUSH32 0x8C379A000000000000000000000000000000000000000000000000000000000 DUP2 MSTORE PUSH1 0x4 ADD PUSH2 0x336 SWAP1 PUSH2 0x9BE JUMP JUMPDEST PUSH1 0x40 MLOAD DUP1 SWAP2 SUB SWAP1 REVERT JUMPDEST DUP1 PUSH1 0x1 PUSH0 CALLER PUSH20 0xFFFFFFFFFFFFFFFFFFFFFFFFFFFFFFFFFFFFFFFF AND PUSH20 0xFFFFFFFFFFFFFFFFFFFFFFFFFFFFFFFFFFFFFFFF AND DUP2 MSTORE PUSH1 0x20 ADD SWAP1 DUP2 MSTORE PUSH1 0x20 ADD PUSH0 KECCAK256 PUSH0 DUP3 DUP3 SLOAD PUSH2 0x38B SWAP2 SWAP1 PUSH2 0xA09 JUMP JUMPDEST SWAP3 POP POP DUP2 SWAP1 SSTORE POP PUSH0 PUSH1 0x1 PUSH0 CALLER PUSH20 0xFFFFFFFFFFFFFFFFFFFFFFFFFFFFFFFFFFFFFFFF AND PUSH20 0xFFFFFFFFFFFFFFFFFFFFFFFFFFFFFFFFFFFFFFFF AND DUP2 MSTORE PUSH1 0x20 ADD SWAP1 DUP2 MSTORE PUSH1 0x20 ADD PUSH0 KECCAK256 SLOAD SUB PUSH2 0x417 JUMPI PUSH1 0x1 PUSH0 CALLER PUSH20 0xFFFFFFFFFFFFFFFFFFFFFFFFFFFFFFFFFFFFFFFF AND PUSH20 0xFFFFFFFFFFFFFFFFFFFFFFFFFFFFFFFFFFFFFFFF AND DUP2 MSTORE PUSH1 0x20 ADD SWAP1 DUP2 MSTORE PUSH1 0x20 ADD PUSH0 KECCAK256 PUSH0 SWAP1 SSTORE JUMPDEST POP JUMP JUMPDEST PUSH0 CALLVALUE GT PUSH2 0x45C JUMPI PUSH1 0x40 MLOAD PUSH32 0x8C379A000000000000000000000000000000000000000000000000000000000 DUP2 MSTORE PUSH1 0x4 ADD PUSH2 0x453 SWAP1 PUSH2 0xA86 JUMP JUMPDEST PUSH1 0x40 MLOAD DUP1 SWAP2 SUB SWAP1 REVERT JUMPDEST CALLVALUE PUSH0 DUP1 CALLER PUSH20 0xFFFFFFFFFFFFFFFFFFFFFFFFFFFFFFFFFFFFFFFF AND PUSH20 0xFFFFFFFFFFFFFFFFFFFFFFFFFFFFFFFFFFFFFFFF AND DUP2 MSTORE PUSH1 0x20 ADD SWAP1 DUP2 MSTORE PUSH1 0x20 ADD PUSH0 KECCAK256 PUSH0 DUP3 DUP3 SLOAD PUSH2 0x4A7 SWAP2 SWAP1 PUSH2 0xAA4 JUMP JUMPDEST SWAP3 POP POP DUP2 SWAP1 SSTORE POP JUMP JUMPDEST PUSH0 DUP2 GT PUSH2 0x4F2 JUMPI PUSH1 0x40 MLOAD PUSH32 0x8C379A000000000000000000000000000000000000000000000000000000000 DUP2 MSTORE PUSH1 0x4 ADD PUSH2 0x4E9 SWAP1 PUSH2 0xA86 JUMP JUMPDEST PUSH1 0x40 MLOAD DUP1 SWAP2 SUB SWAP1 REVERT JUMPDEST PUSH0 PUSH1 0x1 PUSH0 CALLER PUSH20 0xFFFFFFFFFFFFFFFFFFFFFFFFFFFFFFFFFFFFFFFF AND PUSH20 0xFFFFFFFFFFFFFFFFFFFFFFFFFFFFFFFFFFFFFFFF AND DUP2 MSTORE PUSH1 0x20 ADD SWAP1 DUP2 MSTORE PUSH1 0x20 ADD PUSH0 KECCAK256 SLOAD GT PUSH2 0x571 JUMPI PUSH1 0x40 MLOAD PUSH32 0x8C379A000000000000000000000000000000000000000000000000000000000 DUP2 MSTORE PUSH1 0x4 ADD PUSH2 0x568 SWAP1 PUSH2 0xB47 JUMP JUMPDEST PUSH1 0x40 MLOAD DUP1 SWAP2 SUB SWAP1 REVERT JUMPDEST SELFBALANCE DUP2 GT ISZERO PUSH2 0x5B4 JUMPI PUSH1 0x40 MLOAD PUSH32 0x8C379A000000000000000000000000000000000000000000000000000000000 DUP2 MSTORE PUSH1 0x4 ADD PUSH2 0x5AB SWAP1 PUSH2 0xBFB JUMP JUMPDEST PUSH1 0x40 MLOAD DUP1 SWAP2 SUB SWAP1 REVERT JUMPDEST DUP1 PUSH1 0x1 PUSH0 CALLER PUSH20 0xFFFFFFFFFFFFFFFFFFFFFFFFFFFFFFFFFFFFFFFF AND PUSH20 0xFFFFFFFFFFFFFFFFFFFFFFFFFFFFFFFFFFFFFFFF AND DUP2 MSTORE PUSH1 0x20 ADD SWAP1 DUP2 MSTORE PUSH1 0x20 ADD PUSH0 KECCAK256 DUP2 SWAP1 SSTORE POP DUP1 PUSH0 DUP1 CALLER PUSH20 0xFFFFFFFFFFFFFFFFFFFFFFFFFFFFFFFFFFFFFFFF AND PUSH20 0xFFFFFFFFFFFFFFFFFFFFFFFFFFFFFFFFFFFFFFFF AND DUP2 MSTORE PUSH1 0x20 ADD SWAP1 DUP2 MSTORE PUSH1 0x20 ADD PUSH0 KECCAK256 PUSH0 DUP3 DUP3 SLOAD PUSH2 0x641 SWAP2 SWAP1 PUSH2 0xAA4 JUMP JUMPDEST SWAP3 POP POP DUP2 SWAP1 SSTORE POP POP JUMP JUMPDEST PUSH0 DUP1 PUSH0 CALLER PUSH20 0xFFFFFFFFFFFFFFFFFFFFFFFFFFFFFFFFFFFFFFFF AND PUSH20 0xFFFFFFFFFFFFFFFFFFFFFFFFFFFFFFFFFFFFFFFF AND DUP2 MSTORE PUSH1 0x20 ADD SWAP1 DUP2 MSTORE PUSH1 0x20 ADD PUSH0 KECCAK256 SLOAD SWAP1 POP SWAP1 JUMP JUMPDEST PUSH0 PUSH1 0x1 PUSH0 DUP4 PUSH20 0xFFFFFFFFFFFFFFFFFFFFFFFFFFFFFFFFFFFFFFFF AND PUSH20 0xFFFFFFFFFFFFFFFFFFFFFFFFFFFFFFFFFFFFFFFF AND DUP2 MSTORE PUSH1 0x20 ADD SWAP1 DUP2 MSTORE PUSH1 0x20 ADD PUSH0 KECCAK256 SLOAD SWAP1 POP SWAP2 SWAP1 POP JUMP JUMPDEST DUP1 PUSH0 DUP1 CALLER PUSH20 0xFFFFFFFFFFFFFFFFFFFFFFFFFFFFFFFFFFFFFFFF AND PUSH20 0xFFFFFFFFFFFFFFFFFFFFFFFFFFFFFFFFFFFFFFFF AND DUP2 MSTORE PUSH1 0x20 ADD SWAP1 DUP2 MSTORE PUSH1 0x20 ADD PUSH0 KECCAK256 SLOAD LT ISZERO PUSH2 0x753 JUMPI PUSH1 0x40 MLOAD PUSH32 0x8C379A000000000000000000000000000000000000000000000000000000000 DUP2 MSTORE PUSH1 0x4 ADD PUSH2 0x74A SWAP1 PUSH2 0xC63 JUMP JUMPDEST PUSH1 0x40 MLOAD DUP1 SWAP2 SUB SWAP1 REVERT JUMPDEST DUP1 SELFBALANCE LT ISZERO PUSH2 0x796 JUMPI PUSH1 0x40 MLOAD PUSH32 0x8C379A000000000000000000000000000000000000000000000000000000000 DUP2 MSTORE PUSH1 0x4 ADD PUSH2 0x78D SWAP1 PUSH2 0xCF1 JUMP JUMPDEST PUSH1 0x40 MLOAD DUP1 SWAP2 SUB SWAP1 REVERT JUMPDEST DUP1 PUSH0 DUP1 CALLER PUSH20 0xFFFFFFFFFFFFFFFFFFFFFFFFFFFFFFFFFFFFFFFF AND PUSH20 0xFFFFFFFFFFFFFFFFFFFFFFFFFFFFFFFFFFFFFFFF AND DUP2 MSTORE PUSH1 0x20 ADD SWAP1 DUP2 MSTORE PUSH1 0x20 ADD PUSH0 KECCAK256 PUSH0 DUP3 DUP3 SLOAD PUSH2 0x7E1 SWAP2 SWAP1 PUSH2 0xA09 JUMP JUMPDEST SWAP3 POP POP DUP2 SWAP1 SSTORE POP CALLER PUSH20 0xFFFFFFFFFFFFFFFFFFFFFFFFFFFFFFFFFFFFFFFF AND PUSH2 0x8FC DUP3 SWAP1 DUP2 ISZERO MUL SWAP1 PUSH1 0x40 MLOAD PUSH0 PUSH1 0x40 MLOAD DUP1 DUP4 SUB DUP2 DUP6 DUP9 DUP9 CALL SWAP4 POP POP POP POP ISZERO DUP1 ISZERO PUSH2 0x82B JUMPI RETURNDATASIZE PUSH0 DUP1 RETURNDATACOPY RETURNDATASIZE PUSH0 REVERT JUMPDEST POP POP JUMP JUMPDEST PUSH0 DUP1 REVERT JUMPDEST PUSH0 DUP2 SWAP1 POP SWAP2 SWAP1 POP JUMP JUMPDEST PUSH2 0x845 DUP2 PUSH2 0x833 JUMP JUMPDEST DUP2 EQ PUSH2 0x84F JUMPI PUSH0 DUP1 REVERT JUMPDEST POP JUMP JUMPDEST PUSH0 DUP2 CALLDATALOAD SWAP1 POP PUSH2 0x860 DUP2 PUSH2 0x83C JUMP JUMPDEST SWAP3 SWAP2 POP POP JUMP JUMPDEST PUSH0 PUSH1 0x20 DUP3 DUP5 SUB SLT ISZERO PUSH2 0x87B JUMPI PUSH2 0x87A PUSH2 0x82F JUMP JUMPDEST JUMPDEST PUSH0 PUSH2 0x888 DUP5 DUP3 DUP6 ADD PUSH2 0x852 JUMP JUMPDEST SWAP2 POP POP SWAP3 SWAP2 POP POP JUMP JUMPDEST PUSH2 0x89A DUP2 PUSH2 0x833 JUMP JUMPDEST DUP3 MSTORE POP POP JUMP JUMPDEST PUSH0 PUSH1 0x20 DUP3 ADD SWAP1 POP PUSH2 0x8B3 PUSH0 DUP4 ADD DUP5 PUSH2 0x891 JUMP JUMPDEST SWAP3 SWAP2 POP POP JUMP JUMPDEST PUSH0 PUSH20 0xFFFFFFFFFFFFFFFFFFFFFFFFFFFFFFFFFFFFFFFF DUP3 AND SWAP1 POP SWAP2 SWAP1 POP JUMP JUMPDEST PUSH0 PUSH2 0x8E2 DUP3 PUSH2 0x8B9 JUMP JUMPDEST SWAP1 POP SWAP2 SWAP1 POP JUMP JUMPDEST PUSH2 0x8F2 DUP2 PUSH2 0x8D8 JUMP JUMPDEST DUP2 EQ PUSH2 0x8FC JUMPI PUSH0 DUP1 REVERT JUMPDEST POP JUMP JUMPDEST PUSH0 DUP2 CALLDATALOAD SWAP1 POP PUSH2 0x90D DUP2 PUSH2 0x8E9 JUMP JUMPDEST SWAP3 SWAP2 POP POP JUMP JUMPDEST PUSH0 PUSH1 0x20 DUP3 DUP5 SUB SLT ISZERO PUSH2 0x928 JUMPI PUSH2 0x927 PUSH2 0x82F JUMP JUMPDEST JUMPDEST PUSH0 PUSH2 0x935 DUP5 DUP3 DUP6 ADD PUSH2 0x8FF JUMP JUMPDEST SWAP2 POP POP SWAP3 SWAP2 POP POP JUMP JUMPDEST PUSH0 DUP3 DUP3 MSTORE PUSH1 0x20 DUP3 ADD SWAP1 POP SWAP3 SWAP2 POP POP JUMP JUMPDEST PUSH32 0x656C2076616C6F7220656E766961646F206573206D61796F7220717565206C61 PUSH0 DUP3 ADD MSTORE PUSH32 0x2064657564612061207061676172000000000000000000000000000000000000 PUSH1 0x20 DUP3 ADD MSTORE POP JUMP JUMPDEST PUSH0 PUSH2 0x9A8 PUSH1 0x2E DUP4 PUSH2 0x93E JUMP JUMPDEST SWAP2 POP PUSH2 0x9B3 DUP3 PUSH2 0x94E JUMP JUMPDEST PUSH1 0x40 DUP3 ADD SWAP1 POP SWAP2 SWAP1 POP JUMP JUMPDEST PUSH0 PUSH1 0x20 DUP3 ADD SWAP1 POP DUP2 DUP2 SUB PUSH0 DUP4 ADD MSTORE PUSH2 0x9D5 DUP2 PUSH2 0x99C JUMP JUMPDEST SWAP1 POP SWAP2 SWAP1 POP JUMP JUMPDEST PUSH32 0x4E487B7100000000000000000000000000000000000000000000000000000000 PUSH0 MSTORE PUSH1 0x11 PUSH1 0x4 MSTORE PUSH1 0x24 PUSH0 REVERT JUMPDEST PUSH0 PUSH2 0xA13 DUP3 PUSH2 0x833 JUMP JUMPDEST SWAP2 POP PUSH2 0xA1E DUP4 PUSH2 0x833 JUMP JUMPDEST SWAP3 POP DUP3 DUP3 SUB SWAP1 POP DUP2 DUP2 GT ISZERO PUSH2 0xA36 JUMPI PUSH2 0xA35 PUSH2 0x9DC JUMP JUMPDEST JUMPDEST SWAP3 SWAP2 POP POP JUMP JUMPDEST PUSH32 0x456C206465706F7369746F206465626520736572206D61796F72206120300000 PUSH0 DUP3 ADD MSTORE POP JUMP JUMPDEST PUSH0 PUSH2 0xA70 PUSH1 0x1E DUP4 PUSH2 0x93E JUMP JUMPDEST SWAP2 POP PUSH2 0xA7B DUP3 PUSH2 0xA3C JUMP JUMPDEST PUSH1 0x20 DUP3 ADD SWAP1 POP SWAP2 SWAP1 POP JUMP JUMPDEST PUSH0 PUSH1 0x20 DUP3 ADD SWAP1 POP DUP2 DUP2 SUB PUSH0 DUP4 ADD MSTORE PUSH2 0xA9D DUP2 PUSH2 0xA64 JUMP JUMPDEST SWAP1 POP SWAP2 SWAP1 POP JUMP JUMPDEST PUSH0 PUSH2 0xAAE DUP3 PUSH2 0x833 JUMP JUMPDEST SWAP2 POP PUSH2 0xAB9 DUP4 PUSH2 0x833 JUMP JUMPDEST SWAP3 POP DUP3 DUP3 ADD SWAP1 POP DUP1 DUP3 GT ISZERO PUSH2 0xAD1 JUMPI PUSH2 0xAD0 PUSH2 0x9DC JUMP JUMPDEST JUMPDEST SWAP3 SWAP2 POP POP JUMP JUMPDEST PUSH32 0x7961207365206C652068697A6F20756E207072657374616D6F20792061756E20 PUSH0 DUP3 ADD MSTORE PUSH32 0x6E6F206861207369646F2064657675656C746F00000000000000000000000000 PUSH1 0x20 DUP3 ADD MSTORE POP JUMP JUMPDEST PUSH0 PUSH2 0xB31 PUSH1 0x33 DUP4 PUSH2 0x93E JUMP JUMPDEST SWAP2 POP PUSH2 0xB3C DUP3 PUSH2 0xAD7 JUMP JUMPDEST PUSH1 0x40 DUP3 ADD SWAP1 POP SWAP2 SWAP1 POP JUMP JUMPDEST PUSH0 PUSH1 0x20 DUP3 ADD SWAP1 POP DUP2 DUP2 SUB PUSH0 DUP4 ADD MSTORE PUSH2 0xB5E DUP2 PUSH2 0xB25 JUMP JUMPDEST SWAP1 POP SWAP2 SWAP1 POP JUMP JUMPDEST PUSH32 0x6E6F20736520646973706F6E652064652064696368612063616E746964616420 PUSH0 DUP3 ADD MSTORE PUSH32 0x656E206E75657374726F7320666F6E646F7320656E206573746F73206D6F6D65 PUSH1 0x20 DUP3 ADD MSTORE PUSH32 0x6E746F7300000000000000000000000000000000000000000000000000000000 PUSH1 0x40 DUP3 ADD MSTORE POP JUMP JUMPDEST PUSH0 PUSH2 0xBE5 PUSH1 0x44 DUP4 PUSH2 0x93E JUMP JUMPDEST SWAP2 POP PUSH2 0xBF0 DUP3 PUSH2 0xB65 JUMP JUMPDEST PUSH1 0x60 DUP3 ADD SWAP1 POP SWAP2 SWAP1 POP JUMP JUMPDEST PUSH0 PUSH1 0x20 DUP3 ADD SWAP1 POP DUP2 DUP2 SUB PUSH0 DUP4 ADD MSTORE PUSH2 0xC12 DUP2 PUSH2 0xBD9 JUMP JUMPDEST SWAP1 POP SWAP2 SWAP1 POP JUMP JUMPDEST PUSH32 0x53616C646F20696E737566696369656E74650000000000000000000000000000 PUSH0 DUP3 ADD MSTORE POP JUMP JUMPDEST PUSH0 PUSH2 0xC4D PUSH1 0x12 DUP4 PUSH2 0x93E JUMP JUMPDEST SWAP2 POP PUSH2 0xC58 DUP3 PUSH2 0xC19 JUMP JUMPDEST PUSH1 0x20 DUP3 ADD SWAP1 POP SWAP2 SWAP1 POP JUMP JUMPDEST PUSH0 PUSH1 0x20 DUP3 ADD SWAP1 POP DUP2 DUP2 SUB PUSH0 DUP4 ADD MSTORE PUSH2 0xC7A DUP2 PUSH2 0xC41 JUMP JUMPDEST SWAP1 POP SWAP2 SWAP1 POP JUMP JUMPDEST PUSH32 0x4E6F20646973706F6E656D6F732064652074616E746F7320666F6E646F732065 PUSH0 DUP3 ADD MSTORE PUSH32 0x6E2065737465206D6F6D656E746F2C2073696761206573706572616E646F0000 PUSH1 0x20 DUP3 ADD MSTORE POP JUMP JUMPDEST PUSH0 PUSH2 0xCDB PUSH1 0x3E DUP4 PUSH2 0x93E JUMP JUMPDEST SWAP2 POP PUSH2 0xCE6 DUP3 PUSH2 0xC81 JUMP JUMPDEST PUSH1 0x40 DUP3 ADD SWAP1 POP SWAP2 SWAP1 POP JUMP JUMPDEST PUSH0 PUSH1 0x20 DUP3 ADD SWAP1 POP DUP2 DUP2 SUB PUSH0 DUP4 ADD MSTORE PUSH2 0xD08 DUP2 PUSH2 0xCCF JUMP JUMPDEST SWAP1 POP SWAP2 SWAP1 POP JUMP INVALID LOG2 PUSH5 0x6970667358 0x22 SLT KECCAK256 0xD2 DUP16 0xB6 0x2C MUL SWAP6 0x4F SDIV CALLVALUE SMOD SWAP12 KECCAK256 SMOD 0xE5 0x23 0xDB DUP1 DUP3 0xE7 PUSH18 0x6F7221303ABE830869FD0DAB64736F6C6343 STOP ADDMOD BYTE STOP CALLER "
				},
				"gasEstimates": {
					"creation": {
						"codeDepositCost": "679400",
						"executionCost": "713",
						"totalCost": "680113"
					},
					"external": {
						"consultar()": "2541",
						"consultarSaldoDeudor(address)": "2873",
						"depositar()": "infinite",
						"pagarPrestamo()": "infinite",
						"pagarPrestamoConSaldo(uint256)": "infinite",
						"pedirPrestamo(uint256)": "infinite",
						"retirar(uint256)": "infinite"
					}
				},
				"methodIdentifiers": {
					"consultar()": "70f05f97",
					"consultarSaldoDeudor(address)": "8768e5c8",
					"depositar()": "3d922f90",
					"pagarPrestamo()": "206935fe",
					"pagarPrestamoConSaldo(uint256)": "2da168da",
					"pedirPrestamo(uint256)": "6ce1aedc",
					"retirar(uint256)": "e8b1298f"
				}
			},
			"storageLayout": {
				"storage": [
					{
						"astId": 5,
						"contract": "contracts/bancoAutonomo.sol:Banco",
						"label": "saldos",
						"offset": 0,
						"slot": "0",
						"type": "t_mapping(t_address,t_uint256)"
					},
					{
						"astId": 9,
						"contract": "contracts/bancoAutonomo.sol:Banco",
						"label": "deudores",
						"offset": 0,
						"slot": "1",
						"type": "t_mapping(t_address,t_uint256)"
					}
				],
				"types": {
					"t_address": {
						"encoding": "inplace",
						"label": "address",
						"numberOfBytes": "20"
					},
					"t_mapping(t_address,t_uint256)": {
						"encoding": "mapping",
						"key": "t_address",
						"label": "mapping(address => uint256)",
						"numberOfBytes": "32",
						"value": "t_uint256"
					},
					"t_uint256": {
						"encoding": "inplace",
						"label": "uint256",
						"numberOfBytes": "32"
					}
				}
			},
			"userdoc": {
				"kind": "user",
				"methods": {},
				"version": 1
			}
		}
	}
}