{
	"contracts/agenda.sol": {
		"Agenda": {
			"abi": [
				{
					"inputs": [
						{
							"internalType": "address",
							"name": "direccion",
							"type": "address"
						},
						{
							"internalType": "string",
							"name": "nombre",
							"type": "string"
						}
					],
					"name": "agregar",
					"outputs": [],
					"stateMutability": "nonpayable",
					"type": "function"
				},
				{
					"inputs": [
						{
							"internalType": "address",
							"name": "direccion",
							"type": "address"
						}
					],
					"name": "borrar",
					"outputs": [],
					"stateMutability": "nonpayable",
					"type": "function"
				},
				{
					"inputs": [
						{
							"internalType": "address",
							"name": "delegado",
							"type": "address"
						},
						{
							"internalType": "uint256",
							"name": "tiempoExpiracion",
							"type": "uint256"
						}
					],
					"name": "delegarAccesoLectura",
					"outputs": [],
					"stateMutability": "nonpayable",
					"type": "function"
				},
				{
					"inputs": [
						{
							"internalType": "address",
							"name": "direccion",
							"type": "address"
						},
						{
							"internalType": "string",
							"name": "nombre",
							"type": "string"
						}
					],
					"name": "editar",
					"outputs": [],
					"stateMutability": "nonpayable",
					"type": "function"
				},
				{
					"inputs": [
						{
							"internalType": "string",
							"name": "name",
							"type": "string"
						}
					],
					"name": "getDireccion",
					"outputs": [
						{
							"internalType": "string",
							"name": "nombre",
							"type": "string"
						}
					],
					"stateMutability": "view",
					"type": "function"
				},
				{
					"inputs": [
						{
							"internalType": "address",
							"name": "direccion",
							"type": "address"
						}
					],
					"name": "getNombre",
					"outputs": [
						{
							"internalType": "string",
							"name": "nombre",
							"type": "string"
						}
					],
					"stateMutability": "view",
					"type": "function"
				}
			],
			"devdoc": {
				"kind": "dev",
				"methods": {},
				"version": 1
			},
			"evm": {
				"assembly": "    /* \"contracts/agenda.sol\":136:1583  contract Agenda {... */\n  mstore(0x40, 0x80)\n  callvalue\n  dup1\n  iszero\n  tag_1\n  jumpi\n  0x00\n  dup1\n  revert\ntag_1:\n  pop\n  dataSize(sub_0)\n  dup1\n  dataOffset(sub_0)\n  0x00\n  codecopy\n  0x00\n  return\nstop\n\nsub_0: assembly {\n        /* \"contracts/agenda.sol\":136:1583  contract Agenda {... */\n      mstore(0x40, 0x80)\n      callvalue\n      dup1\n      iszero\n      tag_1\n      jumpi\n      0x00\n      dup1\n      revert\n    tag_1:\n      pop\n      jumpi(tag_2, lt(calldatasize, 0x04))\n      shr(0xe0, calldataload(0x00))\n      dup1\n      0x09638732\n      eq\n      tag_3\n      jumpi\n      dup1\n      0x53c025fd\n      eq\n      tag_4\n      jumpi\n      dup1\n      0x87e4c821\n      eq\n      tag_5\n      jumpi\n      dup1\n      0x98f411dd\n      eq\n      tag_6\n      jumpi\n      dup1\n      0xa9e5db4f\n      eq\n      tag_7\n      jumpi\n      dup1\n      0xf3348c98\n      eq\n      tag_8\n      jumpi\n    tag_2:\n      0x00\n      dup1\n      revert\n        /* \"contracts/agenda.sol\":1447:1570  function getDireccion(string memory name) public view acceso(msg.sender) returns (string memory nombre)  {... */\n    tag_3:\n      tag_9\n      0x04\n      dup1\n      calldatasize\n      sub\n      dup2\n      add\n      swap1\n      tag_10\n      swap2\n      swap1\n      tag_11\n      jump\t// in\n    tag_10:\n      tag_12\n      jump\t// in\n    tag_9:\n      mload(0x40)\n      tag_13\n      swap2\n      swap1\n      tag_14\n      jump\t// in\n    tag_13:\n      mload(0x40)\n      dup1\n      swap2\n      sub\n      swap1\n      return\n        /* \"contracts/agenda.sol\":1282:1439  function getNombre(address direccion) public view acceso(msg.sender) returns (string memory nombre)   {... */\n    tag_4:\n      tag_15\n      0x04\n      dup1\n      calldatasize\n      sub\n      dup2\n      add\n      swap1\n      tag_16\n      swap2\n      swap1\n      tag_17\n      jump\t// in\n    tag_16:\n      tag_18\n      jump\t// in\n    tag_15:\n      mload(0x40)\n      tag_19\n      swap2\n      swap1\n      tag_14\n      jump\t// in\n    tag_19:\n      mload(0x40)\n      dup1\n      swap2\n      sub\n      swap1\n      return\n        /* \"contracts/agenda.sol\":1067:1270  function borrar (address direccion ) public {... */\n    tag_5:\n      tag_20\n      0x04\n      dup1\n      calldatasize\n      sub\n      dup2\n      add\n      swap1\n      tag_21\n      swap2\n      swap1\n      tag_17\n      jump\t// in\n    tag_21:\n      tag_22\n      jump\t// in\n    tag_20:\n      stop\n        /* \"contracts/agenda.sol\":834:1059  function editar (address direccion, string memory nombre ) public {... */\n    tag_6:\n      tag_23\n      0x04\n      dup1\n      calldatasize\n      sub\n      dup2\n      add\n      swap1\n      tag_24\n      swap2\n      swap1\n      tag_25\n      jump\t// in\n    tag_24:\n      tag_26\n      jump\t// in\n    tag_23:\n      stop\n        /* \"contracts/agenda.sol\":701:826  function agregar (address direccion, string memory nombre ) public  {... */\n    tag_7:\n      tag_27\n      0x04\n      dup1\n      calldatasize\n      sub\n      dup2\n      add\n      swap1\n      tag_28\n      swap2\n      swap1\n      tag_25\n      jump\t// in\n    tag_28:\n      tag_29\n      jump\t// in\n    tag_27:\n      stop\n        /* \"contracts/agenda.sol\":521:689  function delegarAccesoLectura(address delegado, uint256 tiempoExpiracion) public {... */\n    tag_8:\n      tag_30\n      0x04\n      dup1\n      calldatasize\n      sub\n      dup2\n      add\n      swap1\n      tag_31\n      swap2\n      swap1\n      tag_32\n      jump\t// in\n    tag_31:\n      tag_33\n      jump\t// in\n    tag_30:\n      stop\n        /* \"contracts/agenda.sol\":1447:1570  function getDireccion(string memory name) public view acceso(msg.sender) returns (string memory nombre)  {... */\n    tag_12:\n        /* \"contracts/agenda.sol\":1529:1549  string memory nombre */\n      0x60\n        /* \"contracts/agenda.sol\":1508:1518  msg.sender */\n      caller\n        /* \"contracts/agenda.sol\":394:400  _owner */\n      dup1\n        /* \"contracts/agenda.sol\":380:400  msg.sender == _owner */\n      0xffffffffffffffffffffffffffffffffffffffff\n      and\n        /* \"contracts/agenda.sol\":380:390  msg.sender */\n      caller\n        /* \"contracts/agenda.sol\":380:400  msg.sender == _owner */\n      0xffffffffffffffffffffffffffffffffffffffff\n      and\n      eq\n        /* \"contracts/agenda.sol\":380:451  msg.sender == _owner || delegados[_owner][msg.sender] > block.timestamp */\n      dup1\n      tag_35\n      jumpi\n      pop\n        /* \"contracts/agenda.sol\":436:451  block.timestamp */\n      timestamp\n        /* \"contracts/agenda.sol\":404:413  delegados */\n      0x01\n        /* \"contracts/agenda.sol\":404:421  delegados[_owner] */\n      0x00\n        /* \"contracts/agenda.sol\":414:420  _owner */\n      dup4\n        /* \"contracts/agenda.sol\":404:421  delegados[_owner] */\n      0xffffffffffffffffffffffffffffffffffffffff\n      and\n      0xffffffffffffffffffffffffffffffffffffffff\n      and\n      dup2\n      mstore\n      0x20\n      add\n      swap1\n      dup2\n      mstore\n      0x20\n      add\n      0x00\n      keccak256\n        /* \"contracts/agenda.sol\":404:433  delegados[_owner][msg.sender] */\n      0x00\n        /* \"contracts/agenda.sol\":422:432  msg.sender */\n      caller\n        /* \"contracts/agenda.sol\":404:433  delegados[_owner][msg.sender] */\n      0xffffffffffffffffffffffffffffffffffffffff\n      and\n      0xffffffffffffffffffffffffffffffffffffffff\n      and\n      dup2\n      mstore\n      0x20\n      add\n      swap1\n      dup2\n      mstore\n      0x20\n      add\n      0x00\n      keccak256\n      sload\n        /* \"contracts/agenda.sol\":404:451  delegados[_owner][msg.sender] > block.timestamp */\n      gt\n        /* \"contracts/agenda.sol\":380:451  msg.sender == _owner || delegados[_owner][msg.sender] > block.timestamp */\n    tag_35:\n        /* \"contracts/agenda.sol\":358:493  require(... */\n      tag_36\n      jumpi\n      mload(0x40)\n      0x08c379a000000000000000000000000000000000000000000000000000000000\n      dup2\n      mstore\n      0x04\n      add\n      tag_37\n      swap1\n      tag_38\n      jump\t// in\n    tag_37:\n      mload(0x40)\n      dup1\n      swap2\n      sub\n      swap1\n      revert\n    tag_36:\n        /* \"contracts/agenda.sol\":1447:1570  function getDireccion(string memory name) public view acceso(msg.sender) returns (string memory nombre)  {... */\n      pop\n      swap2\n      swap1\n      pop\n      jump\t// out\n        /* \"contracts/agenda.sol\":1282:1439  function getNombre(address direccion) public view acceso(msg.sender) returns (string memory nombre)   {... */\n    tag_18:\n        /* \"contracts/agenda.sol\":1360:1380  string memory nombre */\n      0x60\n        /* \"contracts/agenda.sol\":1339:1349  msg.sender */\n      caller\n        /* \"contracts/agenda.sol\":394:400  _owner */\n      dup1\n        /* \"contracts/agenda.sol\":380:400  msg.sender == _owner */\n      0xffffffffffffffffffffffffffffffffffffffff\n      and\n        /* \"contracts/agenda.sol\":380:390  msg.sender */\n      caller\n        /* \"contracts/agenda.sol\":380:400  msg.sender == _owner */\n      0xffffffffffffffffffffffffffffffffffffffff\n      and\n      eq\n        /* \"contracts/agenda.sol\":380:451  msg.sender == _owner || delegados[_owner][msg.sender] > block.timestamp */\n      dup1\n      tag_41\n      jumpi\n      pop\n        /* \"contracts/agenda.sol\":436:451  block.timestamp */\n      timestamp\n        /* \"contracts/agenda.sol\":404:413  delegados */\n      0x01\n        /* \"contracts/agenda.sol\":404:421  delegados[_owner] */\n      0x00\n        /* \"contracts/agenda.sol\":414:420  _owner */\n      dup4\n        /* \"contracts/agenda.sol\":404:421  delegados[_owner] */\n      0xffffffffffffffffffffffffffffffffffffffff\n      and\n      0xffffffffffffffffffffffffffffffffffffffff\n      and\n      dup2\n      mstore\n      0x20\n      add\n      swap1\n      dup2\n      mstore\n      0x20\n      add\n      0x00\n      keccak256\n        /* \"contracts/agenda.sol\":404:433  delegados[_owner][msg.sender] */\n      0x00\n        /* \"contracts/agenda.sol\":422:432  msg.sender */\n      caller\n        /* \"contracts/agenda.sol\":404:433  delegados[_owner][msg.sender] */\n      0xffffffffffffffffffffffffffffffffffffffff\n      and\n      0xffffffffffffffffffffffffffffffffffffffff\n      and\n      dup2\n      mstore\n      0x20\n      add\n      swap1\n      dup2\n      mstore\n      0x20\n      add\n      0x00\n      keccak256\n      sload\n        /* \"contracts/agenda.sol\":404:451  delegados[_owner][msg.sender] > block.timestamp */\n      gt\n        /* \"contracts/agenda.sol\":380:451  msg.sender == _owner || delegados[_owner][msg.sender] > block.timestamp */\n    tag_41:\n        /* \"contracts/agenda.sol\":358:493  require(... */\n      tag_42\n      jumpi\n      mload(0x40)\n      0x08c379a000000000000000000000000000000000000000000000000000000000\n      dup2\n      mstore\n      0x04\n      add\n      tag_43\n      swap1\n      tag_38\n      jump\t// in\n    tag_43:\n      mload(0x40)\n      dup1\n      swap2\n      sub\n      swap1\n      revert\n    tag_42:\n        /* \"contracts/agenda.sol\":1402:1408  agenda */\n      0x00\n        /* \"contracts/agenda.sol\":1402:1420  agenda[msg.sender] */\n      dup1\n        /* \"contracts/agenda.sol\":1409:1419  msg.sender */\n      caller\n        /* \"contracts/agenda.sol\":1402:1420  agenda[msg.sender] */\n      0xffffffffffffffffffffffffffffffffffffffff\n      and\n      0xffffffffffffffffffffffffffffffffffffffff\n      and\n      dup2\n      mstore\n      0x20\n      add\n      swap1\n      dup2\n      mstore\n      0x20\n      add\n      0x00\n      keccak256\n        /* \"contracts/agenda.sol\":1402:1431  agenda[msg.sender][direccion] */\n      0x00\n        /* \"contracts/agenda.sol\":1421:1430  direccion */\n      dup5\n        /* \"contracts/agenda.sol\":1402:1431  agenda[msg.sender][direccion] */\n      0xffffffffffffffffffffffffffffffffffffffff\n      and\n      0xffffffffffffffffffffffffffffffffffffffff\n      and\n      dup2\n      mstore\n      0x20\n      add\n      swap1\n      dup2\n      mstore\n      0x20\n      add\n      0x00\n      keccak256\n        /* \"contracts/agenda.sol\":1395:1431  return agenda[msg.sender][direccion] */\n      dup1\n      sload\n      tag_45\n      swap1\n      tag_46\n      jump\t// in\n    tag_45:\n      dup1\n      0x1f\n      add\n      0x20\n      dup1\n      swap2\n      div\n      mul\n      0x20\n      add\n      mload(0x40)\n      swap1\n      dup2\n      add\n      0x40\n      mstore\n      dup1\n      swap3\n      swap2\n      swap1\n      dup2\n      dup2\n      mstore\n      0x20\n      add\n      dup3\n      dup1\n      sload\n      tag_47\n      swap1\n      tag_46\n      jump\t// in\n    tag_47:\n      dup1\n      iszero\n      tag_48\n      jumpi\n      dup1\n      0x1f\n      lt\n      tag_49\n      jumpi\n      0x0100\n      dup1\n      dup4\n      sload\n      div\n      mul\n      dup4\n      mstore\n      swap2\n      0x20\n      add\n      swap2\n      jump(tag_48)\n    tag_49:\n      dup3\n      add\n      swap2\n      swap1\n      0x00\n      mstore\n      keccak256(0x00, 0x20)\n      swap1\n    tag_50:\n      dup2\n      sload\n      dup2\n      mstore\n      swap1\n      0x01\n      add\n      swap1\n      0x20\n      add\n      dup1\n      dup4\n      gt\n      tag_50\n      jumpi\n      dup3\n      swap1\n      sub\n      0x1f\n      and\n      dup3\n      add\n      swap2\n    tag_48:\n      pop\n      pop\n      pop\n      pop\n      pop\n      swap2\n      pop\n        /* \"contracts/agenda.sol\":1282:1439  function getNombre(address direccion) public view acceso(msg.sender) returns (string memory nombre)   {... */\n      pop\n      swap2\n      swap1\n      pop\n      jump\t// out\n        /* \"contracts/agenda.sol\":1067:1270  function borrar (address direccion ) public {... */\n    tag_22:\n        /* \"contracts/agenda.sol\":1177:1178  0 */\n      0x00\n        /* \"contracts/agenda.sol\":1136:1142  agenda */\n      dup1\n        /* \"contracts/agenda.sol\":1136:1154  agenda[msg.sender] */\n      0x00\n        /* \"contracts/agenda.sol\":1143:1153  msg.sender */\n      caller\n        /* \"contracts/agenda.sol\":1136:1154  agenda[msg.sender] */\n      0xffffffffffffffffffffffffffffffffffffffff\n      and\n      0xffffffffffffffffffffffffffffffffffffffff\n      and\n      dup2\n      mstore\n      0x20\n      add\n      swap1\n      dup2\n      mstore\n      0x20\n      add\n      0x00\n      keccak256\n        /* \"contracts/agenda.sol\":1136:1165  agenda[msg.sender][direccion] */\n      0x00\n        /* \"contracts/agenda.sol\":1155:1164  direccion */\n      dup4\n        /* \"contracts/agenda.sol\":1136:1165  agenda[msg.sender][direccion] */\n      0xffffffffffffffffffffffffffffffffffffffff\n      and\n      0xffffffffffffffffffffffffffffffffffffffff\n      and\n      dup2\n      mstore\n      0x20\n      add\n      swap1\n      dup2\n      mstore\n      0x20\n      add\n      0x00\n      keccak256\n        /* \"contracts/agenda.sol\":1130:1173  bytes(agenda[msg.sender][direccion]).length */\n      dup1\n      sload\n      tag_52\n      swap1\n      tag_46\n      jump\t// in\n    tag_52:\n      swap1\n      pop\n        /* \"contracts/agenda.sol\":1130:1178  bytes(agenda[msg.sender][direccion]).length != 0 */\n      sub\n        /* \"contracts/agenda.sol\":1122:1205  require(bytes(agenda[msg.sender][direccion]).length != 0, \"Contact does not exist\") */\n      tag_53\n      jumpi\n      mload(0x40)\n      0x08c379a000000000000000000000000000000000000000000000000000000000\n      dup2\n      mstore\n      0x04\n      add\n      tag_54\n      swap1\n      tag_55\n      jump\t// in\n    tag_54:\n      mload(0x40)\n      dup1\n      swap2\n      sub\n      swap1\n      revert\n    tag_53:\n        /* \"contracts/agenda.sol\":1223:1229  agenda */\n      0x00\n        /* \"contracts/agenda.sol\":1223:1241  agenda[msg.sender] */\n      dup1\n        /* \"contracts/agenda.sol\":1230:1240  msg.sender */\n      caller\n        /* \"contracts/agenda.sol\":1223:1241  agenda[msg.sender] */\n      0xffffffffffffffffffffffffffffffffffffffff\n      and\n      0xffffffffffffffffffffffffffffffffffffffff\n      and\n      dup2\n      mstore\n      0x20\n      add\n      swap1\n      dup2\n      mstore\n      0x20\n      add\n      0x00\n      keccak256\n        /* \"contracts/agenda.sol\":1223:1252  agenda[msg.sender][direccion] */\n      0x00\n        /* \"contracts/agenda.sol\":1242:1251  direccion */\n      dup3\n        /* \"contracts/agenda.sol\":1223:1252  agenda[msg.sender][direccion] */\n      0xffffffffffffffffffffffffffffffffffffffff\n      and\n      0xffffffffffffffffffffffffffffffffffffffff\n      and\n      dup2\n      mstore\n      0x20\n      add\n      swap1\n      dup2\n      mstore\n      0x20\n      add\n      0x00\n      keccak256\n      0x00\n        /* \"contracts/agenda.sol\":1216:1252  delete agenda[msg.sender][direccion] */\n      tag_56\n      swap2\n      swap1\n      tag_57\n      jump\t// in\n    tag_56:\n        /* \"contracts/agenda.sol\":1067:1270  function borrar (address direccion ) public {... */\n      pop\n      jump\t// out\n        /* \"contracts/agenda.sol\":834:1059  function editar (address direccion, string memory nombre ) public {... */\n    tag_26:\n        /* \"contracts/agenda.sol\":966:967  0 */\n      0x00\n        /* \"contracts/agenda.sol\":925:931  agenda */\n      dup1\n        /* \"contracts/agenda.sol\":925:943  agenda[msg.sender] */\n      0x00\n        /* \"contracts/agenda.sol\":932:942  msg.sender */\n      caller\n        /* \"contracts/agenda.sol\":925:943  agenda[msg.sender] */\n      0xffffffffffffffffffffffffffffffffffffffff\n      and\n      0xffffffffffffffffffffffffffffffffffffffff\n      and\n      dup2\n      mstore\n      0x20\n      add\n      swap1\n      dup2\n      mstore\n      0x20\n      add\n      0x00\n      keccak256\n        /* \"contracts/agenda.sol\":925:954  agenda[msg.sender][direccion] */\n      0x00\n        /* \"contracts/agenda.sol\":944:953  direccion */\n      dup5\n        /* \"contracts/agenda.sol\":925:954  agenda[msg.sender][direccion] */\n      0xffffffffffffffffffffffffffffffffffffffff\n      and\n      0xffffffffffffffffffffffffffffffffffffffff\n      and\n      dup2\n      mstore\n      0x20\n      add\n      swap1\n      dup2\n      mstore\n      0x20\n      add\n      0x00\n      keccak256\n        /* \"contracts/agenda.sol\":919:962  bytes(agenda[msg.sender][direccion]).length */\n      dup1\n      sload\n      tag_59\n      swap1\n      tag_46\n      jump\t// in\n    tag_59:\n      swap1\n      pop\n        /* \"contracts/agenda.sol\":919:967  bytes(agenda[msg.sender][direccion]).length != 0 */\n      sub\n        /* \"contracts/agenda.sol\":911:994  require(bytes(agenda[msg.sender][direccion]).length != 0, \"Contact does not exist\") */\n      tag_60\n      jumpi\n      mload(0x40)\n      0x08c379a000000000000000000000000000000000000000000000000000000000\n      dup2\n      mstore\n      0x04\n      add\n      tag_61\n      swap1\n      tag_55\n      jump\t// in\n    tag_61:\n      mload(0x40)\n      dup1\n      swap2\n      sub\n      swap1\n      revert\n    tag_60:\n        /* \"contracts/agenda.sol\":1035:1041  nombre */\n      dup1\n        /* \"contracts/agenda.sol\":1005:1011  agenda */\n      0x00\n        /* \"contracts/agenda.sol\":1005:1023  agenda[msg.sender] */\n      dup1\n        /* \"contracts/agenda.sol\":1012:1022  msg.sender */\n      caller\n        /* \"contracts/agenda.sol\":1005:1023  agenda[msg.sender] */\n      0xffffffffffffffffffffffffffffffffffffffff\n      and\n      0xffffffffffffffffffffffffffffffffffffffff\n      and\n      dup2\n      mstore\n      0x20\n      add\n      swap1\n      dup2\n      mstore\n      0x20\n      add\n      0x00\n      keccak256\n        /* \"contracts/agenda.sol\":1005:1034  agenda[msg.sender][direccion] */\n      0x00\n        /* \"contracts/agenda.sol\":1024:1033  direccion */\n      dup5\n        /* \"contracts/agenda.sol\":1005:1034  agenda[msg.sender][direccion] */\n      0xffffffffffffffffffffffffffffffffffffffff\n      and\n      0xffffffffffffffffffffffffffffffffffffffff\n      and\n      dup2\n      mstore\n      0x20\n      add\n      swap1\n      dup2\n      mstore\n      0x20\n      add\n      0x00\n      keccak256\n        /* \"contracts/agenda.sol\":1005:1041  agenda[msg.sender][direccion]=nombre */\n      swap1\n      dup2\n      tag_62\n      swap2\n      swap1\n      tag_63\n      jump\t// in\n    tag_62:\n      pop\n        /* \"contracts/agenda.sol\":834:1059  function editar (address direccion, string memory nombre ) public {... */\n      pop\n      pop\n      jump\t// out\n        /* \"contracts/agenda.sol\":701:826  function agregar (address direccion, string memory nombre ) public  {... */\n    tag_29:\n        /* \"contracts/agenda.sol\":810:816  nombre */\n      dup1\n        /* \"contracts/agenda.sol\":780:786  agenda */\n      0x00\n        /* \"contracts/agenda.sol\":780:798  agenda[msg.sender] */\n      dup1\n        /* \"contracts/agenda.sol\":787:797  msg.sender */\n      caller\n        /* \"contracts/agenda.sol\":780:798  agenda[msg.sender] */\n      0xffffffffffffffffffffffffffffffffffffffff\n      and\n      0xffffffffffffffffffffffffffffffffffffffff\n      and\n      dup2\n      mstore\n      0x20\n      add\n      swap1\n      dup2\n      mstore\n      0x20\n      add\n      0x00\n      keccak256\n        /* \"contracts/agenda.sol\":780:809  agenda[msg.sender][direccion] */\n      0x00\n        /* \"contracts/agenda.sol\":799:808  direccion */\n      dup5\n        /* \"contracts/agenda.sol\":780:809  agenda[msg.sender][direccion] */\n      0xffffffffffffffffffffffffffffffffffffffff\n      and\n      0xffffffffffffffffffffffffffffffffffffffff\n      and\n      dup2\n      mstore\n      0x20\n      add\n      swap1\n      dup2\n      mstore\n      0x20\n      add\n      0x00\n      keccak256\n        /* \"contracts/agenda.sol\":780:816  agenda[msg.sender][direccion]=nombre */\n      swap1\n      dup2\n      tag_65\n      swap2\n      swap1\n      tag_63\n      jump\t// in\n    tag_65:\n      pop\n        /* \"contracts/agenda.sol\":701:826  function agregar (address direccion, string memory nombre ) public  {... */\n      pop\n      pop\n      jump\t// out\n        /* \"contracts/agenda.sol\":521:689  function delegarAccesoLectura(address delegado, uint256 tiempoExpiracion) public {... */\n    tag_33:\n        /* \"contracts/agenda.sol\":665:681  tiempoExpiracion */\n      dup1\n        /* \"contracts/agenda.sol\":647:662  block.timestamp */\n      timestamp\n        /* \"contracts/agenda.sol\":647:681  block.timestamp + tiempoExpiracion */\n      tag_67\n      swap2\n      swap1\n      tag_68\n      jump\t// in\n    tag_67:\n        /* \"contracts/agenda.sol\":613:622  delegados */\n      0x01\n        /* \"contracts/agenda.sol\":613:634  delegados[msg.sender] */\n      0x00\n        /* \"contracts/agenda.sol\":623:633  msg.sender */\n      caller\n        /* \"contracts/agenda.sol\":613:634  delegados[msg.sender] */\n      0xffffffffffffffffffffffffffffffffffffffff\n      and\n      0xffffffffffffffffffffffffffffffffffffffff\n      and\n      dup2\n      mstore\n      0x20\n      add\n      swap1\n      dup2\n      mstore\n      0x20\n      add\n      0x00\n      keccak256\n        /* \"contracts/agenda.sol\":613:644  delegados[msg.sender][delegado] */\n      0x00\n        /* \"contracts/agenda.sol\":635:643  delegado */\n      dup5\n        /* \"contracts/agenda.sol\":613:644  delegados[msg.sender][delegado] */\n      0xffffffffffffffffffffffffffffffffffffffff\n      and\n      0xffffffffffffffffffffffffffffffffffffffff\n      and\n      dup2\n      mstore\n      0x20\n      add\n      swap1\n      dup2\n      mstore\n      0x20\n      add\n      0x00\n      keccak256\n        /* \"contracts/agenda.sol\":613:681  delegados[msg.sender][delegado] = block.timestamp + tiempoExpiracion */\n      dup2\n      swap1\n      sstore\n      pop\n        /* \"contracts/agenda.sol\":521:689  function delegarAccesoLectura(address delegado, uint256 tiempoExpiracion) public {... */\n      pop\n      pop\n      jump\t// out\n    tag_57:\n      pop\n      dup1\n      sload\n      tag_69\n      swap1\n      tag_46\n      jump\t// in\n    tag_69:\n      0x00\n      dup3\n      sstore\n      dup1\n      0x1f\n      lt\n      tag_71\n      jumpi\n      pop\n      jump(tag_70)\n    tag_71:\n      0x1f\n      add\n      0x20\n      swap1\n      div\n      swap1\n      0x00\n      mstore\n      keccak256(0x00, 0x20)\n      swap1\n      dup2\n      add\n      swap1\n      tag_72\n      swap2\n      swap1\n      tag_73\n      jump\t// in\n    tag_72:\n    tag_70:\n      pop\n      jump\t// out\n    tag_73:\n    tag_74:\n      dup1\n      dup3\n      gt\n      iszero\n      tag_75\n      jumpi\n      0x00\n      dup2\n      0x00\n      swap1\n      sstore\n      pop\n      0x01\n      add\n      jump(tag_74)\n    tag_75:\n      pop\n      swap1\n      jump\t// out\n        /* \"#utility.yul\":7:82   */\n    tag_76:\n        /* \"#utility.yul\":40:46   */\n      0x00\n        /* \"#utility.yul\":73:75   */\n      0x40\n        /* \"#utility.yul\":67:76   */\n      mload\n        /* \"#utility.yul\":57:76   */\n      swap1\n      pop\n        /* \"#utility.yul\":7:82   */\n      swap1\n      jump\t// out\n        /* \"#utility.yul\":88:205   */\n    tag_77:\n        /* \"#utility.yul\":197:198   */\n      0x00\n        /* \"#utility.yul\":194:195   */\n      dup1\n        /* \"#utility.yul\":187:199   */\n      revert\n        /* \"#utility.yul\":211:328   */\n    tag_78:\n        /* \"#utility.yul\":320:321   */\n      0x00\n        /* \"#utility.yul\":317:318   */\n      dup1\n        /* \"#utility.yul\":310:322   */\n      revert\n        /* \"#utility.yul\":334:451   */\n    tag_79:\n        /* \"#utility.yul\":443:444   */\n      0x00\n        /* \"#utility.yul\":440:441   */\n      dup1\n        /* \"#utility.yul\":433:445   */\n      revert\n        /* \"#utility.yul\":457:574   */\n    tag_80:\n        /* \"#utility.yul\":566:567   */\n      0x00\n        /* \"#utility.yul\":563:564   */\n      dup1\n        /* \"#utility.yul\":556:568   */\n      revert\n        /* \"#utility.yul\":580:682   */\n    tag_81:\n        /* \"#utility.yul\":621:627   */\n      0x00\n        /* \"#utility.yul\":672:674   */\n      0x1f\n        /* \"#utility.yul\":668:675   */\n      not\n        /* \"#utility.yul\":663:665   */\n      0x1f\n        /* \"#utility.yul\":656:661   */\n      dup4\n        /* \"#utility.yul\":652:666   */\n      add\n        /* \"#utility.yul\":648:676   */\n      and\n        /* \"#utility.yul\":638:676   */\n      swap1\n      pop\n        /* \"#utility.yul\":580:682   */\n      swap2\n      swap1\n      pop\n      jump\t// out\n        /* \"#utility.yul\":688:868   */\n    tag_82:\n        /* \"#utility.yul\":736:813   */\n      0x4e487b7100000000000000000000000000000000000000000000000000000000\n        /* \"#utility.yul\":733:734   */\n      0x00\n        /* \"#utility.yul\":726:814   */\n      mstore\n        /* \"#utility.yul\":833:837   */\n      0x41\n        /* \"#utility.yul\":830:831   */\n      0x04\n        /* \"#utility.yul\":823:838   */\n      mstore\n        /* \"#utility.yul\":857:861   */\n      0x24\n        /* \"#utility.yul\":854:855   */\n      0x00\n        /* \"#utility.yul\":847:862   */\n      revert\n        /* \"#utility.yul\":874:1155   */\n    tag_83:\n        /* \"#utility.yul\":957:984   */\n      tag_130\n        /* \"#utility.yul\":979:983   */\n      dup3\n        /* \"#utility.yul\":957:984   */\n      tag_81\n      jump\t// in\n    tag_130:\n        /* \"#utility.yul\":949:955   */\n      dup2\n        /* \"#utility.yul\":945:985   */\n      add\n        /* \"#utility.yul\":1087:1093   */\n      dup2\n        /* \"#utility.yul\":1075:1085   */\n      dup2\n        /* \"#utility.yul\":1072:1094   */\n      lt\n        /* \"#utility.yul\":1051:1069   */\n      0xffffffffffffffff\n        /* \"#utility.yul\":1039:1049   */\n      dup3\n        /* \"#utility.yul\":1036:1070   */\n      gt\n        /* \"#utility.yul\":1033:1095   */\n      or\n        /* \"#utility.yul\":1030:1118   */\n      iszero\n      tag_131\n      jumpi\n        /* \"#utility.yul\":1098:1116   */\n      tag_132\n      tag_82\n      jump\t// in\n    tag_132:\n        /* \"#utility.yul\":1030:1118   */\n    tag_131:\n        /* \"#utility.yul\":1138:1148   */\n      dup1\n        /* \"#utility.yul\":1134:1136   */\n      0x40\n        /* \"#utility.yul\":1127:1149   */\n      mstore\n        /* \"#utility.yul\":917:1155   */\n      pop\n        /* \"#utility.yul\":874:1155   */\n      pop\n      pop\n      jump\t// out\n        /* \"#utility.yul\":1161:1290   */\n    tag_84:\n        /* \"#utility.yul\":1195:1201   */\n      0x00\n        /* \"#utility.yul\":1222:1242   */\n      tag_134\n      tag_76\n      jump\t// in\n    tag_134:\n        /* \"#utility.yul\":1212:1242   */\n      swap1\n      pop\n        /* \"#utility.yul\":1251:1284   */\n      tag_135\n        /* \"#utility.yul\":1279:1283   */\n      dup3\n        /* \"#utility.yul\":1271:1277   */\n      dup3\n        /* \"#utility.yul\":1251:1284   */\n      tag_83\n      jump\t// in\n    tag_135:\n        /* \"#utility.yul\":1161:1290   */\n      swap2\n      swap1\n      pop\n      jump\t// out\n        /* \"#utility.yul\":1296:1604   */\n    tag_85:\n        /* \"#utility.yul\":1358:1362   */\n      0x00\n        /* \"#utility.yul\":1448:1466   */\n      0xffffffffffffffff\n        /* \"#utility.yul\":1440:1446   */\n      dup3\n        /* \"#utility.yul\":1437:1467   */\n      gt\n        /* \"#utility.yul\":1434:1490   */\n      iszero\n      tag_137\n      jumpi\n        /* \"#utility.yul\":1470:1488   */\n      tag_138\n      tag_82\n      jump\t// in\n    tag_138:\n        /* \"#utility.yul\":1434:1490   */\n    tag_137:\n        /* \"#utility.yul\":1508:1537   */\n      tag_139\n        /* \"#utility.yul\":1530:1536   */\n      dup3\n        /* \"#utility.yul\":1508:1537   */\n      tag_81\n      jump\t// in\n    tag_139:\n        /* \"#utility.yul\":1500:1537   */\n      swap1\n      pop\n        /* \"#utility.yul\":1592:1596   */\n      0x20\n        /* \"#utility.yul\":1586:1590   */\n      dup2\n        /* \"#utility.yul\":1582:1597   */\n      add\n        /* \"#utility.yul\":1574:1597   */\n      swap1\n      pop\n        /* \"#utility.yul\":1296:1604   */\n      swap2\n      swap1\n      pop\n      jump\t// out\n        /* \"#utility.yul\":1610:1758   */\n    tag_86:\n        /* \"#utility.yul\":1708:1714   */\n      dup3\n        /* \"#utility.yul\":1703:1706   */\n      dup2\n        /* \"#utility.yul\":1698:1701   */\n      dup4\n        /* \"#utility.yul\":1685:1715   */\n      calldatacopy\n        /* \"#utility.yul\":1749:1750   */\n      0x00\n        /* \"#utility.yul\":1740:1746   */\n      dup4\n        /* \"#utility.yul\":1735:1738   */\n      dup4\n        /* \"#utility.yul\":1731:1747   */\n      add\n        /* \"#utility.yul\":1724:1751   */\n      mstore\n        /* \"#utility.yul\":1610:1758   */\n      pop\n      pop\n      pop\n      jump\t// out\n        /* \"#utility.yul\":1764:2189   */\n    tag_87:\n        /* \"#utility.yul\":1842:1847   */\n      0x00\n        /* \"#utility.yul\":1867:1933   */\n      tag_142\n        /* \"#utility.yul\":1883:1932   */\n      tag_143\n        /* \"#utility.yul\":1925:1931   */\n      dup5\n        /* \"#utility.yul\":1883:1932   */\n      tag_85\n      jump\t// in\n    tag_143:\n        /* \"#utility.yul\":1867:1933   */\n      tag_84\n      jump\t// in\n    tag_142:\n        /* \"#utility.yul\":1858:1933   */\n      swap1\n      pop\n        /* \"#utility.yul\":1956:1962   */\n      dup3\n        /* \"#utility.yul\":1949:1954   */\n      dup2\n        /* \"#utility.yul\":1942:1963   */\n      mstore\n        /* \"#utility.yul\":1994:1998   */\n      0x20\n        /* \"#utility.yul\":1987:1992   */\n      dup2\n        /* \"#utility.yul\":1983:1999   */\n      add\n        /* \"#utility.yul\":2032:2035   */\n      dup5\n        /* \"#utility.yul\":2023:2029   */\n      dup5\n        /* \"#utility.yul\":2018:2021   */\n      dup5\n        /* \"#utility.yul\":2014:2030   */\n      add\n        /* \"#utility.yul\":2011:2036   */\n      gt\n        /* \"#utility.yul\":2008:2120   */\n      iszero\n      tag_144\n      jumpi\n        /* \"#utility.yul\":2039:2118   */\n      tag_145\n      tag_80\n      jump\t// in\n    tag_145:\n        /* \"#utility.yul\":2008:2120   */\n    tag_144:\n        /* \"#utility.yul\":2129:2183   */\n      tag_146\n        /* \"#utility.yul\":2176:2182   */\n      dup5\n        /* \"#utility.yul\":2171:2174   */\n      dup3\n        /* \"#utility.yul\":2166:2169   */\n      dup6\n        /* \"#utility.yul\":2129:2183   */\n      tag_86\n      jump\t// in\n    tag_146:\n        /* \"#utility.yul\":1848:2189   */\n      pop\n        /* \"#utility.yul\":1764:2189   */\n      swap4\n      swap3\n      pop\n      pop\n      pop\n      jump\t// out\n        /* \"#utility.yul\":2209:2549   */\n    tag_88:\n        /* \"#utility.yul\":2265:2270   */\n      0x00\n        /* \"#utility.yul\":2314:2317   */\n      dup3\n        /* \"#utility.yul\":2307:2311   */\n      0x1f\n        /* \"#utility.yul\":2299:2305   */\n      dup4\n        /* \"#utility.yul\":2295:2312   */\n      add\n        /* \"#utility.yul\":2291:2318   */\n      slt\n        /* \"#utility.yul\":2281:2403   */\n      tag_148\n      jumpi\n        /* \"#utility.yul\":2322:2401   */\n      tag_149\n      tag_79\n      jump\t// in\n    tag_149:\n        /* \"#utility.yul\":2281:2403   */\n    tag_148:\n        /* \"#utility.yul\":2439:2445   */\n      dup2\n        /* \"#utility.yul\":2426:2446   */\n      calldataload\n        /* \"#utility.yul\":2464:2543   */\n      tag_150\n        /* \"#utility.yul\":2539:2542   */\n      dup5\n        /* \"#utility.yul\":2531:2537   */\n      dup3\n        /* \"#utility.yul\":2524:2528   */\n      0x20\n        /* \"#utility.yul\":2516:2522   */\n      dup7\n        /* \"#utility.yul\":2512:2529   */\n      add\n        /* \"#utility.yul\":2464:2543   */\n      tag_87\n      jump\t// in\n    tag_150:\n        /* \"#utility.yul\":2455:2543   */\n      swap2\n      pop\n        /* \"#utility.yul\":2271:2549   */\n      pop\n        /* \"#utility.yul\":2209:2549   */\n      swap3\n      swap2\n      pop\n      pop\n      jump\t// out\n        /* \"#utility.yul\":2555:3064   */\n    tag_11:\n        /* \"#utility.yul\":2624:2630   */\n      0x00\n        /* \"#utility.yul\":2673:2675   */\n      0x20\n        /* \"#utility.yul\":2661:2670   */\n      dup3\n        /* \"#utility.yul\":2652:2659   */\n      dup5\n        /* \"#utility.yul\":2648:2671   */\n      sub\n        /* \"#utility.yul\":2644:2676   */\n      slt\n        /* \"#utility.yul\":2641:2760   */\n      iszero\n      tag_152\n      jumpi\n        /* \"#utility.yul\":2679:2758   */\n      tag_153\n      tag_77\n      jump\t// in\n    tag_153:\n        /* \"#utility.yul\":2641:2760   */\n    tag_152:\n        /* \"#utility.yul\":2827:2828   */\n      0x00\n        /* \"#utility.yul\":2816:2825   */\n      dup3\n        /* \"#utility.yul\":2812:2829   */\n      add\n        /* \"#utility.yul\":2799:2830   */\n      calldataload\n        /* \"#utility.yul\":2857:2875   */\n      0xffffffffffffffff\n        /* \"#utility.yul\":2849:2855   */\n      dup2\n        /* \"#utility.yul\":2846:2876   */\n      gt\n        /* \"#utility.yul\":2843:2960   */\n      iszero\n      tag_154\n      jumpi\n        /* \"#utility.yul\":2879:2958   */\n      tag_155\n      tag_78\n      jump\t// in\n    tag_155:\n        /* \"#utility.yul\":2843:2960   */\n    tag_154:\n        /* \"#utility.yul\":2984:3047   */\n      tag_156\n        /* \"#utility.yul\":3039:3046   */\n      dup5\n        /* \"#utility.yul\":3030:3036   */\n      dup3\n        /* \"#utility.yul\":3019:3028   */\n      dup6\n        /* \"#utility.yul\":3015:3037   */\n      add\n        /* \"#utility.yul\":2984:3047   */\n      tag_88\n      jump\t// in\n    tag_156:\n        /* \"#utility.yul\":2974:3047   */\n      swap2\n      pop\n        /* \"#utility.yul\":2770:3057   */\n      pop\n        /* \"#utility.yul\":2555:3064   */\n      swap3\n      swap2\n      pop\n      pop\n      jump\t// out\n        /* \"#utility.yul\":3070:3169   */\n    tag_89:\n        /* \"#utility.yul\":3122:3128   */\n      0x00\n        /* \"#utility.yul\":3156:3161   */\n      dup2\n        /* \"#utility.yul\":3150:3162   */\n      mload\n        /* \"#utility.yul\":3140:3162   */\n      swap1\n      pop\n        /* \"#utility.yul\":3070:3169   */\n      swap2\n      swap1\n      pop\n      jump\t// out\n        /* \"#utility.yul\":3175:3344   */\n    tag_90:\n        /* \"#utility.yul\":3259:3270   */\n      0x00\n        /* \"#utility.yul\":3293:3299   */\n      dup3\n        /* \"#utility.yul\":3288:3291   */\n      dup3\n        /* \"#utility.yul\":3281:3300   */\n      mstore\n        /* \"#utility.yul\":3333:3337   */\n      0x20\n        /* \"#utility.yul\":3328:3331   */\n      dup3\n        /* \"#utility.yul\":3324:3338   */\n      add\n        /* \"#utility.yul\":3309:3338   */\n      swap1\n      pop\n        /* \"#utility.yul\":3175:3344   */\n      swap3\n      swap2\n      pop\n      pop\n      jump\t// out\n        /* \"#utility.yul\":3350:3489   */\n    tag_91:\n        /* \"#utility.yul\":3439:3445   */\n      dup3\n        /* \"#utility.yul\":3434:3437   */\n      dup2\n        /* \"#utility.yul\":3429:3432   */\n      dup4\n        /* \"#utility.yul\":3423:3446   */\n      mcopy\n        /* \"#utility.yul\":3480:3481   */\n      0x00\n        /* \"#utility.yul\":3471:3477   */\n      dup4\n        /* \"#utility.yul\":3466:3469   */\n      dup4\n        /* \"#utility.yul\":3462:3478   */\n      add\n        /* \"#utility.yul\":3455:3482   */\n      mstore\n        /* \"#utility.yul\":3350:3489   */\n      pop\n      pop\n      pop\n      jump\t// out\n        /* \"#utility.yul\":3495:3872   */\n    tag_92:\n        /* \"#utility.yul\":3583:3586   */\n      0x00\n        /* \"#utility.yul\":3611:3650   */\n      tag_161\n        /* \"#utility.yul\":3644:3649   */\n      dup3\n        /* \"#utility.yul\":3611:3650   */\n      tag_89\n      jump\t// in\n    tag_161:\n        /* \"#utility.yul\":3666:3737   */\n      tag_162\n        /* \"#utility.yul\":3730:3736   */\n      dup2\n        /* \"#utility.yul\":3725:3728   */\n      dup6\n        /* \"#utility.yul\":3666:3737   */\n      tag_90\n      jump\t// in\n    tag_162:\n        /* \"#utility.yul\":3659:3737   */\n      swap4\n      pop\n        /* \"#utility.yul\":3746:3811   */\n      tag_163\n        /* \"#utility.yul\":3804:3810   */\n      dup2\n        /* \"#utility.yul\":3799:3802   */\n      dup6\n        /* \"#utility.yul\":3792:3796   */\n      0x20\n        /* \"#utility.yul\":3785:3790   */\n      dup7\n        /* \"#utility.yul\":3781:3797   */\n      add\n        /* \"#utility.yul\":3746:3811   */\n      tag_91\n      jump\t// in\n    tag_163:\n        /* \"#utility.yul\":3836:3865   */\n      tag_164\n        /* \"#utility.yul\":3858:3864   */\n      dup2\n        /* \"#utility.yul\":3836:3865   */\n      tag_81\n      jump\t// in\n    tag_164:\n        /* \"#utility.yul\":3831:3834   */\n      dup5\n        /* \"#utility.yul\":3827:3866   */\n      add\n        /* \"#utility.yul\":3820:3866   */\n      swap2\n      pop\n        /* \"#utility.yul\":3587:3872   */\n      pop\n        /* \"#utility.yul\":3495:3872   */\n      swap3\n      swap2\n      pop\n      pop\n      jump\t// out\n        /* \"#utility.yul\":3878:4191   */\n    tag_14:\n        /* \"#utility.yul\":3991:3995   */\n      0x00\n        /* \"#utility.yul\":4029:4031   */\n      0x20\n        /* \"#utility.yul\":4018:4027   */\n      dup3\n        /* \"#utility.yul\":4014:4032   */\n      add\n        /* \"#utility.yul\":4006:4032   */\n      swap1\n      pop\n        /* \"#utility.yul\":4078:4087   */\n      dup2\n        /* \"#utility.yul\":4072:4076   */\n      dup2\n        /* \"#utility.yul\":4068:4088   */\n      sub\n        /* \"#utility.yul\":4064:4065   */\n      0x00\n        /* \"#utility.yul\":4053:4062   */\n      dup4\n        /* \"#utility.yul\":4049:4066   */\n      add\n        /* \"#utility.yul\":4042:4089   */\n      mstore\n        /* \"#utility.yul\":4106:4184   */\n      tag_166\n        /* \"#utility.yul\":4179:4183   */\n      dup2\n        /* \"#utility.yul\":4170:4176   */\n      dup5\n        /* \"#utility.yul\":4106:4184   */\n      tag_92\n      jump\t// in\n    tag_166:\n        /* \"#utility.yul\":4098:4184   */\n      swap1\n      pop\n        /* \"#utility.yul\":3878:4191   */\n      swap3\n      swap2\n      pop\n      pop\n      jump\t// out\n        /* \"#utility.yul\":4197:4323   */\n    tag_93:\n        /* \"#utility.yul\":4234:4241   */\n      0x00\n        /* \"#utility.yul\":4274:4316   */\n      0xffffffffffffffffffffffffffffffffffffffff\n        /* \"#utility.yul\":4267:4272   */\n      dup3\n        /* \"#utility.yul\":4263:4317   */\n      and\n        /* \"#utility.yul\":4252:4317   */\n      swap1\n      pop\n        /* \"#utility.yul\":4197:4323   */\n      swap2\n      swap1\n      pop\n      jump\t// out\n        /* \"#utility.yul\":4329:4425   */\n    tag_94:\n        /* \"#utility.yul\":4366:4373   */\n      0x00\n        /* \"#utility.yul\":4395:4419   */\n      tag_169\n        /* \"#utility.yul\":4413:4418   */\n      dup3\n        /* \"#utility.yul\":4395:4419   */\n      tag_93\n      jump\t// in\n    tag_169:\n        /* \"#utility.yul\":4384:4419   */\n      swap1\n      pop\n        /* \"#utility.yul\":4329:4425   */\n      swap2\n      swap1\n      pop\n      jump\t// out\n        /* \"#utility.yul\":4431:4553   */\n    tag_95:\n        /* \"#utility.yul\":4504:4528   */\n      tag_171\n        /* \"#utility.yul\":4522:4527   */\n      dup2\n        /* \"#utility.yul\":4504:4528   */\n      tag_94\n      jump\t// in\n    tag_171:\n        /* \"#utility.yul\":4497:4502   */\n      dup2\n        /* \"#utility.yul\":4494:4529   */\n      eq\n        /* \"#utility.yul\":4484:4547   */\n      tag_172\n      jumpi\n        /* \"#utility.yul\":4543:4544   */\n      0x00\n        /* \"#utility.yul\":4540:4541   */\n      dup1\n        /* \"#utility.yul\":4533:4545   */\n      revert\n        /* \"#utility.yul\":4484:4547   */\n    tag_172:\n        /* \"#utility.yul\":4431:4553   */\n      pop\n      jump\t// out\n        /* \"#utility.yul\":4559:4698   */\n    tag_96:\n        /* \"#utility.yul\":4605:4610   */\n      0x00\n        /* \"#utility.yul\":4643:4649   */\n      dup2\n        /* \"#utility.yul\":4630:4650   */\n      calldataload\n        /* \"#utility.yul\":4621:4650   */\n      swap1\n      pop\n        /* \"#utility.yul\":4659:4692   */\n      tag_174\n        /* \"#utility.yul\":4686:4691   */\n      dup2\n        /* \"#utility.yul\":4659:4692   */\n      tag_95\n      jump\t// in\n    tag_174:\n        /* \"#utility.yul\":4559:4698   */\n      swap3\n      swap2\n      pop\n      pop\n      jump\t// out\n        /* \"#utility.yul\":4704:5033   */\n    tag_17:\n        /* \"#utility.yul\":4763:4769   */\n      0x00\n        /* \"#utility.yul\":4812:4814   */\n      0x20\n        /* \"#utility.yul\":4800:4809   */\n      dup3\n        /* \"#utility.yul\":4791:4798   */\n      dup5\n        /* \"#utility.yul\":4787:4810   */\n      sub\n        /* \"#utility.yul\":4783:4815   */\n      slt\n        /* \"#utility.yul\":4780:4899   */\n      iszero\n      tag_176\n      jumpi\n        /* \"#utility.yul\":4818:4897   */\n      tag_177\n      tag_77\n      jump\t// in\n    tag_177:\n        /* \"#utility.yul\":4780:4899   */\n    tag_176:\n        /* \"#utility.yul\":4938:4939   */\n      0x00\n        /* \"#utility.yul\":4963:5016   */\n      tag_178\n        /* \"#utility.yul\":5008:5015   */\n      dup5\n        /* \"#utility.yul\":4999:5005   */\n      dup3\n        /* \"#utility.yul\":4988:4997   */\n      dup6\n        /* \"#utility.yul\":4984:5006   */\n      add\n        /* \"#utility.yul\":4963:5016   */\n      tag_96\n      jump\t// in\n    tag_178:\n        /* \"#utility.yul\":4953:5016   */\n      swap2\n      pop\n        /* \"#utility.yul\":4909:5026   */\n      pop\n        /* \"#utility.yul\":4704:5033   */\n      swap3\n      swap2\n      pop\n      pop\n      jump\t// out\n        /* \"#utility.yul\":5039:5693   */\n    tag_25:\n        /* \"#utility.yul\":5117:5123   */\n      0x00\n        /* \"#utility.yul\":5125:5131   */\n      dup1\n        /* \"#utility.yul\":5174:5176   */\n      0x40\n        /* \"#utility.yul\":5162:5171   */\n      dup4\n        /* \"#utility.yul\":5153:5160   */\n      dup6\n        /* \"#utility.yul\":5149:5172   */\n      sub\n        /* \"#utility.yul\":5145:5177   */\n      slt\n        /* \"#utility.yul\":5142:5261   */\n      iszero\n      tag_180\n      jumpi\n        /* \"#utility.yul\":5180:5259   */\n      tag_181\n      tag_77\n      jump\t// in\n    tag_181:\n        /* \"#utility.yul\":5142:5261   */\n    tag_180:\n        /* \"#utility.yul\":5300:5301   */\n      0x00\n        /* \"#utility.yul\":5325:5378   */\n      tag_182\n        /* \"#utility.yul\":5370:5377   */\n      dup6\n        /* \"#utility.yul\":5361:5367   */\n      dup3\n        /* \"#utility.yul\":5350:5359   */\n      dup7\n        /* \"#utility.yul\":5346:5368   */\n      add\n        /* \"#utility.yul\":5325:5378   */\n      tag_96\n      jump\t// in\n    tag_182:\n        /* \"#utility.yul\":5315:5378   */\n      swap3\n      pop\n        /* \"#utility.yul\":5271:5388   */\n      pop\n        /* \"#utility.yul\":5455:5457   */\n      0x20\n        /* \"#utility.yul\":5444:5453   */\n      dup4\n        /* \"#utility.yul\":5440:5458   */\n      add\n        /* \"#utility.yul\":5427:5459   */\n      calldataload\n        /* \"#utility.yul\":5486:5504   */\n      0xffffffffffffffff\n        /* \"#utility.yul\":5478:5484   */\n      dup2\n        /* \"#utility.yul\":5475:5505   */\n      gt\n        /* \"#utility.yul\":5472:5589   */\n      iszero\n      tag_183\n      jumpi\n        /* \"#utility.yul\":5508:5587   */\n      tag_184\n      tag_78\n      jump\t// in\n    tag_184:\n        /* \"#utility.yul\":5472:5589   */\n    tag_183:\n        /* \"#utility.yul\":5613:5676   */\n      tag_185\n        /* \"#utility.yul\":5668:5675   */\n      dup6\n        /* \"#utility.yul\":5659:5665   */\n      dup3\n        /* \"#utility.yul\":5648:5657   */\n      dup7\n        /* \"#utility.yul\":5644:5666   */\n      add\n        /* \"#utility.yul\":5613:5676   */\n      tag_88\n      jump\t// in\n    tag_185:\n        /* \"#utility.yul\":5603:5676   */\n      swap2\n      pop\n        /* \"#utility.yul\":5398:5686   */\n      pop\n        /* \"#utility.yul\":5039:5693   */\n      swap3\n      pop\n      swap3\n      swap1\n      pop\n      jump\t// out\n        /* \"#utility.yul\":5699:5776   */\n    tag_97:\n        /* \"#utility.yul\":5736:5743   */\n      0x00\n        /* \"#utility.yul\":5765:5770   */\n      dup2\n        /* \"#utility.yul\":5754:5770   */\n      swap1\n      pop\n        /* \"#utility.yul\":5699:5776   */\n      swap2\n      swap1\n      pop\n      jump\t// out\n        /* \"#utility.yul\":5782:5904   */\n    tag_98:\n        /* \"#utility.yul\":5855:5879   */\n      tag_188\n        /* \"#utility.yul\":5873:5878   */\n      dup2\n        /* \"#utility.yul\":5855:5879   */\n      tag_97\n      jump\t// in\n    tag_188:\n        /* \"#utility.yul\":5848:5853   */\n      dup2\n        /* \"#utility.yul\":5845:5880   */\n      eq\n        /* \"#utility.yul\":5835:5898   */\n      tag_189\n      jumpi\n        /* \"#utility.yul\":5894:5895   */\n      0x00\n        /* \"#utility.yul\":5891:5892   */\n      dup1\n        /* \"#utility.yul\":5884:5896   */\n      revert\n        /* \"#utility.yul\":5835:5898   */\n    tag_189:\n        /* \"#utility.yul\":5782:5904   */\n      pop\n      jump\t// out\n        /* \"#utility.yul\":5910:6049   */\n    tag_99:\n        /* \"#utility.yul\":5956:5961   */\n      0x00\n        /* \"#utility.yul\":5994:6000   */\n      dup2\n        /* \"#utility.yul\":5981:6001   */\n      calldataload\n        /* \"#utility.yul\":5972:6001   */\n      swap1\n      pop\n        /* \"#utility.yul\":6010:6043   */\n      tag_191\n        /* \"#utility.yul\":6037:6042   */\n      dup2\n        /* \"#utility.yul\":6010:6043   */\n      tag_98\n      jump\t// in\n    tag_191:\n        /* \"#utility.yul\":5910:6049   */\n      swap3\n      swap2\n      pop\n      pop\n      jump\t// out\n        /* \"#utility.yul\":6055:6529   */\n    tag_32:\n        /* \"#utility.yul\":6123:6129   */\n      0x00\n        /* \"#utility.yul\":6131:6137   */\n      dup1\n        /* \"#utility.yul\":6180:6182   */\n      0x40\n        /* \"#utility.yul\":6168:6177   */\n      dup4\n        /* \"#utility.yul\":6159:6166   */\n      dup6\n        /* \"#utility.yul\":6155:6178   */\n      sub\n        /* \"#utility.yul\":6151:6183   */\n      slt\n        /* \"#utility.yul\":6148:6267   */\n      iszero\n      tag_193\n      jumpi\n        /* \"#utility.yul\":6186:6265   */\n      tag_194\n      tag_77\n      jump\t// in\n    tag_194:\n        /* \"#utility.yul\":6148:6267   */\n    tag_193:\n        /* \"#utility.yul\":6306:6307   */\n      0x00\n        /* \"#utility.yul\":6331:6384   */\n      tag_195\n        /* \"#utility.yul\":6376:6383   */\n      dup6\n        /* \"#utility.yul\":6367:6373   */\n      dup3\n        /* \"#utility.yul\":6356:6365   */\n      dup7\n        /* \"#utility.yul\":6352:6374   */\n      add\n        /* \"#utility.yul\":6331:6384   */\n      tag_96\n      jump\t// in\n    tag_195:\n        /* \"#utility.yul\":6321:6384   */\n      swap3\n      pop\n        /* \"#utility.yul\":6277:6394   */\n      pop\n        /* \"#utility.yul\":6433:6435   */\n      0x20\n        /* \"#utility.yul\":6459:6512   */\n      tag_196\n        /* \"#utility.yul\":6504:6511   */\n      dup6\n        /* \"#utility.yul\":6495:6501   */\n      dup3\n        /* \"#utility.yul\":6484:6493   */\n      dup7\n        /* \"#utility.yul\":6480:6502   */\n      add\n        /* \"#utility.yul\":6459:6512   */\n      tag_99\n      jump\t// in\n    tag_196:\n        /* \"#utility.yul\":6449:6512   */\n      swap2\n      pop\n        /* \"#utility.yul\":6404:6522   */\n      pop\n        /* \"#utility.yul\":6055:6529   */\n      swap3\n      pop\n      swap3\n      swap1\n      pop\n      jump\t// out\n        /* \"#utility.yul\":6535:6699   */\n    tag_100:\n        /* \"#utility.yul\":6675:6691   */\n      0x4e6f207265616420616363657373000000000000000000000000000000000000\n        /* \"#utility.yul\":6671:6672   */\n      0x00\n        /* \"#utility.yul\":6663:6669   */\n      dup3\n        /* \"#utility.yul\":6659:6673   */\n      add\n        /* \"#utility.yul\":6652:6692   */\n      mstore\n        /* \"#utility.yul\":6535:6699   */\n      pop\n      jump\t// out\n        /* \"#utility.yul\":6705:7071   */\n    tag_101:\n        /* \"#utility.yul\":6847:6850   */\n      0x00\n        /* \"#utility.yul\":6868:6935   */\n      tag_199\n        /* \"#utility.yul\":6932:6934   */\n      0x0e\n        /* \"#utility.yul\":6927:6930   */\n      dup4\n        /* \"#utility.yul\":6868:6935   */\n      tag_90\n      jump\t// in\n    tag_199:\n        /* \"#utility.yul\":6861:6935   */\n      swap2\n      pop\n        /* \"#utility.yul\":6944:7037   */\n      tag_200\n        /* \"#utility.yul\":7033:7036   */\n      dup3\n        /* \"#utility.yul\":6944:7037   */\n      tag_100\n      jump\t// in\n    tag_200:\n        /* \"#utility.yul\":7062:7064   */\n      0x20\n        /* \"#utility.yul\":7057:7060   */\n      dup3\n        /* \"#utility.yul\":7053:7065   */\n      add\n        /* \"#utility.yul\":7046:7065   */\n      swap1\n      pop\n        /* \"#utility.yul\":6705:7071   */\n      swap2\n      swap1\n      pop\n      jump\t// out\n        /* \"#utility.yul\":7077:7496   */\n    tag_38:\n        /* \"#utility.yul\":7243:7247   */\n      0x00\n        /* \"#utility.yul\":7281:7283   */\n      0x20\n        /* \"#utility.yul\":7270:7279   */\n      dup3\n        /* \"#utility.yul\":7266:7284   */\n      add\n        /* \"#utility.yul\":7258:7284   */\n      swap1\n      pop\n        /* \"#utility.yul\":7330:7339   */\n      dup2\n        /* \"#utility.yul\":7324:7328   */\n      dup2\n        /* \"#utility.yul\":7320:7340   */\n      sub\n        /* \"#utility.yul\":7316:7317   */\n      0x00\n        /* \"#utility.yul\":7305:7314   */\n      dup4\n        /* \"#utility.yul\":7301:7318   */\n      add\n        /* \"#utility.yul\":7294:7341   */\n      mstore\n        /* \"#utility.yul\":7358:7489   */\n      tag_202\n        /* \"#utility.yul\":7484:7488   */\n      dup2\n        /* \"#utility.yul\":7358:7489   */\n      tag_101\n      jump\t// in\n    tag_202:\n        /* \"#utility.yul\":7350:7489   */\n      swap1\n      pop\n        /* \"#utility.yul\":7077:7496   */\n      swap2\n      swap1\n      pop\n      jump\t// out\n        /* \"#utility.yul\":7502:7682   */\n    tag_102:\n        /* \"#utility.yul\":7550:7627   */\n      0x4e487b7100000000000000000000000000000000000000000000000000000000\n        /* \"#utility.yul\":7547:7548   */\n      0x00\n        /* \"#utility.yul\":7540:7628   */\n      mstore\n        /* \"#utility.yul\":7647:7651   */\n      0x22\n        /* \"#utility.yul\":7644:7645   */\n      0x04\n        /* \"#utility.yul\":7637:7652   */\n      mstore\n        /* \"#utility.yul\":7671:7675   */\n      0x24\n        /* \"#utility.yul\":7668:7669   */\n      0x00\n        /* \"#utility.yul\":7661:7676   */\n      revert\n        /* \"#utility.yul\":7688:8008   */\n    tag_46:\n        /* \"#utility.yul\":7732:7738   */\n      0x00\n        /* \"#utility.yul\":7769:7770   */\n      0x02\n        /* \"#utility.yul\":7763:7767   */\n      dup3\n        /* \"#utility.yul\":7759:7771   */\n      div\n        /* \"#utility.yul\":7749:7771   */\n      swap1\n      pop\n        /* \"#utility.yul\":7816:7817   */\n      0x01\n        /* \"#utility.yul\":7810:7814   */\n      dup3\n        /* \"#utility.yul\":7806:7818   */\n      and\n        /* \"#utility.yul\":7837:7855   */\n      dup1\n        /* \"#utility.yul\":7827:7908   */\n      tag_205\n      jumpi\n        /* \"#utility.yul\":7893:7897   */\n      0x7f\n        /* \"#utility.yul\":7885:7891   */\n      dup3\n        /* \"#utility.yul\":7881:7898   */\n      and\n        /* \"#utility.yul\":7871:7898   */\n      swap2\n      pop\n        /* \"#utility.yul\":7827:7908   */\n    tag_205:\n        /* \"#utility.yul\":7955:7957   */\n      0x20\n        /* \"#utility.yul\":7947:7953   */\n      dup3\n        /* \"#utility.yul\":7944:7958   */\n      lt\n        /* \"#utility.yul\":7924:7942   */\n      dup2\n        /* \"#utility.yul\":7921:7959   */\n      sub\n        /* \"#utility.yul\":7918:8002   */\n      tag_206\n      jumpi\n        /* \"#utility.yul\":7974:7992   */\n      tag_207\n      tag_102\n      jump\t// in\n    tag_207:\n        /* \"#utility.yul\":7918:8002   */\n    tag_206:\n        /* \"#utility.yul\":7739:8008   */\n      pop\n        /* \"#utility.yul\":7688:8008   */\n      swap2\n      swap1\n      pop\n      jump\t// out\n        /* \"#utility.yul\":8014:8186   */\n    tag_103:\n        /* \"#utility.yul\":8154:8178   */\n      0x436f6e7461637420646f6573206e6f7420657869737400000000000000000000\n        /* \"#utility.yul\":8150:8151   */\n      0x00\n        /* \"#utility.yul\":8142:8148   */\n      dup3\n        /* \"#utility.yul\":8138:8152   */\n      add\n        /* \"#utility.yul\":8131:8179   */\n      mstore\n        /* \"#utility.yul\":8014:8186   */\n      pop\n      jump\t// out\n        /* \"#utility.yul\":8192:8558   */\n    tag_104:\n        /* \"#utility.yul\":8334:8337   */\n      0x00\n        /* \"#utility.yul\":8355:8422   */\n      tag_210\n        /* \"#utility.yul\":8419:8421   */\n      0x16\n        /* \"#utility.yul\":8414:8417   */\n      dup4\n        /* \"#utility.yul\":8355:8422   */\n      tag_90\n      jump\t// in\n    tag_210:\n        /* \"#utility.yul\":8348:8422   */\n      swap2\n      pop\n        /* \"#utility.yul\":8431:8524   */\n      tag_211\n        /* \"#utility.yul\":8520:8523   */\n      dup3\n        /* \"#utility.yul\":8431:8524   */\n      tag_103\n      jump\t// in\n    tag_211:\n        /* \"#utility.yul\":8549:8551   */\n      0x20\n        /* \"#utility.yul\":8544:8547   */\n      dup3\n        /* \"#utility.yul\":8540:8552   */\n      add\n        /* \"#utility.yul\":8533:8552   */\n      swap1\n      pop\n        /* \"#utility.yul\":8192:8558   */\n      swap2\n      swap1\n      pop\n      jump\t// out\n        /* \"#utility.yul\":8564:8983   */\n    tag_55:\n        /* \"#utility.yul\":8730:8734   */\n      0x00\n        /* \"#utility.yul\":8768:8770   */\n      0x20\n        /* \"#utility.yul\":8757:8766   */\n      dup3\n        /* \"#utility.yul\":8753:8771   */\n      add\n        /* \"#utility.yul\":8745:8771   */\n      swap1\n      pop\n        /* \"#utility.yul\":8817:8826   */\n      dup2\n        /* \"#utility.yul\":8811:8815   */\n      dup2\n        /* \"#utility.yul\":8807:8827   */\n      sub\n        /* \"#utility.yul\":8803:8804   */\n      0x00\n        /* \"#utility.yul\":8792:8801   */\n      dup4\n        /* \"#utility.yul\":8788:8805   */\n      add\n        /* \"#utility.yul\":8781:8828   */\n      mstore\n        /* \"#utility.yul\":8845:8976   */\n      tag_213\n        /* \"#utility.yul\":8971:8975   */\n      dup2\n        /* \"#utility.yul\":8845:8976   */\n      tag_104\n      jump\t// in\n    tag_213:\n        /* \"#utility.yul\":8837:8976   */\n      swap1\n      pop\n        /* \"#utility.yul\":8564:8983   */\n      swap2\n      swap1\n      pop\n      jump\t// out\n        /* \"#utility.yul\":8989:9130   */\n    tag_105:\n        /* \"#utility.yul\":9038:9042   */\n      0x00\n        /* \"#utility.yul\":9061:9064   */\n      dup2\n        /* \"#utility.yul\":9053:9064   */\n      swap1\n      pop\n        /* \"#utility.yul\":9084:9087   */\n      dup2\n        /* \"#utility.yul\":9081:9082   */\n      0x00\n        /* \"#utility.yul\":9074:9088   */\n      mstore\n        /* \"#utility.yul\":9118:9122   */\n      0x20\n        /* \"#utility.yul\":9115:9116   */\n      0x00\n        /* \"#utility.yul\":9105:9123   */\n      keccak256\n        /* \"#utility.yul\":9097:9123   */\n      swap1\n      pop\n        /* \"#utility.yul\":8989:9130   */\n      swap2\n      swap1\n      pop\n      jump\t// out\n        /* \"#utility.yul\":9136:9229   */\n    tag_106:\n        /* \"#utility.yul\":9173:9179   */\n      0x00\n        /* \"#utility.yul\":9220:9222   */\n      0x20\n        /* \"#utility.yul\":9215:9217   */\n      0x1f\n        /* \"#utility.yul\":9208:9213   */\n      dup4\n        /* \"#utility.yul\":9204:9218   */\n      add\n        /* \"#utility.yul\":9200:9223   */\n      div\n        /* \"#utility.yul\":9190:9223   */\n      swap1\n      pop\n        /* \"#utility.yul\":9136:9229   */\n      swap2\n      swap1\n      pop\n      jump\t// out\n        /* \"#utility.yul\":9235:9342   */\n    tag_107:\n        /* \"#utility.yul\":9279:9287   */\n      0x00\n        /* \"#utility.yul\":9329:9334   */\n      dup3\n        /* \"#utility.yul\":9323:9327   */\n      dup3\n        /* \"#utility.yul\":9319:9335   */\n      shl\n        /* \"#utility.yul\":9298:9335   */\n      swap1\n      pop\n        /* \"#utility.yul\":9235:9342   */\n      swap3\n      swap2\n      pop\n      pop\n      jump\t// out\n        /* \"#utility.yul\":9348:9741   */\n    tag_108:\n        /* \"#utility.yul\":9417:9423   */\n      0x00\n        /* \"#utility.yul\":9467:9468   */\n      0x08\n        /* \"#utility.yul\":9455:9465   */\n      dup4\n        /* \"#utility.yul\":9451:9469   */\n      mul\n        /* \"#utility.yul\":9490:9587   */\n      tag_218\n        /* \"#utility.yul\":9520:9586   */\n      0xffffffffffffffffffffffffffffffffffffffffffffffffffffffffffffffff\n        /* \"#utility.yul\":9509:9518   */\n      dup3\n        /* \"#utility.yul\":9490:9587   */\n      tag_107\n      jump\t// in\n    tag_218:\n        /* \"#utility.yul\":9608:9647   */\n      tag_219\n        /* \"#utility.yul\":9638:9646   */\n      dup7\n        /* \"#utility.yul\":9627:9636   */\n      dup4\n        /* \"#utility.yul\":9608:9647   */\n      tag_107\n      jump\t// in\n    tag_219:\n        /* \"#utility.yul\":9596:9647   */\n      swap6\n      pop\n        /* \"#utility.yul\":9680:9684   */\n      dup1\n        /* \"#utility.yul\":9676:9685   */\n      not\n        /* \"#utility.yul\":9669:9674   */\n      dup5\n        /* \"#utility.yul\":9665:9686   */\n      and\n        /* \"#utility.yul\":9656:9686   */\n      swap4\n      pop\n        /* \"#utility.yul\":9729:9733   */\n      dup1\n        /* \"#utility.yul\":9719:9727   */\n      dup7\n        /* \"#utility.yul\":9715:9734   */\n      and\n        /* \"#utility.yul\":9708:9713   */\n      dup5\n        /* \"#utility.yul\":9705:9735   */\n      or\n        /* \"#utility.yul\":9695:9735   */\n      swap3\n      pop\n        /* \"#utility.yul\":9424:9741   */\n      pop\n      pop\n        /* \"#utility.yul\":9348:9741   */\n      swap4\n      swap3\n      pop\n      pop\n      pop\n      jump\t// out\n        /* \"#utility.yul\":9747:9807   */\n    tag_109:\n        /* \"#utility.yul\":9775:9778   */\n      0x00\n        /* \"#utility.yul\":9796:9801   */\n      dup2\n        /* \"#utility.yul\":9789:9801   */\n      swap1\n      pop\n        /* \"#utility.yul\":9747:9807   */\n      swap2\n      swap1\n      pop\n      jump\t// out\n        /* \"#utility.yul\":9813:9955   */\n    tag_110:\n        /* \"#utility.yul\":9863:9872   */\n      0x00\n        /* \"#utility.yul\":9896:9949   */\n      tag_222\n        /* \"#utility.yul\":9914:9948   */\n      tag_223\n        /* \"#utility.yul\":9923:9947   */\n      tag_224\n        /* \"#utility.yul\":9941:9946   */\n      dup5\n        /* \"#utility.yul\":9923:9947   */\n      tag_97\n      jump\t// in\n    tag_224:\n        /* \"#utility.yul\":9914:9948   */\n      tag_109\n      jump\t// in\n    tag_223:\n        /* \"#utility.yul\":9896:9949   */\n      tag_97\n      jump\t// in\n    tag_222:\n        /* \"#utility.yul\":9883:9949   */\n      swap1\n      pop\n        /* \"#utility.yul\":9813:9955   */\n      swap2\n      swap1\n      pop\n      jump\t// out\n        /* \"#utility.yul\":9961:10036   */\n    tag_111:\n        /* \"#utility.yul\":10004:10007   */\n      0x00\n        /* \"#utility.yul\":10025:10030   */\n      dup2\n        /* \"#utility.yul\":10018:10030   */\n      swap1\n      pop\n        /* \"#utility.yul\":9961:10036   */\n      swap2\n      swap1\n      pop\n      jump\t// out\n        /* \"#utility.yul\":10042:10311   */\n    tag_112:\n        /* \"#utility.yul\":10152:10191   */\n      tag_227\n        /* \"#utility.yul\":10183:10190   */\n      dup4\n        /* \"#utility.yul\":10152:10191   */\n      tag_110\n      jump\t// in\n    tag_227:\n        /* \"#utility.yul\":10213:10304   */\n      tag_228\n        /* \"#utility.yul\":10262:10303   */\n      tag_229\n        /* \"#utility.yul\":10286:10302   */\n      dup3\n        /* \"#utility.yul\":10262:10303   */\n      tag_111\n      jump\t// in\n    tag_229:\n        /* \"#utility.yul\":10254:10260   */\n      dup5\n        /* \"#utility.yul\":10247:10251   */\n      dup5\n        /* \"#utility.yul\":10241:10252   */\n      sload\n        /* \"#utility.yul\":10213:10304   */\n      tag_108\n      jump\t// in\n    tag_228:\n        /* \"#utility.yul\":10207:10211   */\n      dup3\n        /* \"#utility.yul\":10200:10305   */\n      sstore\n        /* \"#utility.yul\":10118:10311   */\n      pop\n        /* \"#utility.yul\":10042:10311   */\n      pop\n      pop\n      pop\n      jump\t// out\n        /* \"#utility.yul\":10317:10390   */\n    tag_113:\n        /* \"#utility.yul\":10362:10365   */\n      0x00\n        /* \"#utility.yul\":10317:10390   */\n      swap1\n      jump\t// out\n        /* \"#utility.yul\":10396:10585   */\n    tag_114:\n        /* \"#utility.yul\":10473:10505   */\n      tag_232\n      tag_113\n      jump\t// in\n    tag_232:\n        /* \"#utility.yul\":10514:10579   */\n      tag_233\n        /* \"#utility.yul\":10572:10578   */\n      dup2\n        /* \"#utility.yul\":10564:10570   */\n      dup5\n        /* \"#utility.yul\":10558:10562   */\n      dup5\n        /* \"#utility.yul\":10514:10579   */\n      tag_112\n      jump\t// in\n    tag_233:\n        /* \"#utility.yul\":10449:10585   */\n      pop\n        /* \"#utility.yul\":10396:10585   */\n      pop\n      pop\n      jump\t// out\n        /* \"#utility.yul\":10591:10777   */\n    tag_115:\n        /* \"#utility.yul\":10651:10771   */\n    tag_235:\n        /* \"#utility.yul\":10668:10671   */\n      dup2\n        /* \"#utility.yul\":10661:10666   */\n      dup2\n        /* \"#utility.yul\":10658:10672   */\n      lt\n        /* \"#utility.yul\":10651:10771   */\n      iszero\n      tag_237\n      jumpi\n        /* \"#utility.yul\":10722:10761   */\n      tag_238\n        /* \"#utility.yul\":10759:10760   */\n      0x00\n        /* \"#utility.yul\":10752:10757   */\n      dup3\n        /* \"#utility.yul\":10722:10761   */\n      tag_114\n      jump\t// in\n    tag_238:\n        /* \"#utility.yul\":10695:10696   */\n      0x01\n        /* \"#utility.yul\":10688:10693   */\n      dup2\n        /* \"#utility.yul\":10684:10697   */\n      add\n        /* \"#utility.yul\":10675:10697   */\n      swap1\n      pop\n        /* \"#utility.yul\":10651:10771   */\n      jump(tag_235)\n    tag_237:\n        /* \"#utility.yul\":10591:10777   */\n      pop\n      pop\n      jump\t// out\n        /* \"#utility.yul\":10783:11326   */\n    tag_116:\n        /* \"#utility.yul\":10884:10886   */\n      0x1f\n        /* \"#utility.yul\":10879:10882   */\n      dup3\n        /* \"#utility.yul\":10876:10887   */\n      gt\n        /* \"#utility.yul\":10873:11319   */\n      iszero\n      tag_240\n      jumpi\n        /* \"#utility.yul\":10918:10956   */\n      tag_241\n        /* \"#utility.yul\":10950:10955   */\n      dup2\n        /* \"#utility.yul\":10918:10956   */\n      tag_105\n      jump\t// in\n    tag_241:\n        /* \"#utility.yul\":11002:11031   */\n      tag_242\n        /* \"#utility.yul\":11020:11030   */\n      dup5\n        /* \"#utility.yul\":11002:11031   */\n      tag_106\n      jump\t// in\n    tag_242:\n        /* \"#utility.yul\":10992:11000   */\n      dup2\n        /* \"#utility.yul\":10988:11032   */\n      add\n        /* \"#utility.yul\":11185:11187   */\n      0x20\n        /* \"#utility.yul\":11173:11183   */\n      dup6\n        /* \"#utility.yul\":11170:11188   */\n      lt\n        /* \"#utility.yul\":11167:11216   */\n      iszero\n      tag_243\n      jumpi\n        /* \"#utility.yul\":11206:11214   */\n      dup2\n        /* \"#utility.yul\":11191:11214   */\n      swap1\n      pop\n        /* \"#utility.yul\":11167:11216   */\n    tag_243:\n        /* \"#utility.yul\":11229:11309   */\n      tag_244\n        /* \"#utility.yul\":11285:11307   */\n      tag_245\n        /* \"#utility.yul\":11303:11306   */\n      dup6\n        /* \"#utility.yul\":11285:11307   */\n      tag_106\n      jump\t// in\n    tag_245:\n        /* \"#utility.yul\":11275:11283   */\n      dup4\n        /* \"#utility.yul\":11271:11308   */\n      add\n        /* \"#utility.yul\":11258:11269   */\n      dup3\n        /* \"#utility.yul\":11229:11309   */\n      tag_115\n      jump\t// in\n    tag_244:\n        /* \"#utility.yul\":10888:11319   */\n      pop\n      pop\n        /* \"#utility.yul\":10873:11319   */\n    tag_240:\n        /* \"#utility.yul\":10783:11326   */\n      pop\n      pop\n      pop\n      jump\t// out\n        /* \"#utility.yul\":11332:11449   */\n    tag_117:\n        /* \"#utility.yul\":11386:11394   */\n      0x00\n        /* \"#utility.yul\":11436:11441   */\n      dup3\n        /* \"#utility.yul\":11430:11434   */\n      dup3\n        /* \"#utility.yul\":11426:11442   */\n      shr\n        /* \"#utility.yul\":11405:11442   */\n      swap1\n      pop\n        /* \"#utility.yul\":11332:11449   */\n      swap3\n      swap2\n      pop\n      pop\n      jump\t// out\n        /* \"#utility.yul\":11455:11624   */\n    tag_118:\n        /* \"#utility.yul\":11499:11505   */\n      0x00\n        /* \"#utility.yul\":11532:11583   */\n      tag_248\n        /* \"#utility.yul\":11580:11581   */\n      0x00\n        /* \"#utility.yul\":11576:11582   */\n      not\n        /* \"#utility.yul\":11568:11573   */\n      dup5\n        /* \"#utility.yul\":11565:11566   */\n      0x08\n        /* \"#utility.yul\":11561:11574   */\n      mul\n        /* \"#utility.yul\":11532:11583   */\n      tag_117\n      jump\t// in\n    tag_248:\n        /* \"#utility.yul\":11528:11584   */\n      not\n        /* \"#utility.yul\":11613:11617   */\n      dup1\n        /* \"#utility.yul\":11607:11611   */\n      dup4\n        /* \"#utility.yul\":11603:11618   */\n      and\n        /* \"#utility.yul\":11593:11618   */\n      swap2\n      pop\n        /* \"#utility.yul\":11506:11624   */\n      pop\n        /* \"#utility.yul\":11455:11624   */\n      swap3\n      swap2\n      pop\n      pop\n      jump\t// out\n        /* \"#utility.yul\":11629:11924   */\n    tag_119:\n        /* \"#utility.yul\":11705:11709   */\n      0x00\n        /* \"#utility.yul\":11851:11880   */\n      tag_250\n        /* \"#utility.yul\":11876:11879   */\n      dup4\n        /* \"#utility.yul\":11870:11874   */\n      dup4\n        /* \"#utility.yul\":11851:11880   */\n      tag_118\n      jump\t// in\n    tag_250:\n        /* \"#utility.yul\":11843:11880   */\n      swap2\n      pop\n        /* \"#utility.yul\":11913:11916   */\n      dup3\n        /* \"#utility.yul\":11910:11911   */\n      0x02\n        /* \"#utility.yul\":11906:11917   */\n      mul\n        /* \"#utility.yul\":11900:11904   */\n      dup3\n        /* \"#utility.yul\":11897:11918   */\n      or\n        /* \"#utility.yul\":11889:11918   */\n      swap1\n      pop\n        /* \"#utility.yul\":11629:11924   */\n      swap3\n      swap2\n      pop\n      pop\n      jump\t// out\n        /* \"#utility.yul\":11929:13324   */\n    tag_63:\n        /* \"#utility.yul\":12046:12083   */\n      tag_252\n        /* \"#utility.yul\":12079:12082   */\n      dup3\n        /* \"#utility.yul\":12046:12083   */\n      tag_89\n      jump\t// in\n    tag_252:\n        /* \"#utility.yul\":12148:12166   */\n      0xffffffffffffffff\n        /* \"#utility.yul\":12140:12146   */\n      dup2\n        /* \"#utility.yul\":12137:12167   */\n      gt\n        /* \"#utility.yul\":12134:12190   */\n      iszero\n      tag_253\n      jumpi\n        /* \"#utility.yul\":12170:12188   */\n      tag_254\n      tag_82\n      jump\t// in\n    tag_254:\n        /* \"#utility.yul\":12134:12190   */\n    tag_253:\n        /* \"#utility.yul\":12214:12252   */\n      tag_255\n        /* \"#utility.yul\":12246:12250   */\n      dup3\n        /* \"#utility.yul\":12240:12251   */\n      sload\n        /* \"#utility.yul\":12214:12252   */\n      tag_46\n      jump\t// in\n    tag_255:\n        /* \"#utility.yul\":12299:12366   */\n      tag_256\n        /* \"#utility.yul\":12359:12365   */\n      dup3\n        /* \"#utility.yul\":12351:12357   */\n      dup3\n        /* \"#utility.yul\":12345:12349   */\n      dup6\n        /* \"#utility.yul\":12299:12366   */\n      tag_116\n      jump\t// in\n    tag_256:\n        /* \"#utility.yul\":12393:12394   */\n      0x00\n        /* \"#utility.yul\":12417:12421   */\n      0x20\n        /* \"#utility.yul\":12404:12421   */\n      swap1\n      pop\n        /* \"#utility.yul\":12449:12451   */\n      0x1f\n        /* \"#utility.yul\":12441:12447   */\n      dup4\n        /* \"#utility.yul\":12438:12452   */\n      gt\n        /* \"#utility.yul\":12466:12467   */\n      0x01\n        /* \"#utility.yul\":12461:13079   */\n      dup2\n      eq\n      tag_258\n      jumpi\n        /* \"#utility.yul\":13123:13124   */\n      0x00\n        /* \"#utility.yul\":13140:13146   */\n      dup5\n        /* \"#utility.yul\":13137:13214   */\n      iszero\n      tag_259\n      jumpi\n        /* \"#utility.yul\":13189:13198   */\n      dup3\n        /* \"#utility.yul\":13184:13187   */\n      dup8\n        /* \"#utility.yul\":13180:13199   */\n      add\n        /* \"#utility.yul\":13174:13200   */\n      mload\n        /* \"#utility.yul\":13165:13200   */\n      swap1\n      pop\n        /* \"#utility.yul\":13137:13214   */\n    tag_259:\n        /* \"#utility.yul\":13240:13307   */\n      tag_260\n        /* \"#utility.yul\":13300:13306   */\n      dup6\n        /* \"#utility.yul\":13293:13298   */\n      dup3\n        /* \"#utility.yul\":13240:13307   */\n      tag_119\n      jump\t// in\n    tag_260:\n        /* \"#utility.yul\":13234:13238   */\n      dup7\n        /* \"#utility.yul\":13227:13308   */\n      sstore\n        /* \"#utility.yul\":13096:13318   */\n      pop\n        /* \"#utility.yul\":12431:13318   */\n      jump(tag_257)\n        /* \"#utility.yul\":12461:13079   */\n    tag_258:\n        /* \"#utility.yul\":12513:12517   */\n      0x1f\n        /* \"#utility.yul\":12509:12518   */\n      not\n        /* \"#utility.yul\":12501:12507   */\n      dup5\n        /* \"#utility.yul\":12497:12519   */\n      and\n        /* \"#utility.yul\":12547:12584   */\n      tag_261\n        /* \"#utility.yul\":12579:12583   */\n      dup7\n        /* \"#utility.yul\":12547:12584   */\n      tag_105\n      jump\t// in\n    tag_261:\n        /* \"#utility.yul\":12606:12607   */\n      0x00\n        /* \"#utility.yul\":12620:12828   */\n    tag_262:\n        /* \"#utility.yul\":12634:12641   */\n      dup3\n        /* \"#utility.yul\":12631:12632   */\n      dup2\n        /* \"#utility.yul\":12628:12642   */\n      lt\n        /* \"#utility.yul\":12620:12828   */\n      iszero\n      tag_264\n      jumpi\n        /* \"#utility.yul\":12713:12722   */\n      dup5\n        /* \"#utility.yul\":12708:12711   */\n      dup10\n        /* \"#utility.yul\":12704:12723   */\n      add\n        /* \"#utility.yul\":12698:12724   */\n      mload\n        /* \"#utility.yul\":12690:12696   */\n      dup3\n        /* \"#utility.yul\":12683:12725   */\n      sstore\n        /* \"#utility.yul\":12764:12765   */\n      0x01\n        /* \"#utility.yul\":12756:12762   */\n      dup3\n        /* \"#utility.yul\":12752:12766   */\n      add\n        /* \"#utility.yul\":12742:12766   */\n      swap2\n      pop\n        /* \"#utility.yul\":12811:12813   */\n      0x20\n        /* \"#utility.yul\":12800:12809   */\n      dup6\n        /* \"#utility.yul\":12796:12814   */\n      add\n        /* \"#utility.yul\":12783:12814   */\n      swap5\n      pop\n        /* \"#utility.yul\":12657:12661   */\n      0x20\n        /* \"#utility.yul\":12654:12655   */\n      dup2\n        /* \"#utility.yul\":12650:12662   */\n      add\n        /* \"#utility.yul\":12645:12662   */\n      swap1\n      pop\n        /* \"#utility.yul\":12620:12828   */\n      jump(tag_262)\n    tag_264:\n        /* \"#utility.yul\":12856:12862   */\n      dup7\n        /* \"#utility.yul\":12847:12854   */\n      dup4\n        /* \"#utility.yul\":12844:12863   */\n      lt\n        /* \"#utility.yul\":12841:13020   */\n      iszero\n      tag_265\n      jumpi\n        /* \"#utility.yul\":12914:12923   */\n      dup5\n        /* \"#utility.yul\":12909:12912   */\n      dup10\n        /* \"#utility.yul\":12905:12924   */\n      add\n        /* \"#utility.yul\":12899:12925   */\n      mload\n        /* \"#utility.yul\":12957:13005   */\n      tag_266\n        /* \"#utility.yul\":12999:13003   */\n      0x1f\n        /* \"#utility.yul\":12991:12997   */\n      dup10\n        /* \"#utility.yul\":12987:13004   */\n      and\n        /* \"#utility.yul\":12976:12985   */\n      dup3\n        /* \"#utility.yul\":12957:13005   */\n      tag_118\n      jump\t// in\n    tag_266:\n        /* \"#utility.yul\":12949:12955   */\n      dup4\n        /* \"#utility.yul\":12942:13006   */\n      sstore\n        /* \"#utility.yul\":12864:13020   */\n      pop\n        /* \"#utility.yul\":12841:13020   */\n    tag_265:\n        /* \"#utility.yul\":13066:13067   */\n      0x01\n        /* \"#utility.yul\":13062:13063   */\n      0x02\n        /* \"#utility.yul\":13054:13060   */\n      dup9\n        /* \"#utility.yul\":13050:13064   */\n      mul\n        /* \"#utility.yul\":13046:13068   */\n      add\n        /* \"#utility.yul\":13040:13044   */\n      dup9\n        /* \"#utility.yul\":13033:13069   */\n      sstore\n        /* \"#utility.yul\":12468:13079   */\n      pop\n      pop\n      pop\n        /* \"#utility.yul\":12431:13318   */\n    tag_257:\n      pop\n        /* \"#utility.yul\":12021:13324   */\n      pop\n      pop\n      pop\n        /* \"#utility.yul\":11929:13324   */\n      pop\n      pop\n      jump\t// out\n        /* \"#utility.yul\":13330:13510   */\n    tag_120:\n        /* \"#utility.yul\":13378:13455   */\n      0x4e487b7100000000000000000000000000000000000000000000000000000000\n        /* \"#utility.yul\":13375:13376   */\n      0x00\n        /* \"#utility.yul\":13368:13456   */\n      mstore\n        /* \"#utility.yul\":13475:13479   */\n      0x11\n        /* \"#utility.yul\":13472:13473   */\n      0x04\n        /* \"#utility.yul\":13465:13480   */\n      mstore\n        /* \"#utility.yul\":13499:13503   */\n      0x24\n        /* \"#utility.yul\":13496:13497   */\n      0x00\n        /* \"#utility.yul\":13489:13504   */\n      revert\n        /* \"#utility.yul\":13516:13707   */\n    tag_68:\n        /* \"#utility.yul\":13556:13559   */\n      0x00\n        /* \"#utility.yul\":13575:13595   */\n      tag_269\n        /* \"#utility.yul\":13593:13594   */\n      dup3\n        /* \"#utility.yul\":13575:13595   */\n      tag_97\n      jump\t// in\n    tag_269:\n        /* \"#utility.yul\":13570:13595   */\n      swap2\n      pop\n        /* \"#utility.yul\":13609:13629   */\n      tag_270\n        /* \"#utility.yul\":13627:13628   */\n      dup4\n        /* \"#utility.yul\":13609:13629   */\n      tag_97\n      jump\t// in\n    tag_270:\n        /* \"#utility.yul\":13604:13629   */\n      swap3\n      pop\n        /* \"#utility.yul\":13652:13653   */\n      dup3\n        /* \"#utility.yul\":13649:13650   */\n      dup3\n        /* \"#utility.yul\":13645:13654   */\n      add\n        /* \"#utility.yul\":13638:13654   */\n      swap1\n      pop\n        /* \"#utility.yul\":13673:13676   */\n      dup1\n        /* \"#utility.yul\":13670:13671   */\n      dup3\n        /* \"#utility.yul\":13667:13677   */\n      gt\n        /* \"#utility.yul\":13664:13700   */\n      iszero\n      tag_271\n      jumpi\n        /* \"#utility.yul\":13680:13698   */\n      tag_272\n      tag_120\n      jump\t// in\n    tag_272:\n        /* \"#utility.yul\":13664:13700   */\n    tag_271:\n        /* \"#utility.yul\":13516:13707   */\n      swap3\n      swap2\n      pop\n      pop\n      jump\t// out\n\n    auxdata: 0xa264697066735822122007a484269a8027461903e3a7c4ed9fe3def0747b17fb198fc35c45a7f50a641c64736f6c634300081a0033\n}\n",
				"bytecode": {
					"linkReferences": {},
					"object": "6080604052348015600e575f80fd5b50610fbe8061001c5f395ff3fe608060405234801561000f575f80fd5b5060043610610060575f3560e01c8063096387321461006457806353c025fd1461009457806387e4c821146100c457806398f411dd146100e0578063a9e5db4f146100fc578063f3348c9814610118575b5f80fd5b61007e60048036038101906100799190610978565b610134565b60405161008b9190610a1f565b60405180910390f35b6100ae60048036038101906100a99190610a99565b61022d565b6040516100bb9190610a1f565b60405180910390f35b6100de60048036038101906100d99190610a99565b610426565b005b6100fa60048036038101906100f59190610ac4565b610570565b005b61011660048036038101906101119190610ac4565b6106be565b005b610132600480360381019061012d9190610b51565b610747565b005b6060338073ffffffffffffffffffffffffffffffffffffffff163373ffffffffffffffffffffffffffffffffffffffff1614806101e857504260015f8373ffffffffffffffffffffffffffffffffffffffff1673ffffffffffffffffffffffffffffffffffffffff1681526020019081526020015f205f3373ffffffffffffffffffffffffffffffffffffffff1673ffffffffffffffffffffffffffffffffffffffff1681526020019081526020015f2054115b610227576040517f08c379a000000000000000000000000000000000000000000000000000000000815260040161021e90610bd9565b60405180910390fd5b50919050565b6060338073ffffffffffffffffffffffffffffffffffffffff163373ffffffffffffffffffffffffffffffffffffffff1614806102e157504260015f8373ffffffffffffffffffffffffffffffffffffffff1673ffffffffffffffffffffffffffffffffffffffff1681526020019081526020015f205f3373ffffffffffffffffffffffffffffffffffffffff1673ffffffffffffffffffffffffffffffffffffffff1681526020019081526020015f2054115b610320576040517f08c379a000000000000000000000000000000000000000000000000000000000815260040161031790610bd9565b60405180910390fd5b5f803373ffffffffffffffffffffffffffffffffffffffff1673ffffffffffffffffffffffffffffffffffffffff1681526020019081526020015f205f8473ffffffffffffffffffffffffffffffffffffffff1673ffffffffffffffffffffffffffffffffffffffff1681526020019081526020015f2080546103a290610c24565b80601f01602080910402602001604051908101604052809291908181526020018280546103ce90610c24565b80156104195780601f106103f057610100808354040283529160200191610419565b820191905f5260205f20905b8154815290600101906020018083116103fc57829003601f168201915b5050505050915050919050565b5f805f3373ffffffffffffffffffffffffffffffffffffffff1673ffffffffffffffffffffffffffffffffffffffff1681526020019081526020015f205f8373ffffffffffffffffffffffffffffffffffffffff1673ffffffffffffffffffffffffffffffffffffffff1681526020019081526020015f2080546104a990610c24565b9050036104eb576040517f08c379a00000000000000000000000000000000000000000000000000000000081526004016104e290610c9e565b60405180910390fd5b5f803373ffffffffffffffffffffffffffffffffffffffff1673ffffffffffffffffffffffffffffffffffffffff1681526020019081526020015f205f8273ffffffffffffffffffffffffffffffffffffffff1673ffffffffffffffffffffffffffffffffffffffff1681526020019081526020015f205f61056d91906107d3565b50565b5f805f3373ffffffffffffffffffffffffffffffffffffffff1673ffffffffffffffffffffffffffffffffffffffff1681526020019081526020015f205f8473ffffffffffffffffffffffffffffffffffffffff1673ffffffffffffffffffffffffffffffffffffffff1681526020019081526020015f2080546105f390610c24565b905003610635576040517f08c379a000000000000000000000000000000000000000000000000000000000815260040161062c90610c9e565b60405180910390fd5b805f803373ffffffffffffffffffffffffffffffffffffffff1673ffffffffffffffffffffffffffffffffffffffff1681526020019081526020015f205f8473ffffffffffffffffffffffffffffffffffffffff1673ffffffffffffffffffffffffffffffffffffffff1681526020019081526020015f2090816106b99190610e59565b505050565b805f803373ffffffffffffffffffffffffffffffffffffffff1673ffffffffffffffffffffffffffffffffffffffff1681526020019081526020015f205f8473ffffffffffffffffffffffffffffffffffffffff1673ffffffffffffffffffffffffffffffffffffffff1681526020019081526020015f2090816107429190610e59565b505050565b80426107539190610f55565b60015f3373ffffffffffffffffffffffffffffffffffffffff1673ffffffffffffffffffffffffffffffffffffffff1681526020019081526020015f205f8473ffffffffffffffffffffffffffffffffffffffff1673ffffffffffffffffffffffffffffffffffffffff1681526020019081526020015f20819055505050565b5080546107df90610c24565b5f825580601f106107f0575061080d565b601f0160209004905f5260205f209081019061080c9190610810565b5b50565b5b80821115610827575f815f905550600101610811565b5090565b5f604051905090565b5f80fd5b5f80fd5b5f80fd5b5f80fd5b5f601f19601f8301169050919050565b7f4e487b71000000000000000000000000000000000000000000000000000000005f52604160045260245ffd5b61088a82610844565b810181811067ffffffffffffffff821117156108a9576108a8610854565b5b80604052505050565b5f6108bb61082b565b90506108c78282610881565b919050565b5f67ffffffffffffffff8211156108e6576108e5610854565b5b6108ef82610844565b9050602081019050919050565b828183375f83830152505050565b5f61091c610917846108cc565b6108b2565b90508281526020810184848401111561093857610937610840565b5b6109438482856108fc565b509392505050565b5f82601f83011261095f5761095e61083c565b5b813561096f84826020860161090a565b91505092915050565b5f6020828403121561098d5761098c610834565b5b5f82013567ffffffffffffffff8111156109aa576109a9610838565b5b6109b68482850161094b565b91505092915050565b5f81519050919050565b5f82825260208201905092915050565b8281835e5f83830152505050565b5f6109f1826109bf565b6109fb81856109c9565b9350610a0b8185602086016109d9565b610a1481610844565b840191505092915050565b5f6020820190508181035f830152610a3781846109e7565b905092915050565b5f73ffffffffffffffffffffffffffffffffffffffff82169050919050565b5f610a6882610a3f565b9050919050565b610a7881610a5e565b8114610a82575f80fd5b50565b5f81359050610a9381610a6f565b92915050565b5f60208284031215610aae57610aad610834565b5b5f610abb84828501610a85565b91505092915050565b5f8060408385031215610ada57610ad9610834565b5b5f610ae785828601610a85565b925050602083013567ffffffffffffffff811115610b0857610b07610838565b5b610b148582860161094b565b9150509250929050565b5f819050919050565b610b3081610b1e565b8114610b3a575f80fd5b50565b5f81359050610b4b81610b27565b92915050565b5f8060408385031215610b6757610b66610834565b5b5f610b7485828601610a85565b9250506020610b8585828601610b3d565b9150509250929050565b7f4e6f2072656164206163636573730000000000000000000000000000000000005f82015250565b5f610bc3600e836109c9565b9150610bce82610b8f565b602082019050919050565b5f6020820190508181035f830152610bf081610bb7565b9050919050565b7f4e487b71000000000000000000000000000000000000000000000000000000005f52602260045260245ffd5b5f6002820490506001821680610c3b57607f821691505b602082108103610c4e57610c4d610bf7565b5b50919050565b7f436f6e7461637420646f6573206e6f74206578697374000000000000000000005f82015250565b5f610c886016836109c9565b9150610c9382610c54565b602082019050919050565b5f6020820190508181035f830152610cb581610c7c565b9050919050565b5f819050815f5260205f209050919050565b5f6020601f8301049050919050565b5f82821b905092915050565b5f60088302610d187fffffffffffffffffffffffffffffffffffffffffffffffffffffffffffffffff82610cdd565b610d228683610cdd565b95508019841693508086168417925050509392505050565b5f819050919050565b5f610d5d610d58610d5384610b1e565b610d3a565b610b1e565b9050919050565b5f819050919050565b610d7683610d43565b610d8a610d8282610d64565b848454610ce9565b825550505050565b5f90565b610d9e610d92565b610da9818484610d6d565b505050565b5b81811015610dcc57610dc15f82610d96565b600181019050610daf565b5050565b601f821115610e1157610de281610cbc565b610deb84610cce565b81016020851015610dfa578190505b610e0e610e0685610cce565b830182610dae565b50505b505050565b5f82821c905092915050565b5f610e315f1984600802610e16565b1980831691505092915050565b5f610e498383610e22565b9150826002028217905092915050565b610e62826109bf565b67ffffffffffffffff811115610e7b57610e7a610854565b5b610e858254610c24565b610e90828285610dd0565b5f60209050601f831160018114610ec1575f8415610eaf578287015190505b610eb98582610e3e565b865550610f20565b601f198416610ecf86610cbc565b5f5b82811015610ef657848901518255600182019150602085019450602081019050610ed1565b86831015610f135784890151610f0f601f891682610e22565b8355505b6001600288020188555050505b505050505050565b7f4e487b71000000000000000000000000000000000000000000000000000000005f52601160045260245ffd5b5f610f5f82610b1e565b9150610f6a83610b1e565b9250828201905080821115610f8257610f81610f28565b5b9291505056fea264697066735822122007a484269a8027461903e3a7c4ed9fe3def0747b17fb198fc35c45a7f50a641c64736f6c634300081a0033",
					"opcodes": "PUSH1 0x80 PUSH1 0x40 MSTORE CALLVALUE DUP1 ISZERO PUSH1 0xE JUMPI PUSH0 DUP1 REVERT JUMPDEST POP PUSH2 0xFBE DUP1 PUSH2 0x1C PUSH0 CODECOPY PUSH0 RETURN INVALID PUSH1 0x80 PUSH1 0x40 MSTORE CALLVALUE DUP1 ISZERO PUSH2 0xF JUMPI PUSH0 DUP1 REVERT JUMPDEST POP PUSH1 0x4 CALLDATASIZE LT PUSH2 0x60 JUMPI PUSH0 CALLDATALOAD PUSH1 0xE0 SHR DUP1 PUSH4 0x9638732 EQ PUSH2 0x64 JUMPI DUP1 PUSH4 0x53C025FD EQ PUSH2 0x94 JUMPI DUP1 PUSH4 0x87E4C821 EQ PUSH2 0xC4 JUMPI DUP1 PUSH4 0x98F411DD EQ PUSH2 0xE0 JUMPI DUP1 PUSH4 0xA9E5DB4F EQ PUSH2 0xFC JUMPI DUP1 PUSH4 0xF3348C98 EQ PUSH2 0x118 JUMPI JUMPDEST PUSH0 DUP1 REVERT JUMPDEST PUSH2 0x7E PUSH1 0x4 DUP1 CALLDATASIZE SUB DUP2 ADD SWAP1 PUSH2 0x79 SWAP2 SWAP1 PUSH2 0x978 JUMP JUMPDEST PUSH2 0x134 JUMP JUMPDEST PUSH1 0x40 MLOAD PUSH2 0x8B SWAP2 SWAP1 PUSH2 0xA1F JUMP JUMPDEST PUSH1 0x40 MLOAD DUP1 SWAP2 SUB SWAP1 RETURN JUMPDEST PUSH2 0xAE PUSH1 0x4 DUP1 CALLDATASIZE SUB DUP2 ADD SWAP1 PUSH2 0xA9 SWAP2 SWAP1 PUSH2 0xA99 JUMP JUMPDEST PUSH2 0x22D JUMP JUMPDEST PUSH1 0x40 MLOAD PUSH2 0xBB SWAP2 SWAP1 PUSH2 0xA1F JUMP JUMPDEST PUSH1 0x40 MLOAD DUP1 SWAP2 SUB SWAP1 RETURN JUMPDEST PUSH2 0xDE PUSH1 0x4 DUP1 CALLDATASIZE SUB DUP2 ADD SWAP1 PUSH2 0xD9 SWAP2 SWAP1 PUSH2 0xA99 JUMP JUMPDEST PUSH2 0x426 JUMP JUMPDEST STOP JUMPDEST PUSH2 0xFA PUSH1 0x4 DUP1 CALLDATASIZE SUB DUP2 ADD SWAP1 PUSH2 0xF5 SWAP2 SWAP1 PUSH2 0xAC4 JUMP JUMPDEST PUSH2 0x570 JUMP JUMPDEST STOP JUMPDEST PUSH2 0x116 PUSH1 0x4 DUP1 CALLDATASIZE SUB DUP2 ADD SWAP1 PUSH2 0x111 SWAP2 SWAP1 PUSH2 0xAC4 JUMP JUMPDEST PUSH2 0x6BE JUMP JUMPDEST STOP JUMPDEST PUSH2 0x132 PUSH1 0x4 DUP1 CALLDATASIZE SUB DUP2 ADD SWAP1 PUSH2 0x12D SWAP2 SWAP1 PUSH2 0xB51 JUMP JUMPDEST PUSH2 0x747 JUMP JUMPDEST STOP JUMPDEST PUSH1 0x60 CALLER DUP1 PUSH20 0xFFFFFFFFFFFFFFFFFFFFFFFFFFFFFFFFFFFFFFFF AND CALLER PUSH20 0xFFFFFFFFFFFFFFFFFFFFFFFFFFFFFFFFFFFFFFFF AND EQ DUP1 PUSH2 0x1E8 JUMPI POP TIMESTAMP PUSH1 0x1 PUSH0 DUP4 PUSH20 0xFFFFFFFFFFFFFFFFFFFFFFFFFFFFFFFFFFFFFFFF AND PUSH20 0xFFFFFFFFFFFFFFFFFFFFFFFFFFFFFFFFFFFFFFFF AND DUP2 MSTORE PUSH1 0x20 ADD SWAP1 DUP2 MSTORE PUSH1 0x20 ADD PUSH0 KECCAK256 PUSH0 CALLER PUSH20 0xFFFFFFFFFFFFFFFFFFFFFFFFFFFFFFFFFFFFFFFF AND PUSH20 0xFFFFFFFFFFFFFFFFFFFFFFFFFFFFFFFFFFFFFFFF AND DUP2 MSTORE PUSH1 0x20 ADD SWAP1 DUP2 MSTORE PUSH1 0x20 ADD PUSH0 KECCAK256 SLOAD GT JUMPDEST PUSH2 0x227 JUMPI PUSH1 0x40 MLOAD PUSH32 0x8C379A000000000000000000000000000000000000000000000000000000000 DUP2 MSTORE PUSH1 0x4 ADD PUSH2 0x21E SWAP1 PUSH2 0xBD9 JUMP JUMPDEST PUSH1 0x40 MLOAD DUP1 SWAP2 SUB SWAP1 REVERT JUMPDEST POP SWAP2 SWAP1 POP JUMP JUMPDEST PUSH1 0x60 CALLER DUP1 PUSH20 0xFFFFFFFFFFFFFFFFFFFFFFFFFFFFFFFFFFFFFFFF AND CALLER PUSH20 0xFFFFFFFFFFFFFFFFFFFFFFFFFFFFFFFFFFFFFFFF AND EQ DUP1 PUSH2 0x2E1 JUMPI POP TIMESTAMP PUSH1 0x1 PUSH0 DUP4 PUSH20 0xFFFFFFFFFFFFFFFFFFFFFFFFFFFFFFFFFFFFFFFF AND PUSH20 0xFFFFFFFFFFFFFFFFFFFFFFFFFFFFFFFFFFFFFFFF AND DUP2 MSTORE PUSH1 0x20 ADD SWAP1 DUP2 MSTORE PUSH1 0x20 ADD PUSH0 KECCAK256 PUSH0 CALLER PUSH20 0xFFFFFFFFFFFFFFFFFFFFFFFFFFFFFFFFFFFFFFFF AND PUSH20 0xFFFFFFFFFFFFFFFFFFFFFFFFFFFFFFFFFFFFFFFF AND DUP2 MSTORE PUSH1 0x20 ADD SWAP1 DUP2 MSTORE PUSH1 0x20 ADD PUSH0 KECCAK256 SLOAD GT JUMPDEST PUSH2 0x320 JUMPI PUSH1 0x40 MLOAD PUSH32 0x8C379A000000000000000000000000000000000000000000000000000000000 DUP2 MSTORE PUSH1 0x4 ADD PUSH2 0x317 SWAP1 PUSH2 0xBD9 JUMP JUMPDEST PUSH1 0x40 MLOAD DUP1 SWAP2 SUB SWAP1 REVERT JUMPDEST PUSH0 DUP1 CALLER PUSH20 0xFFFFFFFFFFFFFFFFFFFFFFFFFFFFFFFFFFFFFFFF AND PUSH20 0xFFFFFFFFFFFFFFFFFFFFFFFFFFFFFFFFFFFFFFFF AND DUP2 MSTORE PUSH1 0x20 ADD SWAP1 DUP2 MSTORE PUSH1 0x20 ADD PUSH0 KECCAK256 PUSH0 DUP5 PUSH20 0xFFFFFFFFFFFFFFFFFFFFFFFFFFFFFFFFFFFFFFFF AND PUSH20 0xFFFFFFFFFFFFFFFFFFFFFFFFFFFFFFFFFFFFFFFF AND DUP2 MSTORE PUSH1 0x20 ADD SWAP1 DUP2 MSTORE PUSH1 0x20 ADD PUSH0 KECCAK256 DUP1 SLOAD PUSH2 0x3A2 SWAP1 PUSH2 0xC24 JUMP JUMPDEST DUP1 PUSH1 0x1F ADD PUSH1 0x20 DUP1 SWAP2 DIV MUL PUSH1 0x20 ADD PUSH1 0x40 MLOAD SWAP1 DUP2 ADD PUSH1 0x40 MSTORE DUP1 SWAP3 SWAP2 SWAP1 DUP2 DUP2 MSTORE PUSH1 0x20 ADD DUP3 DUP1 SLOAD PUSH2 0x3CE SWAP1 PUSH2 0xC24 JUMP JUMPDEST DUP1 ISZERO PUSH2 0x419 JUMPI DUP1 PUSH1 0x1F LT PUSH2 0x3F0 JUMPI PUSH2 0x100 DUP1 DUP4 SLOAD DIV MUL DUP4 MSTORE SWAP2 PUSH1 0x20 ADD SWAP2 PUSH2 0x419 JUMP JUMPDEST DUP3 ADD SWAP2 SWAP1 PUSH0 MSTORE PUSH1 0x20 PUSH0 KECCAK256 SWAP1 JUMPDEST DUP2 SLOAD DUP2 MSTORE SWAP1 PUSH1 0x1 ADD SWAP1 PUSH1 0x20 ADD DUP1 DUP4 GT PUSH2 0x3FC JUMPI DUP3 SWAP1 SUB PUSH1 0x1F AND DUP3 ADD SWAP2 JUMPDEST POP POP POP POP POP SWAP2 POP POP SWAP2 SWAP1 POP JUMP JUMPDEST PUSH0 DUP1 PUSH0 CALLER PUSH20 0xFFFFFFFFFFFFFFFFFFFFFFFFFFFFFFFFFFFFFFFF AND PUSH20 0xFFFFFFFFFFFFFFFFFFFFFFFFFFFFFFFFFFFFFFFF AND DUP2 MSTORE PUSH1 0x20 ADD SWAP1 DUP2 MSTORE PUSH1 0x20 ADD PUSH0 KECCAK256 PUSH0 DUP4 PUSH20 0xFFFFFFFFFFFFFFFFFFFFFFFFFFFFFFFFFFFFFFFF AND PUSH20 0xFFFFFFFFFFFFFFFFFFFFFFFFFFFFFFFFFFFFFFFF AND DUP2 MSTORE PUSH1 0x20 ADD SWAP1 DUP2 MSTORE PUSH1 0x20 ADD PUSH0 KECCAK256 DUP1 SLOAD PUSH2 0x4A9 SWAP1 PUSH2 0xC24 JUMP JUMPDEST SWAP1 POP SUB PUSH2 0x4EB JUMPI PUSH1 0x40 MLOAD PUSH32 0x8C379A000000000000000000000000000000000000000000000000000000000 DUP2 MSTORE PUSH1 0x4 ADD PUSH2 0x4E2 SWAP1 PUSH2 0xC9E JUMP JUMPDEST PUSH1 0x40 MLOAD DUP1 SWAP2 SUB SWAP1 REVERT JUMPDEST PUSH0 DUP1 CALLER PUSH20 0xFFFFFFFFFFFFFFFFFFFFFFFFFFFFFFFFFFFFFFFF AND PUSH20 0xFFFFFFFFFFFFFFFFFFFFFFFFFFFFFFFFFFFFFFFF AND DUP2 MSTORE PUSH1 0x20 ADD SWAP1 DUP2 MSTORE PUSH1 0x20 ADD PUSH0 KECCAK256 PUSH0 DUP3 PUSH20 0xFFFFFFFFFFFFFFFFFFFFFFFFFFFFFFFFFFFFFFFF AND PUSH20 0xFFFFFFFFFFFFFFFFFFFFFFFFFFFFFFFFFFFFFFFF AND DUP2 MSTORE PUSH1 0x20 ADD SWAP1 DUP2 MSTORE PUSH1 0x20 ADD PUSH0 KECCAK256 PUSH0 PUSH2 0x56D SWAP2 SWAP1 PUSH2 0x7D3 JUMP JUMPDEST POP JUMP JUMPDEST PUSH0 DUP1 PUSH0 CALLER PUSH20 0xFFFFFFFFFFFFFFFFFFFFFFFFFFFFFFFFFFFFFFFF AND PUSH20 0xFFFFFFFFFFFFFFFFFFFFFFFFFFFFFFFFFFFFFFFF AND DUP2 MSTORE PUSH1 0x20 ADD SWAP1 DUP2 MSTORE PUSH1 0x20 ADD PUSH0 KECCAK256 PUSH0 DUP5 PUSH20 0xFFFFFFFFFFFFFFFFFFFFFFFFFFFFFFFFFFFFFFFF AND PUSH20 0xFFFFFFFFFFFFFFFFFFFFFFFFFFFFFFFFFFFFFFFF AND DUP2 MSTORE PUSH1 0x20 ADD SWAP1 DUP2 MSTORE PUSH1 0x20 ADD PUSH0 KECCAK256 DUP1 SLOAD PUSH2 0x5F3 SWAP1 PUSH2 0xC24 JUMP JUMPDEST SWAP1 POP SUB PUSH2 0x635 JUMPI PUSH1 0x40 MLOAD PUSH32 0x8C379A000000000000000000000000000000000000000000000000000000000 DUP2 MSTORE PUSH1 0x4 ADD PUSH2 0x62C SWAP1 PUSH2 0xC9E JUMP JUMPDEST PUSH1 0x40 MLOAD DUP1 SWAP2 SUB SWAP1 REVERT JUMPDEST DUP1 PUSH0 DUP1 CALLER PUSH20 0xFFFFFFFFFFFFFFFFFFFFFFFFFFFFFFFFFFFFFFFF AND PUSH20 0xFFFFFFFFFFFFFFFFFFFFFFFFFFFFFFFFFFFFFFFF AND DUP2 MSTORE PUSH1 0x20 ADD SWAP1 DUP2 MSTORE PUSH1 0x20 ADD PUSH0 KECCAK256 PUSH0 DUP5 PUSH20 0xFFFFFFFFFFFFFFFFFFFFFFFFFFFFFFFFFFFFFFFF AND PUSH20 0xFFFFFFFFFFFFFFFFFFFFFFFFFFFFFFFFFFFFFFFF AND DUP2 MSTORE PUSH1 0x20 ADD SWAP1 DUP2 MSTORE PUSH1 0x20 ADD PUSH0 KECCAK256 SWAP1 DUP2 PUSH2 0x6B9 SWAP2 SWAP1 PUSH2 0xE59 JUMP JUMPDEST POP POP POP JUMP JUMPDEST DUP1 PUSH0 DUP1 CALLER PUSH20 0xFFFFFFFFFFFFFFFFFFFFFFFFFFFFFFFFFFFFFFFF AND PUSH20 0xFFFFFFFFFFFFFFFFFFFFFFFFFFFFFFFFFFFFFFFF AND DUP2 MSTORE PUSH1 0x20 ADD SWAP1 DUP2 MSTORE PUSH1 0x20 ADD PUSH0 KECCAK256 PUSH0 DUP5 PUSH20 0xFFFFFFFFFFFFFFFFFFFFFFFFFFFFFFFFFFFFFFFF AND PUSH20 0xFFFFFFFFFFFFFFFFFFFFFFFFFFFFFFFFFFFFFFFF AND DUP2 MSTORE PUSH1 0x20 ADD SWAP1 DUP2 MSTORE PUSH1 0x20 ADD PUSH0 KECCAK256 SWAP1 DUP2 PUSH2 0x742 SWAP2 SWAP1 PUSH2 0xE59 JUMP JUMPDEST POP POP POP JUMP JUMPDEST DUP1 TIMESTAMP PUSH2 0x753 SWAP2 SWAP1 PUSH2 0xF55 JUMP JUMPDEST PUSH1 0x1 PUSH0 CALLER PUSH20 0xFFFFFFFFFFFFFFFFFFFFFFFFFFFFFFFFFFFFFFFF AND PUSH20 0xFFFFFFFFFFFFFFFFFFFFFFFFFFFFFFFFFFFFFFFF AND DUP2 MSTORE PUSH1 0x20 ADD SWAP1 DUP2 MSTORE PUSH1 0x20 ADD PUSH0 KECCAK256 PUSH0 DUP5 PUSH20 0xFFFFFFFFFFFFFFFFFFFFFFFFFFFFFFFFFFFFFFFF AND PUSH20 0xFFFFFFFFFFFFFFFFFFFFFFFFFFFFFFFFFFFFFFFF AND DUP2 MSTORE PUSH1 0x20 ADD SWAP1 DUP2 MSTORE PUSH1 0x20 ADD PUSH0 KECCAK256 DUP2 SWAP1 SSTORE POP POP POP JUMP JUMPDEST POP DUP1 SLOAD PUSH2 0x7DF SWAP1 PUSH2 0xC24 JUMP JUMPDEST PUSH0 DUP3 SSTORE DUP1 PUSH1 0x1F LT PUSH2 0x7F0 JUMPI POP PUSH2 0x80D JUMP JUMPDEST PUSH1 0x1F ADD PUSH1 0x20 SWAP1 DIV SWAP1 PUSH0 MSTORE PUSH1 0x20 PUSH0 KECCAK256 SWAP1 DUP2 ADD SWAP1 PUSH2 0x80C SWAP2 SWAP1 PUSH2 0x810 JUMP JUMPDEST JUMPDEST POP JUMP JUMPDEST JUMPDEST DUP1 DUP3 GT ISZERO PUSH2 0x827 JUMPI PUSH0 DUP2 PUSH0 SWAP1 SSTORE POP PUSH1 0x1 ADD PUSH2 0x811 JUMP JUMPDEST POP SWAP1 JUMP JUMPDEST PUSH0 PUSH1 0x40 MLOAD SWAP1 POP SWAP1 JUMP JUMPDEST PUSH0 DUP1 REVERT JUMPDEST PUSH0 DUP1 REVERT JUMPDEST PUSH0 DUP1 REVERT JUMPDEST PUSH0 DUP1 REVERT JUMPDEST PUSH0 PUSH1 0x1F NOT PUSH1 0x1F DUP4 ADD AND SWAP1 POP SWAP2 SWAP1 POP JUMP JUMPDEST PUSH32 0x4E487B7100000000000000000000000000000000000000000000000000000000 PUSH0 MSTORE PUSH1 0x41 PUSH1 0x4 MSTORE PUSH1 0x24 PUSH0 REVERT JUMPDEST PUSH2 0x88A DUP3 PUSH2 0x844 JUMP JUMPDEST DUP2 ADD DUP2 DUP2 LT PUSH8 0xFFFFFFFFFFFFFFFF DUP3 GT OR ISZERO PUSH2 0x8A9 JUMPI PUSH2 0x8A8 PUSH2 0x854 JUMP JUMPDEST JUMPDEST DUP1 PUSH1 0x40 MSTORE POP POP POP JUMP JUMPDEST PUSH0 PUSH2 0x8BB PUSH2 0x82B JUMP JUMPDEST SWAP1 POP PUSH2 0x8C7 DUP3 DUP3 PUSH2 0x881 JUMP JUMPDEST SWAP2 SWAP1 POP JUMP JUMPDEST PUSH0 PUSH8 0xFFFFFFFFFFFFFFFF DUP3 GT ISZERO PUSH2 0x8E6 JUMPI PUSH2 0x8E5 PUSH2 0x854 JUMP JUMPDEST JUMPDEST PUSH2 0x8EF DUP3 PUSH2 0x844 JUMP JUMPDEST SWAP1 POP PUSH1 0x20 DUP2 ADD SWAP1 POP SWAP2 SWAP1 POP JUMP JUMPDEST DUP3 DUP2 DUP4 CALLDATACOPY PUSH0 DUP4 DUP4 ADD MSTORE POP POP POP JUMP JUMPDEST PUSH0 PUSH2 0x91C PUSH2 0x917 DUP5 PUSH2 0x8CC JUMP JUMPDEST PUSH2 0x8B2 JUMP JUMPDEST SWAP1 POP DUP3 DUP2 MSTORE PUSH1 0x20 DUP2 ADD DUP5 DUP5 DUP5 ADD GT ISZERO PUSH2 0x938 JUMPI PUSH2 0x937 PUSH2 0x840 JUMP JUMPDEST JUMPDEST PUSH2 0x943 DUP5 DUP3 DUP6 PUSH2 0x8FC JUMP JUMPDEST POP SWAP4 SWAP3 POP POP POP JUMP JUMPDEST PUSH0 DUP3 PUSH1 0x1F DUP4 ADD SLT PUSH2 0x95F JUMPI PUSH2 0x95E PUSH2 0x83C JUMP JUMPDEST JUMPDEST DUP2 CALLDATALOAD PUSH2 0x96F DUP5 DUP3 PUSH1 0x20 DUP7 ADD PUSH2 0x90A JUMP JUMPDEST SWAP2 POP POP SWAP3 SWAP2 POP POP JUMP JUMPDEST PUSH0 PUSH1 0x20 DUP3 DUP5 SUB SLT ISZERO PUSH2 0x98D JUMPI PUSH2 0x98C PUSH2 0x834 JUMP JUMPDEST JUMPDEST PUSH0 DUP3 ADD CALLDATALOAD PUSH8 0xFFFFFFFFFFFFFFFF DUP2 GT ISZERO PUSH2 0x9AA JUMPI PUSH2 0x9A9 PUSH2 0x838 JUMP JUMPDEST JUMPDEST PUSH2 0x9B6 DUP5 DUP3 DUP6 ADD PUSH2 0x94B JUMP JUMPDEST SWAP2 POP POP SWAP3 SWAP2 POP POP JUMP JUMPDEST PUSH0 DUP2 MLOAD SWAP1 POP SWAP2 SWAP1 POP JUMP JUMPDEST PUSH0 DUP3 DUP3 MSTORE PUSH1 0x20 DUP3 ADD SWAP1 POP SWAP3 SWAP2 POP POP JUMP JUMPDEST DUP3 DUP2 DUP4 MCOPY PUSH0 DUP4 DUP4 ADD MSTORE POP POP POP JUMP JUMPDEST PUSH0 PUSH2 0x9F1 DUP3 PUSH2 0x9BF JUMP JUMPDEST PUSH2 0x9FB DUP2 DUP6 PUSH2 0x9C9 JUMP JUMPDEST SWAP4 POP PUSH2 0xA0B DUP2 DUP6 PUSH1 0x20 DUP7 ADD PUSH2 0x9D9 JUMP JUMPDEST PUSH2 0xA14 DUP2 PUSH2 0x844 JUMP JUMPDEST DUP5 ADD SWAP2 POP POP SWAP3 SWAP2 POP POP JUMP JUMPDEST PUSH0 PUSH1 0x20 DUP3 ADD SWAP1 POP DUP2 DUP2 SUB PUSH0 DUP4 ADD MSTORE PUSH2 0xA37 DUP2 DUP5 PUSH2 0x9E7 JUMP JUMPDEST SWAP1 POP SWAP3 SWAP2 POP POP JUMP JUMPDEST PUSH0 PUSH20 0xFFFFFFFFFFFFFFFFFFFFFFFFFFFFFFFFFFFFFFFF DUP3 AND SWAP1 POP SWAP2 SWAP1 POP JUMP JUMPDEST PUSH0 PUSH2 0xA68 DUP3 PUSH2 0xA3F JUMP JUMPDEST SWAP1 POP SWAP2 SWAP1 POP JUMP JUMPDEST PUSH2 0xA78 DUP2 PUSH2 0xA5E JUMP JUMPDEST DUP2 EQ PUSH2 0xA82 JUMPI PUSH0 DUP1 REVERT JUMPDEST POP JUMP JUMPDEST PUSH0 DUP2 CALLDATALOAD SWAP1 POP PUSH2 0xA93 DUP2 PUSH2 0xA6F JUMP JUMPDEST SWAP3 SWAP2 POP POP JUMP JUMPDEST PUSH0 PUSH1 0x20 DUP3 DUP5 SUB SLT ISZERO PUSH2 0xAAE JUMPI PUSH2 0xAAD PUSH2 0x834 JUMP JUMPDEST JUMPDEST PUSH0 PUSH2 0xABB DUP5 DUP3 DUP6 ADD PUSH2 0xA85 JUMP JUMPDEST SWAP2 POP POP SWAP3 SWAP2 POP POP JUMP JUMPDEST PUSH0 DUP1 PUSH1 0x40 DUP4 DUP6 SUB SLT ISZERO PUSH2 0xADA JUMPI PUSH2 0xAD9 PUSH2 0x834 JUMP JUMPDEST JUMPDEST PUSH0 PUSH2 0xAE7 DUP6 DUP3 DUP7 ADD PUSH2 0xA85 JUMP JUMPDEST SWAP3 POP POP PUSH1 0x20 DUP4 ADD CALLDATALOAD PUSH8 0xFFFFFFFFFFFFFFFF DUP2 GT ISZERO PUSH2 0xB08 JUMPI PUSH2 0xB07 PUSH2 0x838 JUMP JUMPDEST JUMPDEST PUSH2 0xB14 DUP6 DUP3 DUP7 ADD PUSH2 0x94B JUMP JUMPDEST SWAP2 POP POP SWAP3 POP SWAP3 SWAP1 POP JUMP JUMPDEST PUSH0 DUP2 SWAP1 POP SWAP2 SWAP1 POP JUMP JUMPDEST PUSH2 0xB30 DUP2 PUSH2 0xB1E JUMP JUMPDEST DUP2 EQ PUSH2 0xB3A JUMPI PUSH0 DUP1 REVERT JUMPDEST POP JUMP JUMPDEST PUSH0 DUP2 CALLDATALOAD SWAP1 POP PUSH2 0xB4B DUP2 PUSH2 0xB27 JUMP JUMPDEST SWAP3 SWAP2 POP POP JUMP JUMPDEST PUSH0 DUP1 PUSH1 0x40 DUP4 DUP6 SUB SLT ISZERO PUSH2 0xB67 JUMPI PUSH2 0xB66 PUSH2 0x834 JUMP JUMPDEST JUMPDEST PUSH0 PUSH2 0xB74 DUP6 DUP3 DUP7 ADD PUSH2 0xA85 JUMP JUMPDEST SWAP3 POP POP PUSH1 0x20 PUSH2 0xB85 DUP6 DUP3 DUP7 ADD PUSH2 0xB3D JUMP JUMPDEST SWAP2 POP POP SWAP3 POP SWAP3 SWAP1 POP JUMP JUMPDEST PUSH32 0x4E6F207265616420616363657373000000000000000000000000000000000000 PUSH0 DUP3 ADD MSTORE POP JUMP JUMPDEST PUSH0 PUSH2 0xBC3 PUSH1 0xE DUP4 PUSH2 0x9C9 JUMP JUMPDEST SWAP2 POP PUSH2 0xBCE DUP3 PUSH2 0xB8F JUMP JUMPDEST PUSH1 0x20 DUP3 ADD SWAP1 POP SWAP2 SWAP1 POP JUMP JUMPDEST PUSH0 PUSH1 0x20 DUP3 ADD SWAP1 POP DUP2 DUP2 SUB PUSH0 DUP4 ADD MSTORE PUSH2 0xBF0 DUP2 PUSH2 0xBB7 JUMP JUMPDEST SWAP1 POP SWAP2 SWAP1 POP JUMP JUMPDEST PUSH32 0x4E487B7100000000000000000000000000000000000000000000000000000000 PUSH0 MSTORE PUSH1 0x22 PUSH1 0x4 MSTORE PUSH1 0x24 PUSH0 REVERT JUMPDEST PUSH0 PUSH1 0x2 DUP3 DIV SWAP1 POP PUSH1 0x1 DUP3 AND DUP1 PUSH2 0xC3B JUMPI PUSH1 0x7F DUP3 AND SWAP2 POP JUMPDEST PUSH1 0x20 DUP3 LT DUP2 SUB PUSH2 0xC4E JUMPI PUSH2 0xC4D PUSH2 0xBF7 JUMP JUMPDEST JUMPDEST POP SWAP2 SWAP1 POP JUMP JUMPDEST PUSH32 0x436F6E7461637420646F6573206E6F7420657869737400000000000000000000 PUSH0 DUP3 ADD MSTORE POP JUMP JUMPDEST PUSH0 PUSH2 0xC88 PUSH1 0x16 DUP4 PUSH2 0x9C9 JUMP JUMPDEST SWAP2 POP PUSH2 0xC93 DUP3 PUSH2 0xC54 JUMP JUMPDEST PUSH1 0x20 DUP3 ADD SWAP1 POP SWAP2 SWAP1 POP JUMP JUMPDEST PUSH0 PUSH1 0x20 DUP3 ADD SWAP1 POP DUP2 DUP2 SUB PUSH0 DUP4 ADD MSTORE PUSH2 0xCB5 DUP2 PUSH2 0xC7C JUMP JUMPDEST SWAP1 POP SWAP2 SWAP1 POP JUMP JUMPDEST PUSH0 DUP2 SWAP1 POP DUP2 PUSH0 MSTORE PUSH1 0x20 PUSH0 KECCAK256 SWAP1 POP SWAP2 SWAP1 POP JUMP JUMPDEST PUSH0 PUSH1 0x20 PUSH1 0x1F DUP4 ADD DIV SWAP1 POP SWAP2 SWAP1 POP JUMP JUMPDEST PUSH0 DUP3 DUP3 SHL SWAP1 POP SWAP3 SWAP2 POP POP JUMP JUMPDEST PUSH0 PUSH1 0x8 DUP4 MUL PUSH2 0xD18 PUSH32 0xFFFFFFFFFFFFFFFFFFFFFFFFFFFFFFFFFFFFFFFFFFFFFFFFFFFFFFFFFFFFFFFF DUP3 PUSH2 0xCDD JUMP JUMPDEST PUSH2 0xD22 DUP7 DUP4 PUSH2 0xCDD JUMP JUMPDEST SWAP6 POP DUP1 NOT DUP5 AND SWAP4 POP DUP1 DUP7 AND DUP5 OR SWAP3 POP POP POP SWAP4 SWAP3 POP POP POP JUMP JUMPDEST PUSH0 DUP2 SWAP1 POP SWAP2 SWAP1 POP JUMP JUMPDEST PUSH0 PUSH2 0xD5D PUSH2 0xD58 PUSH2 0xD53 DUP5 PUSH2 0xB1E JUMP JUMPDEST PUSH2 0xD3A JUMP JUMPDEST PUSH2 0xB1E JUMP JUMPDEST SWAP1 POP SWAP2 SWAP1 POP JUMP JUMPDEST PUSH0 DUP2 SWAP1 POP SWAP2 SWAP1 POP JUMP JUMPDEST PUSH2 0xD76 DUP4 PUSH2 0xD43 JUMP JUMPDEST PUSH2 0xD8A PUSH2 0xD82 DUP3 PUSH2 0xD64 JUMP JUMPDEST DUP5 DUP5 SLOAD PUSH2 0xCE9 JUMP JUMPDEST DUP3 SSTORE POP POP POP POP JUMP JUMPDEST PUSH0 SWAP1 JUMP JUMPDEST PUSH2 0xD9E PUSH2 0xD92 JUMP JUMPDEST PUSH2 0xDA9 DUP2 DUP5 DUP5 PUSH2 0xD6D JUMP JUMPDEST POP POP POP JUMP JUMPDEST JUMPDEST DUP2 DUP2 LT ISZERO PUSH2 0xDCC JUMPI PUSH2 0xDC1 PUSH0 DUP3 PUSH2 0xD96 JUMP JUMPDEST PUSH1 0x1 DUP2 ADD SWAP1 POP PUSH2 0xDAF JUMP JUMPDEST POP POP JUMP JUMPDEST PUSH1 0x1F DUP3 GT ISZERO PUSH2 0xE11 JUMPI PUSH2 0xDE2 DUP2 PUSH2 0xCBC JUMP JUMPDEST PUSH2 0xDEB DUP5 PUSH2 0xCCE JUMP JUMPDEST DUP2 ADD PUSH1 0x20 DUP6 LT ISZERO PUSH2 0xDFA JUMPI DUP2 SWAP1 POP JUMPDEST PUSH2 0xE0E PUSH2 0xE06 DUP6 PUSH2 0xCCE JUMP JUMPDEST DUP4 ADD DUP3 PUSH2 0xDAE JUMP JUMPDEST POP POP JUMPDEST POP POP POP JUMP JUMPDEST PUSH0 DUP3 DUP3 SHR SWAP1 POP SWAP3 SWAP2 POP POP JUMP JUMPDEST PUSH0 PUSH2 0xE31 PUSH0 NOT DUP5 PUSH1 0x8 MUL PUSH2 0xE16 JUMP JUMPDEST NOT DUP1 DUP4 AND SWAP2 POP POP SWAP3 SWAP2 POP POP JUMP JUMPDEST PUSH0 PUSH2 0xE49 DUP4 DUP4 PUSH2 0xE22 JUMP JUMPDEST SWAP2 POP DUP3 PUSH1 0x2 MUL DUP3 OR SWAP1 POP SWAP3 SWAP2 POP POP JUMP JUMPDEST PUSH2 0xE62 DUP3 PUSH2 0x9BF JUMP JUMPDEST PUSH8 0xFFFFFFFFFFFFFFFF DUP2 GT ISZERO PUSH2 0xE7B JUMPI PUSH2 0xE7A PUSH2 0x854 JUMP JUMPDEST JUMPDEST PUSH2 0xE85 DUP3 SLOAD PUSH2 0xC24 JUMP JUMPDEST PUSH2 0xE90 DUP3 DUP3 DUP6 PUSH2 0xDD0 JUMP JUMPDEST PUSH0 PUSH1 0x20 SWAP1 POP PUSH1 0x1F DUP4 GT PUSH1 0x1 DUP2 EQ PUSH2 0xEC1 JUMPI PUSH0 DUP5 ISZERO PUSH2 0xEAF JUMPI DUP3 DUP8 ADD MLOAD SWAP1 POP JUMPDEST PUSH2 0xEB9 DUP6 DUP3 PUSH2 0xE3E JUMP JUMPDEST DUP7 SSTORE POP PUSH2 0xF20 JUMP JUMPDEST PUSH1 0x1F NOT DUP5 AND PUSH2 0xECF DUP7 PUSH2 0xCBC JUMP JUMPDEST PUSH0 JUMPDEST DUP3 DUP2 LT ISZERO PUSH2 0xEF6 JUMPI DUP5 DUP10 ADD MLOAD DUP3 SSTORE PUSH1 0x1 DUP3 ADD SWAP2 POP PUSH1 0x20 DUP6 ADD SWAP5 POP PUSH1 0x20 DUP2 ADD SWAP1 POP PUSH2 0xED1 JUMP JUMPDEST DUP7 DUP4 LT ISZERO PUSH2 0xF13 JUMPI DUP5 DUP10 ADD MLOAD PUSH2 0xF0F PUSH1 0x1F DUP10 AND DUP3 PUSH2 0xE22 JUMP JUMPDEST DUP4 SSTORE POP JUMPDEST PUSH1 0x1 PUSH1 0x2 DUP9 MUL ADD DUP9 SSTORE POP POP POP JUMPDEST POP POP POP POP POP POP JUMP JUMPDEST PUSH32 0x4E487B7100000000000000000000000000000000000000000000000000000000 PUSH0 MSTORE PUSH1 0x11 PUSH1 0x4 MSTORE PUSH1 0x24 PUSH0 REVERT JUMPDEST PUSH0 PUSH2 0xF5F DUP3 PUSH2 0xB1E JUMP JUMPDEST SWAP2 POP PUSH2 0xF6A DUP4 PUSH2 0xB1E JUMP JUMPDEST SWAP3 POP DUP3 DUP3 ADD SWAP1 POP DUP1 DUP3 GT ISZERO PUSH2 0xF82 JUMPI PUSH2 0xF81 PUSH2 0xF28 JUMP JUMPDEST JUMPDEST SWAP3 SWAP2 POP POP JUMP INVALID LOG2 PUSH5 0x6970667358 0x22 SLT KECCAK256 SMOD LOG4 DUP5 0x26 SWAP11 DUP1 0x27 CHAINID NOT SUB 0xE3 0xA7 0xC4 0xED SWAP16 0xE3 0xDE CREATE PUSH21 0x7B17FB198FC35C45A7F50A641C64736F6C63430008 BYTE STOP CALLER "
				},
				"gasEstimates": {
					"creation": {
						"codeDepositCost": "806000",
						"executionCost": "836",
						"totalCost": "806836"
					},
					"external": {
						"agregar(address,string)": "infinite",
						"borrar(address)": "infinite",
						"delegarAccesoLectura(address,uint256)": "infinite",
						"editar(address,string)": "infinite",
						"getDireccion(string)": "infinite",
						"getNombre(address)": "infinite"
					}
				},
				"methodIdentifiers": {
					"agregar(address,string)": "a9e5db4f",
					"borrar(address)": "87e4c821",
					"delegarAccesoLectura(address,uint256)": "f3348c98",
					"editar(address,string)": "98f411dd",
					"getDireccion(string)": "09638732",
					"getNombre(address)": "53c025fd"
				}
			},
			"storageLayout": {
				"storage": [
					{
						"astId": 7,
						"contract": "contracts/agenda.sol:Agenda",
						"label": "agenda",
						"offset": 0,
						"slot": "0",
						"type": "t_mapping(t_address,t_mapping(t_address,t_string_storage))"
					},
					{
						"astId": 13,
						"contract": "contracts/agenda.sol:Agenda",
						"label": "delegados",
						"offset": 0,
						"slot": "1",
						"type": "t_mapping(t_address,t_mapping(t_address,t_uint256))"
					}
				],
				"types": {
					"t_address": {
						"encoding": "inplace",
						"label": "address",
						"numberOfBytes": "20"
					},
					"t_mapping(t_address,t_mapping(t_address,t_string_storage))": {
						"encoding": "mapping",
						"key": "t_address",
						"label": "mapping(address => mapping(address => string))",
						"numberOfBytes": "32",
						"value": "t_mapping(t_address,t_string_storage)"
					},
					"t_mapping(t_address,t_mapping(t_address,t_uint256))": {
						"encoding": "mapping",
						"key": "t_address",
						"label": "mapping(address => mapping(address => uint256))",
						"numberOfBytes": "32",
						"value": "t_mapping(t_address,t_uint256)"
					},
					"t_mapping(t_address,t_string_storage)": {
						"encoding": "mapping",
						"key": "t_address",
						"label": "mapping(address => string)",
						"numberOfBytes": "32",
						"value": "t_string_storage"
					},
					"t_mapping(t_address,t_uint256)": {
						"encoding": "mapping",
						"key": "t_address",
						"label": "mapping(address => uint256)",
						"numberOfBytes": "32",
						"value": "t_uint256"
					},
					"t_string_storage": {
						"encoding": "bytes",
						"label": "string",
						"numberOfBytes": "32"
					},
					"t_uint256": {
						"encoding": "inplace",
						"label": "uint256",
						"numberOfBytes": "32"
					}
				}
			},
			"userdoc": {
				"kind": "user",
				"methods": {},
				"version": 1
			}
		}
	}
}