{
	"contracts/1_Storage1.sol": {
		"SimpleStorage42": {
			"abi": [
				{
					"inputs": [
						{
							"internalType": "int256",
							"name": "a",
							"type": "int256"
						},
						{
							"internalType": "int256",
							"name": "b",
							"type": "int256"
						}
					],
					"name": "combine",
					"outputs": [
						{
							"internalType": "int256",
							"name": "",
							"type": "int256"
						}
					],
					"stateMutability": "pure",
					"type": "function"
				},
				{
					"inputs": [],
					"name": "get",
					"outputs": [
						{
							"internalType": "int256",
							"name": "",
							"type": "int256"
						}
					],
					"stateMutability": "view",
					"type": "function"
				},
				{
					"inputs": [
						{
							"internalType": "int256",
							"name": "x",
							"type": "int256"
						}
					],
					"name": "set",
					"outputs": [],
					"stateMutability": "nonpayable",
					"type": "function"
				}
			],
			"devdoc": {
				"kind": "dev",
				"methods": {},
				"version": 1
			},
			"evm": {
				"assembly": "    /* \"contracts/1_Storage1.sol\":3249:3556  contract SimpleStorage42 {... */\n  mstore(0x40, 0x80)\n    /* \"contracts/1_Storage1.sol\":3296:3297  1 */\n  0x01\n    /* \"contracts/1_Storage1.sol\":3281:3297  int storedData=1 */\n  0x00\n  sstore\n    /* \"contracts/1_Storage1.sol\":3249:3556  contract SimpleStorage42 {... */\n  callvalue\n  dup1\n  iszero\n  tag_1\n  jumpi\n  0x00\n  dup1\n  revert\ntag_1:\n  pop\n  dataSize(sub_0)\n  dup1\n  dataOffset(sub_0)\n  0x00\n  codecopy\n  0x00\n  return\nstop\n\nsub_0: assembly {\n        /* \"contracts/1_Storage1.sol\":3249:3556  contract SimpleStorage42 {... */\n      mstore(0x40, 0x80)\n      callvalue\n      dup1\n      iszero\n      tag_1\n      jumpi\n      0x00\n      dup1\n      revert\n    tag_1:\n      pop\n      jumpi(tag_2, lt(calldatasize, 0x04))\n      shr(0xe0, calldataload(0x00))\n      dup1\n      0x6d4ce63c\n      eq\n      tag_3\n      jumpi\n      dup1\n      0x7e690149\n      eq\n      tag_4\n      jumpi\n      dup1\n      0xe5c19b2d\n      eq\n      tag_5\n      jumpi\n    tag_2:\n      0x00\n      dup1\n      revert\n        /* \"contracts/1_Storage1.sol\":3389:3464  function get() public view returns (int) {... */\n    tag_3:\n      tag_6\n      tag_7\n      jump\t// in\n    tag_6:\n      mload(0x40)\n      tag_8\n      swap2\n      swap1\n      tag_9\n      jump\t// in\n    tag_8:\n      mload(0x40)\n      dup1\n      swap2\n      sub\n      swap1\n      return\n        /* \"contracts/1_Storage1.sol\":3470:3554  function combine(int a, int b) public pure returns (int) {... */\n    tag_4:\n      tag_10\n      0x04\n      dup1\n      calldatasize\n      sub\n      dup2\n      add\n      swap1\n      tag_11\n      swap2\n      swap1\n      tag_12\n      jump\t// in\n    tag_11:\n      tag_13\n      jump\t// in\n    tag_10:\n      mload(0x40)\n      tag_14\n      swap2\n      swap1\n      tag_9\n      jump\t// in\n    tag_14:\n      mload(0x40)\n      dup1\n      swap2\n      sub\n      swap1\n      return\n        /* \"contracts/1_Storage1.sol\":3304:3383  function set(int x) public {... */\n    tag_5:\n      tag_15\n      0x04\n      dup1\n      calldatasize\n      sub\n      dup2\n      add\n      swap1\n      tag_16\n      swap2\n      swap1\n      tag_17\n      jump\t// in\n    tag_16:\n      tag_18\n      jump\t// in\n    tag_15:\n      stop\n        /* \"contracts/1_Storage1.sol\":3389:3464  function get() public view returns (int) {... */\n    tag_7:\n        /* \"contracts/1_Storage1.sol\":3425:3428  int */\n      0x00\n        /* \"contracts/1_Storage1.sol\":3447:3457  storedData */\n      dup1\n      sload\n        /* \"contracts/1_Storage1.sol\":3440:3457  return storedData */\n      swap1\n      pop\n        /* \"contracts/1_Storage1.sol\":3389:3464  function get() public view returns (int) {... */\n      swap1\n      jump\t// out\n        /* \"contracts/1_Storage1.sol\":3470:3554  function combine(int a, int b) public pure returns (int) {... */\n    tag_13:\n        /* \"contracts/1_Storage1.sol\":3522:3525  int */\n      0x00\n        /* \"contracts/1_Storage1.sol\":3546:3547  b */\n      dup2\n        /* \"contracts/1_Storage1.sol\":3544:3545  a */\n      dup4\n        /* \"contracts/1_Storage1.sol\":3544:3547  a*b */\n      tag_21\n      swap2\n      swap1\n      tag_22\n      jump\t// in\n    tag_21:\n        /* \"contracts/1_Storage1.sol\":3537:3547  return a*b */\n      swap1\n      pop\n        /* \"contracts/1_Storage1.sol\":3470:3554  function combine(int a, int b) public pure returns (int) {... */\n      swap3\n      swap2\n      pop\n      pop\n      jump\t// out\n        /* \"contracts/1_Storage1.sol\":3304:3383  function set(int x) public {... */\n    tag_18:\n        /* \"contracts/1_Storage1.sol\":3354:3376  combine(storedData, x) */\n      tag_24\n        /* \"contracts/1_Storage1.sol\":3362:3372  storedData */\n      sload(0x00)\n        /* \"contracts/1_Storage1.sol\":3374:3375  x */\n      dup3\n        /* \"contracts/1_Storage1.sol\":3354:3361  combine */\n      tag_13\n        /* \"contracts/1_Storage1.sol\":3354:3376  combine(storedData, x) */\n      jump\t// in\n    tag_24:\n        /* \"contracts/1_Storage1.sol\":3341:3351  storedData */\n      0x00\n        /* \"contracts/1_Storage1.sol\":3341:3376  storedData = combine(storedData, x) */\n      dup2\n      swap1\n      sstore\n      pop\n        /* \"contracts/1_Storage1.sol\":3304:3383  function set(int x) public {... */\n      pop\n      jump\t// out\n        /* \"#utility.yul\":7:83   */\n    tag_25:\n        /* \"#utility.yul\":43:50   */\n      0x00\n        /* \"#utility.yul\":72:77   */\n      dup2\n        /* \"#utility.yul\":61:77   */\n      swap1\n      pop\n        /* \"#utility.yul\":7:83   */\n      swap2\n      swap1\n      pop\n      jump\t// out\n        /* \"#utility.yul\":89:204   */\n    tag_26:\n        /* \"#utility.yul\":174:197   */\n      tag_36\n        /* \"#utility.yul\":191:196   */\n      dup2\n        /* \"#utility.yul\":174:197   */\n      tag_25\n      jump\t// in\n    tag_36:\n        /* \"#utility.yul\":169:172   */\n      dup3\n        /* \"#utility.yul\":162:198   */\n      mstore\n        /* \"#utility.yul\":89:204   */\n      pop\n      pop\n      jump\t// out\n        /* \"#utility.yul\":210:428   */\n    tag_9:\n        /* \"#utility.yul\":301:305   */\n      0x00\n        /* \"#utility.yul\":339:341   */\n      0x20\n        /* \"#utility.yul\":328:337   */\n      dup3\n        /* \"#utility.yul\":324:342   */\n      add\n        /* \"#utility.yul\":316:342   */\n      swap1\n      pop\n        /* \"#utility.yul\":352:421   */\n      tag_38\n        /* \"#utility.yul\":418:419   */\n      0x00\n        /* \"#utility.yul\":407:416   */\n      dup4\n        /* \"#utility.yul\":403:420   */\n      add\n        /* \"#utility.yul\":394:400   */\n      dup5\n        /* \"#utility.yul\":352:421   */\n      tag_26\n      jump\t// in\n    tag_38:\n        /* \"#utility.yul\":210:428   */\n      swap3\n      swap2\n      pop\n      pop\n      jump\t// out\n        /* \"#utility.yul\":515:632   */\n    tag_28:\n        /* \"#utility.yul\":624:625   */\n      0x00\n        /* \"#utility.yul\":621:622   */\n      dup1\n        /* \"#utility.yul\":614:626   */\n      revert\n        /* \"#utility.yul\":761:881   */\n    tag_30:\n        /* \"#utility.yul\":833:856   */\n      tag_43\n        /* \"#utility.yul\":850:855   */\n      dup2\n        /* \"#utility.yul\":833:856   */\n      tag_25\n      jump\t// in\n    tag_43:\n        /* \"#utility.yul\":826:831   */\n      dup2\n        /* \"#utility.yul\":823:857   */\n      eq\n        /* \"#utility.yul\":813:875   */\n      tag_44\n      jumpi\n        /* \"#utility.yul\":871:872   */\n      0x00\n        /* \"#utility.yul\":868:869   */\n      dup1\n        /* \"#utility.yul\":861:873   */\n      revert\n        /* \"#utility.yul\":813:875   */\n    tag_44:\n        /* \"#utility.yul\":761:881   */\n      pop\n      jump\t// out\n        /* \"#utility.yul\":887:1024   */\n    tag_31:\n        /* \"#utility.yul\":932:937   */\n      0x00\n        /* \"#utility.yul\":970:976   */\n      dup2\n        /* \"#utility.yul\":957:977   */\n      calldataload\n        /* \"#utility.yul\":948:977   */\n      swap1\n      pop\n        /* \"#utility.yul\":986:1018   */\n      tag_46\n        /* \"#utility.yul\":1012:1017   */\n      dup2\n        /* \"#utility.yul\":986:1018   */\n      tag_30\n      jump\t// in\n    tag_46:\n        /* \"#utility.yul\":887:1024   */\n      swap3\n      swap2\n      pop\n      pop\n      jump\t// out\n        /* \"#utility.yul\":1030:1500   */\n    tag_12:\n        /* \"#utility.yul\":1096:1102   */\n      0x00\n        /* \"#utility.yul\":1104:1110   */\n      dup1\n        /* \"#utility.yul\":1153:1155   */\n      0x40\n        /* \"#utility.yul\":1141:1150   */\n      dup4\n        /* \"#utility.yul\":1132:1139   */\n      dup6\n        /* \"#utility.yul\":1128:1151   */\n      sub\n        /* \"#utility.yul\":1124:1156   */\n      slt\n        /* \"#utility.yul\":1121:1240   */\n      iszero\n      tag_48\n      jumpi\n        /* \"#utility.yul\":1159:1238   */\n      tag_49\n      tag_28\n      jump\t// in\n    tag_49:\n        /* \"#utility.yul\":1121:1240   */\n    tag_48:\n        /* \"#utility.yul\":1279:1280   */\n      0x00\n        /* \"#utility.yul\":1304:1356   */\n      tag_50\n        /* \"#utility.yul\":1348:1355   */\n      dup6\n        /* \"#utility.yul\":1339:1345   */\n      dup3\n        /* \"#utility.yul\":1328:1337   */\n      dup7\n        /* \"#utility.yul\":1324:1346   */\n      add\n        /* \"#utility.yul\":1304:1356   */\n      tag_31\n      jump\t// in\n    tag_50:\n        /* \"#utility.yul\":1294:1356   */\n      swap3\n      pop\n        /* \"#utility.yul\":1250:1366   */\n      pop\n        /* \"#utility.yul\":1405:1407   */\n      0x20\n        /* \"#utility.yul\":1431:1483   */\n      tag_51\n        /* \"#utility.yul\":1475:1482   */\n      dup6\n        /* \"#utility.yul\":1466:1472   */\n      dup3\n        /* \"#utility.yul\":1455:1464   */\n      dup7\n        /* \"#utility.yul\":1451:1473   */\n      add\n        /* \"#utility.yul\":1431:1483   */\n      tag_31\n      jump\t// in\n    tag_51:\n        /* \"#utility.yul\":1421:1483   */\n      swap2\n      pop\n        /* \"#utility.yul\":1376:1493   */\n      pop\n        /* \"#utility.yul\":1030:1500   */\n      swap3\n      pop\n      swap3\n      swap1\n      pop\n      jump\t// out\n        /* \"#utility.yul\":1506:1833   */\n    tag_17:\n        /* \"#utility.yul\":1564:1570   */\n      0x00\n        /* \"#utility.yul\":1613:1615   */\n      0x20\n        /* \"#utility.yul\":1601:1610   */\n      dup3\n        /* \"#utility.yul\":1592:1599   */\n      dup5\n        /* \"#utility.yul\":1588:1611   */\n      sub\n        /* \"#utility.yul\":1584:1616   */\n      slt\n        /* \"#utility.yul\":1581:1700   */\n      iszero\n      tag_53\n      jumpi\n        /* \"#utility.yul\":1619:1698   */\n      tag_54\n      tag_28\n      jump\t// in\n    tag_54:\n        /* \"#utility.yul\":1581:1700   */\n    tag_53:\n        /* \"#utility.yul\":1739:1740   */\n      0x00\n        /* \"#utility.yul\":1764:1816   */\n      tag_55\n        /* \"#utility.yul\":1808:1815   */\n      dup5\n        /* \"#utility.yul\":1799:1805   */\n      dup3\n        /* \"#utility.yul\":1788:1797   */\n      dup6\n        /* \"#utility.yul\":1784:1806   */\n      add\n        /* \"#utility.yul\":1764:1816   */\n      tag_31\n      jump\t// in\n    tag_55:\n        /* \"#utility.yul\":1754:1816   */\n      swap2\n      pop\n        /* \"#utility.yul\":1710:1826   */\n      pop\n        /* \"#utility.yul\":1506:1833   */\n      swap3\n      swap2\n      pop\n      pop\n      jump\t// out\n        /* \"#utility.yul\":1839:2019   */\n    tag_32:\n        /* \"#utility.yul\":1887:1964   */\n      0x4e487b7100000000000000000000000000000000000000000000000000000000\n        /* \"#utility.yul\":1884:1885   */\n      0x00\n        /* \"#utility.yul\":1877:1965   */\n      mstore\n        /* \"#utility.yul\":1984:1988   */\n      0x11\n        /* \"#utility.yul\":1981:1982   */\n      0x04\n        /* \"#utility.yul\":1974:1989   */\n      mstore\n        /* \"#utility.yul\":2008:2012   */\n      0x24\n        /* \"#utility.yul\":2005:2006   */\n      0x00\n        /* \"#utility.yul\":1998:2013   */\n      revert\n        /* \"#utility.yul\":2025:2581   */\n    tag_22:\n        /* \"#utility.yul\":2064:2071   */\n      0x00\n        /* \"#utility.yul\":2087:2106   */\n      tag_58\n        /* \"#utility.yul\":2104:2105   */\n      dup3\n        /* \"#utility.yul\":2087:2106   */\n      tag_25\n      jump\t// in\n    tag_58:\n        /* \"#utility.yul\":2082:2106   */\n      swap2\n      pop\n        /* \"#utility.yul\":2120:2139   */\n      tag_59\n        /* \"#utility.yul\":2137:2138   */\n      dup4\n        /* \"#utility.yul\":2120:2139   */\n      tag_25\n      jump\t// in\n    tag_59:\n        /* \"#utility.yul\":2115:2139   */\n      swap3\n      pop\n        /* \"#utility.yul\":2174:2175   */\n      dup3\n        /* \"#utility.yul\":2171:2172   */\n      dup3\n        /* \"#utility.yul\":2167:2176   */\n      mul\n        /* \"#utility.yul\":2196:2225   */\n      tag_60\n        /* \"#utility.yul\":2213:2224   */\n      dup2\n        /* \"#utility.yul\":2196:2225   */\n      tag_25\n      jump\t// in\n    tag_60:\n        /* \"#utility.yul\":2185:2225   */\n      swap2\n      pop\n        /* \"#utility.yul\":2283:2349   */\n      0x8000000000000000000000000000000000000000000000000000000000000000\n        /* \"#utility.yul\":2280:2281   */\n      dup5\n        /* \"#utility.yul\":2277:2350   */\n      eq\n        /* \"#utility.yul\":2273:2274   */\n      0x00\n        /* \"#utility.yul\":2270:2271   */\n      dup5\n        /* \"#utility.yul\":2266:2275   */\n      slt\n        /* \"#utility.yul\":2262:2351   */\n      and\n        /* \"#utility.yul\":2259:2374   */\n      iszero\n      tag_61\n      jumpi\n        /* \"#utility.yul\":2354:2372   */\n      tag_62\n      tag_32\n      jump\t// in\n    tag_62:\n        /* \"#utility.yul\":2259:2374   */\n    tag_61:\n        /* \"#utility.yul\":2524:2525   */\n      dup3\n        /* \"#utility.yul\":2515:2522   */\n      dup3\n        /* \"#utility.yul\":2510:2526   */\n      sdiv\n        /* \"#utility.yul\":2507:2508   */\n      dup5\n        /* \"#utility.yul\":2504:2527   */\n      eq\n        /* \"#utility.yul\":2484:2485   */\n      dup4\n        /* \"#utility.yul\":2477:2486   */\n      iszero\n        /* \"#utility.yul\":2457:2541   */\n      or\n        /* \"#utility.yul\":2434:2574   */\n      tag_63\n      jumpi\n        /* \"#utility.yul\":2554:2572   */\n      tag_64\n      tag_32\n      jump\t// in\n    tag_64:\n        /* \"#utility.yul\":2434:2574   */\n    tag_63:\n        /* \"#utility.yul\":2072:2581   */\n      pop\n        /* \"#utility.yul\":2025:2581   */\n      swap3\n      swap2\n      pop\n      pop\n      jump\t// out\n\n    auxdata: 0xa26469706673582212204fd3fddb2bfb55cd78974339d5125dd52286e8f7bb95afe266a85989174a014b64736f6c634300081a0033\n}\n",
				"bytecode": {
					"linkReferences": {},
					"object": "608060405260015f553480156012575f80fd5b5061027e806100205f395ff3fe608060405234801561000f575f80fd5b506004361061003f575f3560e01c80636d4ce63c146100435780637e69014914610061578063e5c19b2d14610091575b5f80fd5b61004b6100ad565b60405161005891906100f5565b60405180910390f35b61007b6004803603810190610076919061013c565b6100b5565b60405161008891906100f5565b60405180910390f35b6100ab60048036038101906100a6919061017a565b6100ca565b005b5f8054905090565b5f81836100c291906101d2565b905092915050565b6100d55f54826100b5565b5f8190555050565b5f819050919050565b6100ef816100dd565b82525050565b5f6020820190506101085f8301846100e6565b92915050565b5f80fd5b61011b816100dd565b8114610125575f80fd5b50565b5f8135905061013681610112565b92915050565b5f80604083850312156101525761015161010e565b5b5f61015f85828601610128565b925050602061017085828601610128565b9150509250929050565b5f6020828403121561018f5761018e61010e565b5b5f61019c84828501610128565b91505092915050565b7f4e487b71000000000000000000000000000000000000000000000000000000005f52601160045260245ffd5b5f6101dc826100dd565b91506101e7836100dd565b92508282026101f5816100dd565b91507f800000000000000000000000000000000000000000000000000000000000000084145f8412161561022c5761022b6101a5565b5b8282058414831517610241576102406101a5565b5b509291505056fea26469706673582212204fd3fddb2bfb55cd78974339d5125dd52286e8f7bb95afe266a85989174a014b64736f6c634300081a0033",
					"opcodes": "PUSH1 0x80 PUSH1 0x40 MSTORE PUSH1 0x1 PUSH0 SSTORE CALLVALUE DUP1 ISZERO PUSH1 0x12 JUMPI PUSH0 DUP1 REVERT JUMPDEST POP PUSH2 0x27E DUP1 PUSH2 0x20 PUSH0 CODECOPY PUSH0 RETURN INVALID PUSH1 0x80 PUSH1 0x40 MSTORE CALLVALUE DUP1 ISZERO PUSH2 0xF JUMPI PUSH0 DUP1 REVERT JUMPDEST POP PUSH1 0x4 CALLDATASIZE LT PUSH2 0x3F JUMPI PUSH0 CALLDATALOAD PUSH1 0xE0 SHR DUP1 PUSH4 0x6D4CE63C EQ PUSH2 0x43 JUMPI DUP1 PUSH4 0x7E690149 EQ PUSH2 0x61 JUMPI DUP1 PUSH4 0xE5C19B2D EQ PUSH2 0x91 JUMPI JUMPDEST PUSH0 DUP1 REVERT JUMPDEST PUSH2 0x4B PUSH2 0xAD JUMP JUMPDEST PUSH1 0x40 MLOAD PUSH2 0x58 SWAP2 SWAP1 PUSH2 0xF5 JUMP JUMPDEST PUSH1 0x40 MLOAD DUP1 SWAP2 SUB SWAP1 RETURN JUMPDEST PUSH2 0x7B PUSH1 0x4 DUP1 CALLDATASIZE SUB DUP2 ADD SWAP1 PUSH2 0x76 SWAP2 SWAP1 PUSH2 0x13C JUMP JUMPDEST PUSH2 0xB5 JUMP JUMPDEST PUSH1 0x40 MLOAD PUSH2 0x88 SWAP2 SWAP1 PUSH2 0xF5 JUMP JUMPDEST PUSH1 0x40 MLOAD DUP1 SWAP2 SUB SWAP1 RETURN JUMPDEST PUSH2 0xAB PUSH1 0x4 DUP1 CALLDATASIZE SUB DUP2 ADD SWAP1 PUSH2 0xA6 SWAP2 SWAP1 PUSH2 0x17A JUMP JUMPDEST PUSH2 0xCA JUMP JUMPDEST STOP JUMPDEST PUSH0 DUP1 SLOAD SWAP1 POP SWAP1 JUMP JUMPDEST PUSH0 DUP2 DUP4 PUSH2 0xC2 SWAP2 SWAP1 PUSH2 0x1D2 JUMP JUMPDEST SWAP1 POP SWAP3 SWAP2 POP POP JUMP JUMPDEST PUSH2 0xD5 PUSH0 SLOAD DUP3 PUSH2 0xB5 JUMP JUMPDEST PUSH0 DUP2 SWAP1 SSTORE POP POP JUMP JUMPDEST PUSH0 DUP2 SWAP1 POP SWAP2 SWAP1 POP JUMP JUMPDEST PUSH2 0xEF DUP2 PUSH2 0xDD JUMP JUMPDEST DUP3 MSTORE POP POP JUMP JUMPDEST PUSH0 PUSH1 0x20 DUP3 ADD SWAP1 POP PUSH2 0x108 PUSH0 DUP4 ADD DUP5 PUSH2 0xE6 JUMP JUMPDEST SWAP3 SWAP2 POP POP JUMP JUMPDEST PUSH0 DUP1 REVERT JUMPDEST PUSH2 0x11B DUP2 PUSH2 0xDD JUMP JUMPDEST DUP2 EQ PUSH2 0x125 JUMPI PUSH0 DUP1 REVERT JUMPDEST POP JUMP JUMPDEST PUSH0 DUP2 CALLDATALOAD SWAP1 POP PUSH2 0x136 DUP2 PUSH2 0x112 JUMP JUMPDEST SWAP3 SWAP2 POP POP JUMP JUMPDEST PUSH0 DUP1 PUSH1 0x40 DUP4 DUP6 SUB SLT ISZERO PUSH2 0x152 JUMPI PUSH2 0x151 PUSH2 0x10E JUMP JUMPDEST JUMPDEST PUSH0 PUSH2 0x15F DUP6 DUP3 DUP7 ADD PUSH2 0x128 JUMP JUMPDEST SWAP3 POP POP PUSH1 0x20 PUSH2 0x170 DUP6 DUP3 DUP7 ADD PUSH2 0x128 JUMP JUMPDEST SWAP2 POP POP SWAP3 POP SWAP3 SWAP1 POP JUMP JUMPDEST PUSH0 PUSH1 0x20 DUP3 DUP5 SUB SLT ISZERO PUSH2 0x18F JUMPI PUSH2 0x18E PUSH2 0x10E JUMP JUMPDEST JUMPDEST PUSH0 PUSH2 0x19C DUP5 DUP3 DUP6 ADD PUSH2 0x128 JUMP JUMPDEST SWAP2 POP POP SWAP3 SWAP2 POP POP JUMP JUMPDEST PUSH32 0x4E487B7100000000000000000000000000000000000000000000000000000000 PUSH0 MSTORE PUSH1 0x11 PUSH1 0x4 MSTORE PUSH1 0x24 PUSH0 REVERT JUMPDEST PUSH0 PUSH2 0x1DC DUP3 PUSH2 0xDD JUMP JUMPDEST SWAP2 POP PUSH2 0x1E7 DUP4 PUSH2 0xDD JUMP JUMPDEST SWAP3 POP DUP3 DUP3 MUL PUSH2 0x1F5 DUP2 PUSH2 0xDD JUMP JUMPDEST SWAP2 POP PUSH32 0x8000000000000000000000000000000000000000000000000000000000000000 DUP5 EQ PUSH0 DUP5 SLT AND ISZERO PUSH2 0x22C JUMPI PUSH2 0x22B PUSH2 0x1A5 JUMP JUMPDEST JUMPDEST DUP3 DUP3 SDIV DUP5 EQ DUP4 ISZERO OR PUSH2 0x241 JUMPI PUSH2 0x240 PUSH2 0x1A5 JUMP JUMPDEST JUMPDEST POP SWAP3 SWAP2 POP POP JUMP INVALID LOG2 PUSH5 0x6970667358 0x22 SLT KECCAK256 0x4F 0xD3 REVERT 0xDB 0x2B 0xFB SSTORE 0xCD PUSH25 0x974339D5125DD52286E8F7BB95AFE266A85989174A014B6473 PUSH16 0x6C634300081A00330000000000000000 "
				},
				"gasEstimates": {
					"creation": {
						"codeDepositCost": "127600",
						"executionCost": "22274",
						"totalCost": "149874"
					},
					"external": {
						"combine(int256,int256)": "infinite",
						"get()": "2410",
						"set(int256)": "infinite"
					}
				},
				"methodIdentifiers": {
					"combine(int256,int256)": "7e690149",
					"get()": "6d4ce63c",
					"set(int256)": "e5c19b2d"
				}
			},
			"storageLayout": {
				"storage": [
					{
						"astId": 554,
						"contract": "contracts/1_Storage1.sol:SimpleStorage42",
						"label": "storedData",
						"offset": 0,
						"slot": "0",
						"type": "t_int256"
					}
				],
				"types": {
					"t_int256": {
						"encoding": "inplace",
						"label": "int256",
						"numberOfBytes": "32"
					}
				}
			},
			"userdoc": {
				"kind": "user",
				"methods": {},
				"version": 1
			}
		}
	}
}