{
	"contracts/1_Storage1.sol": {
		"SimpleStorage7": {
			"abi": [
				{
					"inputs": [],
					"stateMutability": "nonpayable",
					"type": "constructor"
				},
				{
					"inputs": [
						{
							"internalType": "uint256",
							"name": "a",
							"type": "uint256"
						},
						{
							"internalType": "uint256",
							"name": "b",
							"type": "uint256"
						}
					],
					"name": "combine",
					"outputs": [
						{
							"internalType": "uint256",
							"name": "",
							"type": "uint256"
						}
					],
					"stateMutability": "pure",
					"type": "function"
				},
				{
					"inputs": [],
					"name": "get",
					"outputs": [
						{
							"internalType": "uint256",
							"name": "",
							"type": "uint256"
						}
					],
					"stateMutability": "view",
					"type": "function"
				},
				{
					"inputs": [],
					"name": "owner",
					"outputs": [
						{
							"internalType": "address",
							"name": "",
							"type": "address"
						}
					],
					"stateMutability": "view",
					"type": "function"
				},
				{
					"inputs": [
						{
							"internalType": "uint256",
							"name": "x",
							"type": "uint256"
						}
					],
					"name": "set",
					"outputs": [],
					"stateMutability": "nonpayable",
					"type": "function"
				}
			],
			"devdoc": {
				"kind": "dev",
				"methods": {},
				"version": 1
			},
			"evm": {
				"assembly": "    /* \"contracts/1_Storage1.sol\":4611:5139  contract SimpleStorage7 {... */\n  mstore(0x40, 0x80)\n    /* \"contracts/1_Storage1.sol\":4689:4759  constructor() {... */\n  callvalue\n  dup1\n  iszero\n  tag_1\n  jumpi\n  0x00\n  dup1\n  revert\ntag_1:\n  pop\n    /* \"contracts/1_Storage1.sol\":4724:4725  1 */\n  0x01\n    /* \"contracts/1_Storage1.sol\":4713:4723  storedData */\n  0x00\n    /* \"contracts/1_Storage1.sol\":4713:4725  storedData=1 */\n  dup2\n  swap1\n  sstore\n  pop\n    /* \"contracts/1_Storage1.sol\":4742:4752  msg.sender */\n  caller\n    /* \"contracts/1_Storage1.sol\":4735:4740  owner */\n  0x01\n  0x00\n    /* \"contracts/1_Storage1.sol\":4735:4752  owner= msg.sender */\n  0x0100\n  exp\n  dup2\n  sload\n  dup2\n  0xffffffffffffffffffffffffffffffffffffffff\n  mul\n  not\n  and\n  swap1\n  dup4\n  0xffffffffffffffffffffffffffffffffffffffff\n  and\n  mul\n  or\n  swap1\n  sstore\n  pop\n    /* \"contracts/1_Storage1.sol\":4611:5139  contract SimpleStorage7 {... */\n  dataSize(sub_0)\n  dup1\n  dataOffset(sub_0)\n  0x00\n  codecopy\n  0x00\n  return\nstop\n\nsub_0: assembly {\n        /* \"contracts/1_Storage1.sol\":4611:5139  contract SimpleStorage7 {... */\n      mstore(0x40, 0x80)\n      callvalue\n      dup1\n      iszero\n      tag_1\n      jumpi\n      0x00\n      dup1\n      revert\n    tag_1:\n      pop\n      jumpi(tag_2, lt(calldatasize, 0x04))\n      shr(0xe0, calldataload(0x00))\n      dup1\n      0x60fe47b1\n      eq\n      tag_3\n      jumpi\n      dup1\n      0x6d4ce63c\n      eq\n      tag_4\n      jumpi\n      dup1\n      0x8a50fecb\n      eq\n      tag_5\n      jumpi\n      dup1\n      0x8da5cb5b\n      eq\n      tag_6\n      jumpi\n    tag_2:\n      0x00\n      dup1\n      revert\n        /* \"contracts/1_Storage1.sol\":4765:4948  function set(uint x) public {... */\n    tag_3:\n      tag_7\n      0x04\n      dup1\n      calldatasize\n      sub\n      dup2\n      add\n      swap1\n      tag_8\n      swap2\n      swap1\n      tag_9\n      jump\t// in\n    tag_8:\n      tag_10\n      jump\t// in\n    tag_7:\n      stop\n        /* \"contracts/1_Storage1.sol\":4954:5030  function get() public view returns (uint) {... */\n    tag_4:\n      tag_11\n      tag_12\n      jump\t// in\n    tag_11:\n      mload(0x40)\n      tag_13\n      swap2\n      swap1\n      tag_14\n      jump\t// in\n    tag_13:\n      mload(0x40)\n      dup1\n      swap2\n      sub\n      swap1\n      return\n        /* \"contracts/1_Storage1.sol\":5036:5137  function combine(uint a, uint b) public pure returns (uint) {... */\n    tag_5:\n      tag_15\n      0x04\n      dup1\n      calldatasize\n      sub\n      dup2\n      add\n      swap1\n      tag_16\n      swap2\n      swap1\n      tag_17\n      jump\t// in\n    tag_16:\n      tag_18\n      jump\t// in\n    tag_15:\n      mload(0x40)\n      tag_19\n      swap2\n      swap1\n      tag_14\n      jump\t// in\n    tag_19:\n      mload(0x40)\n      dup1\n      swap2\n      sub\n      swap1\n      return\n        /* \"contracts/1_Storage1.sol\":4662:4682  address public owner */\n    tag_6:\n      tag_20\n      tag_21\n      jump\t// in\n    tag_20:\n      mload(0x40)\n      tag_22\n      swap2\n      swap1\n      tag_23\n      jump\t// in\n    tag_22:\n      mload(0x40)\n      dup1\n      swap2\n      sub\n      swap1\n      return\n        /* \"contracts/1_Storage1.sol\":4765:4948  function set(uint x) public {... */\n    tag_10:\n        /* \"contracts/1_Storage1.sol\":4816:4838  combine(storedData, x) */\n      tag_25\n        /* \"contracts/1_Storage1.sol\":4824:4834  storedData */\n      sload(0x00)\n        /* \"contracts/1_Storage1.sol\":4836:4837  x */\n      dup3\n        /* \"contracts/1_Storage1.sol\":4816:4823  combine */\n      tag_18\n        /* \"contracts/1_Storage1.sol\":4816:4838  combine(storedData, x) */\n      jump\t// in\n    tag_25:\n        /* \"contracts/1_Storage1.sol\":4803:4813  storedData */\n      0x00\n        /* \"contracts/1_Storage1.sol\":4803:4838  storedData = combine(storedData, x) */\n      dup2\n      swap1\n      sstore\n      pop\n        /* \"contracts/1_Storage1.sol\":4883:4888  owner */\n      0x01\n      0x00\n      swap1\n      sload\n      swap1\n      0x0100\n      exp\n      swap1\n      div\n      0xffffffffffffffffffffffffffffffffffffffff\n      and\n        /* \"contracts/1_Storage1.sol\":4869:4888  msg.sender == owner */\n      0xffffffffffffffffffffffffffffffffffffffff\n      and\n        /* \"contracts/1_Storage1.sol\":4869:4879  msg.sender */\n      caller\n        /* \"contracts/1_Storage1.sol\":4869:4888  msg.sender == owner */\n      0xffffffffffffffffffffffffffffffffffffffff\n      and\n      eq\n        /* \"contracts/1_Storage1.sol\":4848:4941  require(... */\n      tag_26\n      jumpi\n      mload(0x40)\n      0x08c379a000000000000000000000000000000000000000000000000000000000\n      dup2\n      mstore\n      0x04\n      add\n      tag_27\n      swap1\n      tag_28\n      jump\t// in\n    tag_27:\n      mload(0x40)\n      dup1\n      swap2\n      sub\n      swap1\n      revert\n    tag_26:\n        /* \"contracts/1_Storage1.sol\":4765:4948  function set(uint x) public {... */\n      pop\n      jump\t// out\n        /* \"contracts/1_Storage1.sol\":4954:5030  function get() public view returns (uint) {... */\n    tag_12:\n        /* \"contracts/1_Storage1.sol\":4990:4994  uint */\n      0x00\n        /* \"contracts/1_Storage1.sol\":5013:5023  storedData */\n      dup1\n      sload\n        /* \"contracts/1_Storage1.sol\":5006:5023  return storedData */\n      swap1\n      pop\n        /* \"contracts/1_Storage1.sol\":4954:5030  function get() public view returns (uint) {... */\n      swap1\n      jump\t// out\n        /* \"contracts/1_Storage1.sol\":5036:5137  function combine(uint a, uint b) public pure returns (uint) {... */\n    tag_18:\n        /* \"contracts/1_Storage1.sol\":5090:5094  uint */\n      0x00\n        /* \"contracts/1_Storage1.sol\":5113:5130  SafeMath.mul(a,b) */\n      tag_31\n        /* \"contracts/1_Storage1.sol\":5126:5127  a */\n      dup4\n        /* \"contracts/1_Storage1.sol\":5128:5129  b */\n      dup4\n        /* \"contracts/1_Storage1.sol\":5113:5125  SafeMath.mul */\n      tag_32\n        /* \"contracts/1_Storage1.sol\":5113:5130  SafeMath.mul(a,b) */\n      jump\t// in\n    tag_31:\n        /* \"contracts/1_Storage1.sol\":5106:5130  return SafeMath.mul(a,b) */\n      swap1\n      pop\n        /* \"contracts/1_Storage1.sol\":5036:5137  function combine(uint a, uint b) public pure returns (uint) {... */\n      swap3\n      swap2\n      pop\n      pop\n      jump\t// out\n        /* \"contracts/1_Storage1.sol\":4662:4682  address public owner */\n    tag_21:\n      0x01\n      0x00\n      swap1\n      sload\n      swap1\n      0x0100\n      exp\n      swap1\n      div\n      0xffffffffffffffffffffffffffffffffffffffff\n      and\n      dup2\n      jump\t// out\n        /* \"@openzeppelin/contracts/utils/math/SafeMath.sol\":3465:3561  function mul(uint256 a, uint256 b) internal pure returns (uint256) {... */\n    tag_32:\n        /* \"@openzeppelin/contracts/utils/math/SafeMath.sol\":3523:3530  uint256 */\n      0x00\n        /* \"@openzeppelin/contracts/utils/math/SafeMath.sol\":3553:3554  b */\n      dup2\n        /* \"@openzeppelin/contracts/utils/math/SafeMath.sol\":3549:3550  a */\n      dup4\n        /* \"@openzeppelin/contracts/utils/math/SafeMath.sol\":3549:3554  a * b */\n      tag_34\n      swap2\n      swap1\n      tag_35\n      jump\t// in\n    tag_34:\n        /* \"@openzeppelin/contracts/utils/math/SafeMath.sol\":3542:3554  return a * b */\n      swap1\n      pop\n        /* \"@openzeppelin/contracts/utils/math/SafeMath.sol\":3465:3561  function mul(uint256 a, uint256 b) internal pure returns (uint256) {... */\n      swap3\n      swap2\n      pop\n      pop\n      jump\t// out\n        /* \"#utility.yul\":88:205   */\n    tag_37:\n        /* \"#utility.yul\":197:198   */\n      0x00\n        /* \"#utility.yul\":194:195   */\n      dup1\n        /* \"#utility.yul\":187:199   */\n      revert\n        /* \"#utility.yul\":334:411   */\n    tag_39:\n        /* \"#utility.yul\":371:378   */\n      0x00\n        /* \"#utility.yul\":400:405   */\n      dup2\n        /* \"#utility.yul\":389:405   */\n      swap1\n      pop\n        /* \"#utility.yul\":334:411   */\n      swap2\n      swap1\n      pop\n      jump\t// out\n        /* \"#utility.yul\":417:539   */\n    tag_40:\n        /* \"#utility.yul\":490:514   */\n      tag_56\n        /* \"#utility.yul\":508:513   */\n      dup2\n        /* \"#utility.yul\":490:514   */\n      tag_39\n      jump\t// in\n    tag_56:\n        /* \"#utility.yul\":483:488   */\n      dup2\n        /* \"#utility.yul\":480:515   */\n      eq\n        /* \"#utility.yul\":470:533   */\n      tag_57\n      jumpi\n        /* \"#utility.yul\":529:530   */\n      0x00\n        /* \"#utility.yul\":526:527   */\n      dup1\n        /* \"#utility.yul\":519:531   */\n      revert\n        /* \"#utility.yul\":470:533   */\n    tag_57:\n        /* \"#utility.yul\":417:539   */\n      pop\n      jump\t// out\n        /* \"#utility.yul\":545:684   */\n    tag_41:\n        /* \"#utility.yul\":591:596   */\n      0x00\n        /* \"#utility.yul\":629:635   */\n      dup2\n        /* \"#utility.yul\":616:636   */\n      calldataload\n        /* \"#utility.yul\":607:636   */\n      swap1\n      pop\n        /* \"#utility.yul\":645:678   */\n      tag_59\n        /* \"#utility.yul\":672:677   */\n      dup2\n        /* \"#utility.yul\":645:678   */\n      tag_40\n      jump\t// in\n    tag_59:\n        /* \"#utility.yul\":545:684   */\n      swap3\n      swap2\n      pop\n      pop\n      jump\t// out\n        /* \"#utility.yul\":690:1019   */\n    tag_9:\n        /* \"#utility.yul\":749:755   */\n      0x00\n        /* \"#utility.yul\":798:800   */\n      0x20\n        /* \"#utility.yul\":786:795   */\n      dup3\n        /* \"#utility.yul\":777:784   */\n      dup5\n        /* \"#utility.yul\":773:796   */\n      sub\n        /* \"#utility.yul\":769:801   */\n      slt\n        /* \"#utility.yul\":766:885   */\n      iszero\n      tag_61\n      jumpi\n        /* \"#utility.yul\":804:883   */\n      tag_62\n      tag_37\n      jump\t// in\n    tag_62:\n        /* \"#utility.yul\":766:885   */\n    tag_61:\n        /* \"#utility.yul\":924:925   */\n      0x00\n        /* \"#utility.yul\":949:1002   */\n      tag_63\n        /* \"#utility.yul\":994:1001   */\n      dup5\n        /* \"#utility.yul\":985:991   */\n      dup3\n        /* \"#utility.yul\":974:983   */\n      dup6\n        /* \"#utility.yul\":970:992   */\n      add\n        /* \"#utility.yul\":949:1002   */\n      tag_41\n      jump\t// in\n    tag_63:\n        /* \"#utility.yul\":939:1002   */\n      swap2\n      pop\n        /* \"#utility.yul\":895:1012   */\n      pop\n        /* \"#utility.yul\":690:1019   */\n      swap3\n      swap2\n      pop\n      pop\n      jump\t// out\n        /* \"#utility.yul\":1025:1143   */\n    tag_42:\n        /* \"#utility.yul\":1112:1136   */\n      tag_65\n        /* \"#utility.yul\":1130:1135   */\n      dup2\n        /* \"#utility.yul\":1112:1136   */\n      tag_39\n      jump\t// in\n    tag_65:\n        /* \"#utility.yul\":1107:1110   */\n      dup3\n        /* \"#utility.yul\":1100:1137   */\n      mstore\n        /* \"#utility.yul\":1025:1143   */\n      pop\n      pop\n      jump\t// out\n        /* \"#utility.yul\":1149:1371   */\n    tag_14:\n        /* \"#utility.yul\":1242:1246   */\n      0x00\n        /* \"#utility.yul\":1280:1282   */\n      0x20\n        /* \"#utility.yul\":1269:1278   */\n      dup3\n        /* \"#utility.yul\":1265:1283   */\n      add\n        /* \"#utility.yul\":1257:1283   */\n      swap1\n      pop\n        /* \"#utility.yul\":1293:1364   */\n      tag_67\n        /* \"#utility.yul\":1361:1362   */\n      0x00\n        /* \"#utility.yul\":1350:1359   */\n      dup4\n        /* \"#utility.yul\":1346:1363   */\n      add\n        /* \"#utility.yul\":1337:1343   */\n      dup5\n        /* \"#utility.yul\":1293:1364   */\n      tag_42\n      jump\t// in\n    tag_67:\n        /* \"#utility.yul\":1149:1371   */\n      swap3\n      swap2\n      pop\n      pop\n      jump\t// out\n        /* \"#utility.yul\":1377:1851   */\n    tag_17:\n        /* \"#utility.yul\":1445:1451   */\n      0x00\n        /* \"#utility.yul\":1453:1459   */\n      dup1\n        /* \"#utility.yul\":1502:1504   */\n      0x40\n        /* \"#utility.yul\":1490:1499   */\n      dup4\n        /* \"#utility.yul\":1481:1488   */\n      dup6\n        /* \"#utility.yul\":1477:1500   */\n      sub\n        /* \"#utility.yul\":1473:1505   */\n      slt\n        /* \"#utility.yul\":1470:1589   */\n      iszero\n      tag_69\n      jumpi\n        /* \"#utility.yul\":1508:1587   */\n      tag_70\n      tag_37\n      jump\t// in\n    tag_70:\n        /* \"#utility.yul\":1470:1589   */\n    tag_69:\n        /* \"#utility.yul\":1628:1629   */\n      0x00\n        /* \"#utility.yul\":1653:1706   */\n      tag_71\n        /* \"#utility.yul\":1698:1705   */\n      dup6\n        /* \"#utility.yul\":1689:1695   */\n      dup3\n        /* \"#utility.yul\":1678:1687   */\n      dup7\n        /* \"#utility.yul\":1674:1696   */\n      add\n        /* \"#utility.yul\":1653:1706   */\n      tag_41\n      jump\t// in\n    tag_71:\n        /* \"#utility.yul\":1643:1706   */\n      swap3\n      pop\n        /* \"#utility.yul\":1599:1716   */\n      pop\n        /* \"#utility.yul\":1755:1757   */\n      0x20\n        /* \"#utility.yul\":1781:1834   */\n      tag_72\n        /* \"#utility.yul\":1826:1833   */\n      dup6\n        /* \"#utility.yul\":1817:1823   */\n      dup3\n        /* \"#utility.yul\":1806:1815   */\n      dup7\n        /* \"#utility.yul\":1802:1824   */\n      add\n        /* \"#utility.yul\":1781:1834   */\n      tag_41\n      jump\t// in\n    tag_72:\n        /* \"#utility.yul\":1771:1834   */\n      swap2\n      pop\n        /* \"#utility.yul\":1726:1844   */\n      pop\n        /* \"#utility.yul\":1377:1851   */\n      swap3\n      pop\n      swap3\n      swap1\n      pop\n      jump\t// out\n        /* \"#utility.yul\":1857:1983   */\n    tag_43:\n        /* \"#utility.yul\":1894:1901   */\n      0x00\n        /* \"#utility.yul\":1934:1976   */\n      0xffffffffffffffffffffffffffffffffffffffff\n        /* \"#utility.yul\":1927:1932   */\n      dup3\n        /* \"#utility.yul\":1923:1977   */\n      and\n        /* \"#utility.yul\":1912:1977   */\n      swap1\n      pop\n        /* \"#utility.yul\":1857:1983   */\n      swap2\n      swap1\n      pop\n      jump\t// out\n        /* \"#utility.yul\":1989:2085   */\n    tag_44:\n        /* \"#utility.yul\":2026:2033   */\n      0x00\n        /* \"#utility.yul\":2055:2079   */\n      tag_75\n        /* \"#utility.yul\":2073:2078   */\n      dup3\n        /* \"#utility.yul\":2055:2079   */\n      tag_43\n      jump\t// in\n    tag_75:\n        /* \"#utility.yul\":2044:2079   */\n      swap1\n      pop\n        /* \"#utility.yul\":1989:2085   */\n      swap2\n      swap1\n      pop\n      jump\t// out\n        /* \"#utility.yul\":2091:2209   */\n    tag_45:\n        /* \"#utility.yul\":2178:2202   */\n      tag_77\n        /* \"#utility.yul\":2196:2201   */\n      dup2\n        /* \"#utility.yul\":2178:2202   */\n      tag_44\n      jump\t// in\n    tag_77:\n        /* \"#utility.yul\":2173:2176   */\n      dup3\n        /* \"#utility.yul\":2166:2203   */\n      mstore\n        /* \"#utility.yul\":2091:2209   */\n      pop\n      pop\n      jump\t// out\n        /* \"#utility.yul\":2215:2437   */\n    tag_23:\n        /* \"#utility.yul\":2308:2312   */\n      0x00\n        /* \"#utility.yul\":2346:2348   */\n      0x20\n        /* \"#utility.yul\":2335:2344   */\n      dup3\n        /* \"#utility.yul\":2331:2349   */\n      add\n        /* \"#utility.yul\":2323:2349   */\n      swap1\n      pop\n        /* \"#utility.yul\":2359:2430   */\n      tag_79\n        /* \"#utility.yul\":2427:2428   */\n      0x00\n        /* \"#utility.yul\":2416:2425   */\n      dup4\n        /* \"#utility.yul\":2412:2429   */\n      add\n        /* \"#utility.yul\":2403:2409   */\n      dup5\n        /* \"#utility.yul\":2359:2430   */\n      tag_45\n      jump\t// in\n    tag_79:\n        /* \"#utility.yul\":2215:2437   */\n      swap3\n      swap2\n      pop\n      pop\n      jump\t// out\n        /* \"#utility.yul\":2443:2612   */\n    tag_46:\n        /* \"#utility.yul\":2527:2538   */\n      0x00\n        /* \"#utility.yul\":2561:2567   */\n      dup3\n        /* \"#utility.yul\":2556:2559   */\n      dup3\n        /* \"#utility.yul\":2549:2568   */\n      mstore\n        /* \"#utility.yul\":2601:2605   */\n      0x20\n        /* \"#utility.yul\":2596:2599   */\n      dup3\n        /* \"#utility.yul\":2592:2606   */\n      add\n        /* \"#utility.yul\":2577:2606   */\n      swap1\n      pop\n        /* \"#utility.yul\":2443:2612   */\n      swap3\n      swap2\n      pop\n      pop\n      jump\t// out\n        /* \"#utility.yul\":2618:2795   */\n    tag_47:\n        /* \"#utility.yul\":2758:2787   */\n      0x4f6e6c79206f776e65722063616e2063616c6c2074686973203a500000000000\n        /* \"#utility.yul\":2754:2755   */\n      0x00\n        /* \"#utility.yul\":2746:2752   */\n      dup3\n        /* \"#utility.yul\":2742:2756   */\n      add\n        /* \"#utility.yul\":2735:2788   */\n      mstore\n        /* \"#utility.yul\":2618:2795   */\n      pop\n      jump\t// out\n        /* \"#utility.yul\":2801:3167   */\n    tag_48:\n        /* \"#utility.yul\":2943:2946   */\n      0x00\n        /* \"#utility.yul\":2964:3031   */\n      tag_83\n        /* \"#utility.yul\":3028:3030   */\n      0x1b\n        /* \"#utility.yul\":3023:3026   */\n      dup4\n        /* \"#utility.yul\":2964:3031   */\n      tag_46\n      jump\t// in\n    tag_83:\n        /* \"#utility.yul\":2957:3031   */\n      swap2\n      pop\n        /* \"#utility.yul\":3040:3133   */\n      tag_84\n        /* \"#utility.yul\":3129:3132   */\n      dup3\n        /* \"#utility.yul\":3040:3133   */\n      tag_47\n      jump\t// in\n    tag_84:\n        /* \"#utility.yul\":3158:3160   */\n      0x20\n        /* \"#utility.yul\":3153:3156   */\n      dup3\n        /* \"#utility.yul\":3149:3161   */\n      add\n        /* \"#utility.yul\":3142:3161   */\n      swap1\n      pop\n        /* \"#utility.yul\":2801:3167   */\n      swap2\n      swap1\n      pop\n      jump\t// out\n        /* \"#utility.yul\":3173:3592   */\n    tag_28:\n        /* \"#utility.yul\":3339:3343   */\n      0x00\n        /* \"#utility.yul\":3377:3379   */\n      0x20\n        /* \"#utility.yul\":3366:3375   */\n      dup3\n        /* \"#utility.yul\":3362:3380   */\n      add\n        /* \"#utility.yul\":3354:3380   */\n      swap1\n      pop\n        /* \"#utility.yul\":3426:3435   */\n      dup2\n        /* \"#utility.yul\":3420:3424   */\n      dup2\n        /* \"#utility.yul\":3416:3436   */\n      sub\n        /* \"#utility.yul\":3412:3413   */\n      0x00\n        /* \"#utility.yul\":3401:3410   */\n      dup4\n        /* \"#utility.yul\":3397:3414   */\n      add\n        /* \"#utility.yul\":3390:3437   */\n      mstore\n        /* \"#utility.yul\":3454:3585   */\n      tag_86\n        /* \"#utility.yul\":3580:3584   */\n      dup2\n        /* \"#utility.yul\":3454:3585   */\n      tag_48\n      jump\t// in\n    tag_86:\n        /* \"#utility.yul\":3446:3585   */\n      swap1\n      pop\n        /* \"#utility.yul\":3173:3592   */\n      swap2\n      swap1\n      pop\n      jump\t// out\n        /* \"#utility.yul\":3598:3778   */\n    tag_49:\n        /* \"#utility.yul\":3646:3723   */\n      0x4e487b7100000000000000000000000000000000000000000000000000000000\n        /* \"#utility.yul\":3643:3644   */\n      0x00\n        /* \"#utility.yul\":3636:3724   */\n      mstore\n        /* \"#utility.yul\":3743:3747   */\n      0x11\n        /* \"#utility.yul\":3740:3741   */\n      0x04\n        /* \"#utility.yul\":3733:3748   */\n      mstore\n        /* \"#utility.yul\":3767:3771   */\n      0x24\n        /* \"#utility.yul\":3764:3765   */\n      0x00\n        /* \"#utility.yul\":3757:3772   */\n      revert\n        /* \"#utility.yul\":3784:4194   */\n    tag_35:\n        /* \"#utility.yul\":3824:3831   */\n      0x00\n        /* \"#utility.yul\":3847:3867   */\n      tag_89\n        /* \"#utility.yul\":3865:3866   */\n      dup3\n        /* \"#utility.yul\":3847:3867   */\n      tag_39\n      jump\t// in\n    tag_89:\n        /* \"#utility.yul\":3842:3867   */\n      swap2\n      pop\n        /* \"#utility.yul\":3881:3901   */\n      tag_90\n        /* \"#utility.yul\":3899:3900   */\n      dup4\n        /* \"#utility.yul\":3881:3901   */\n      tag_39\n      jump\t// in\n    tag_90:\n        /* \"#utility.yul\":3876:3901   */\n      swap3\n      pop\n        /* \"#utility.yul\":3936:3937   */\n      dup3\n        /* \"#utility.yul\":3933:3934   */\n      dup3\n        /* \"#utility.yul\":3929:3938   */\n      mul\n        /* \"#utility.yul\":3958:3988   */\n      tag_91\n        /* \"#utility.yul\":3976:3987   */\n      dup2\n        /* \"#utility.yul\":3958:3988   */\n      tag_39\n      jump\t// in\n    tag_91:\n        /* \"#utility.yul\":3947:3988   */\n      swap2\n      pop\n        /* \"#utility.yul\":4137:4138   */\n      dup3\n        /* \"#utility.yul\":4128:4135   */\n      dup3\n        /* \"#utility.yul\":4124:4139   */\n      div\n        /* \"#utility.yul\":4121:4122   */\n      dup5\n        /* \"#utility.yul\":4118:4140   */\n      eq\n        /* \"#utility.yul\":4098:4099   */\n      dup4\n        /* \"#utility.yul\":4091:4100   */\n      iszero\n        /* \"#utility.yul\":4071:4154   */\n      or\n        /* \"#utility.yul\":4048:4187   */\n      tag_92\n      jumpi\n        /* \"#utility.yul\":4167:4185   */\n      tag_93\n      tag_49\n      jump\t// in\n    tag_93:\n        /* \"#utility.yul\":4048:4187   */\n    tag_92:\n        /* \"#utility.yul\":3832:4194   */\n      pop\n        /* \"#utility.yul\":3784:4194   */\n      swap3\n      swap2\n      pop\n      pop\n      jump\t// out\n\n    auxdata: 0xa26469706673582212207d27006eb68a249e50a8ebe8edd7db265b5c169a037c63350c442d53eaf4bec164736f6c634300081a0033\n}\n",
				"bytecode": {
					"linkReferences": {},
					"object": "6080604052348015600e575f80fd5b5060015f819055503360015f6101000a81548173ffffffffffffffffffffffffffffffffffffffff021916908373ffffffffffffffffffffffffffffffffffffffff160217905550610409806100635f395ff3fe608060405234801561000f575f80fd5b506004361061004a575f3560e01c806360fe47b11461004e5780636d4ce63c1461006a5780638a50fecb146100885780638da5cb5b146100b8575b5f80fd5b61006860048036038101906100639190610204565b6100d6565b005b610072610178565b60405161007f919061023e565b60405180910390f35b6100a2600480360381019061009d9190610257565b610180565b6040516100af919061023e565b60405180910390f35b6100c0610193565b6040516100cd91906102d4565b60405180910390f35b6100e15f5482610180565b5f8190555060015f9054906101000a900473ffffffffffffffffffffffffffffffffffffffff1673ffffffffffffffffffffffffffffffffffffffff163373ffffffffffffffffffffffffffffffffffffffff1614610175576040517f08c379a000000000000000000000000000000000000000000000000000000000815260040161016c90610347565b60405180910390fd5b50565b5f8054905090565b5f61018b83836101b8565b905092915050565b60015f9054906101000a900473ffffffffffffffffffffffffffffffffffffffff1681565b5f81836101c59190610392565b905092915050565b5f80fd5b5f819050919050565b6101e3816101d1565b81146101ed575f80fd5b50565b5f813590506101fe816101da565b92915050565b5f60208284031215610219576102186101cd565b5b5f610226848285016101f0565b91505092915050565b610238816101d1565b82525050565b5f6020820190506102515f83018461022f565b92915050565b5f806040838503121561026d5761026c6101cd565b5b5f61027a858286016101f0565b925050602061028b858286016101f0565b9150509250929050565b5f73ffffffffffffffffffffffffffffffffffffffff82169050919050565b5f6102be82610295565b9050919050565b6102ce816102b4565b82525050565b5f6020820190506102e75f8301846102c5565b92915050565b5f82825260208201905092915050565b7f4f6e6c79206f776e65722063616e2063616c6c2074686973203a5000000000005f82015250565b5f610331601b836102ed565b915061033c826102fd565b602082019050919050565b5f6020820190508181035f83015261035e81610325565b9050919050565b7f4e487b71000000000000000000000000000000000000000000000000000000005f52601160045260245ffd5b5f61039c826101d1565b91506103a7836101d1565b92508282026103b5816101d1565b915082820484148315176103cc576103cb610365565b5b509291505056fea26469706673582212207d27006eb68a249e50a8ebe8edd7db265b5c169a037c63350c442d53eaf4bec164736f6c634300081a0033",
					"opcodes": "PUSH1 0x80 PUSH1 0x40 MSTORE CALLVALUE DUP1 ISZERO PUSH1 0xE JUMPI PUSH0 DUP1 REVERT JUMPDEST POP PUSH1 0x1 PUSH0 DUP2 SWAP1 SSTORE POP CALLER PUSH1 0x1 PUSH0 PUSH2 0x100 EXP DUP2 SLOAD DUP2 PUSH20 0xFFFFFFFFFFFFFFFFFFFFFFFFFFFFFFFFFFFFFFFF MUL NOT AND SWAP1 DUP4 PUSH20 0xFFFFFFFFFFFFFFFFFFFFFFFFFFFFFFFFFFFFFFFF AND MUL OR SWAP1 SSTORE POP PUSH2 0x409 DUP1 PUSH2 0x63 PUSH0 CODECOPY PUSH0 RETURN INVALID PUSH1 0x80 PUSH1 0x40 MSTORE CALLVALUE DUP1 ISZERO PUSH2 0xF JUMPI PUSH0 DUP1 REVERT JUMPDEST POP PUSH1 0x4 CALLDATASIZE LT PUSH2 0x4A JUMPI PUSH0 CALLDATALOAD PUSH1 0xE0 SHR DUP1 PUSH4 0x60FE47B1 EQ PUSH2 0x4E JUMPI DUP1 PUSH4 0x6D4CE63C EQ PUSH2 0x6A JUMPI DUP1 PUSH4 0x8A50FECB EQ PUSH2 0x88 JUMPI DUP1 PUSH4 0x8DA5CB5B EQ PUSH2 0xB8 JUMPI JUMPDEST PUSH0 DUP1 REVERT JUMPDEST PUSH2 0x68 PUSH1 0x4 DUP1 CALLDATASIZE SUB DUP2 ADD SWAP1 PUSH2 0x63 SWAP2 SWAP1 PUSH2 0x204 JUMP JUMPDEST PUSH2 0xD6 JUMP JUMPDEST STOP JUMPDEST PUSH2 0x72 PUSH2 0x178 JUMP JUMPDEST PUSH1 0x40 MLOAD PUSH2 0x7F SWAP2 SWAP1 PUSH2 0x23E JUMP JUMPDEST PUSH1 0x40 MLOAD DUP1 SWAP2 SUB SWAP1 RETURN JUMPDEST PUSH2 0xA2 PUSH1 0x4 DUP1 CALLDATASIZE SUB DUP2 ADD SWAP1 PUSH2 0x9D SWAP2 SWAP1 PUSH2 0x257 JUMP JUMPDEST PUSH2 0x180 JUMP JUMPDEST PUSH1 0x40 MLOAD PUSH2 0xAF SWAP2 SWAP1 PUSH2 0x23E JUMP JUMPDEST PUSH1 0x40 MLOAD DUP1 SWAP2 SUB SWAP1 RETURN JUMPDEST PUSH2 0xC0 PUSH2 0x193 JUMP JUMPDEST PUSH1 0x40 MLOAD PUSH2 0xCD SWAP2 SWAP1 PUSH2 0x2D4 JUMP JUMPDEST PUSH1 0x40 MLOAD DUP1 SWAP2 SUB SWAP1 RETURN JUMPDEST PUSH2 0xE1 PUSH0 SLOAD DUP3 PUSH2 0x180 JUMP JUMPDEST PUSH0 DUP2 SWAP1 SSTORE POP PUSH1 0x1 PUSH0 SWAP1 SLOAD SWAP1 PUSH2 0x100 EXP SWAP1 DIV PUSH20 0xFFFFFFFFFFFFFFFFFFFFFFFFFFFFFFFFFFFFFFFF AND PUSH20 0xFFFFFFFFFFFFFFFFFFFFFFFFFFFFFFFFFFFFFFFF AND CALLER PUSH20 0xFFFFFFFFFFFFFFFFFFFFFFFFFFFFFFFFFFFFFFFF AND EQ PUSH2 0x175 JUMPI PUSH1 0x40 MLOAD PUSH32 0x8C379A000000000000000000000000000000000000000000000000000000000 DUP2 MSTORE PUSH1 0x4 ADD PUSH2 0x16C SWAP1 PUSH2 0x347 JUMP JUMPDEST PUSH1 0x40 MLOAD DUP1 SWAP2 SUB SWAP1 REVERT JUMPDEST POP JUMP JUMPDEST PUSH0 DUP1 SLOAD SWAP1 POP SWAP1 JUMP JUMPDEST PUSH0 PUSH2 0x18B DUP4 DUP4 PUSH2 0x1B8 JUMP JUMPDEST SWAP1 POP SWAP3 SWAP2 POP POP JUMP JUMPDEST PUSH1 0x1 PUSH0 SWAP1 SLOAD SWAP1 PUSH2 0x100 EXP SWAP1 DIV PUSH20 0xFFFFFFFFFFFFFFFFFFFFFFFFFFFFFFFFFFFFFFFF AND DUP2 JUMP JUMPDEST PUSH0 DUP2 DUP4 PUSH2 0x1C5 SWAP2 SWAP1 PUSH2 0x392 JUMP JUMPDEST SWAP1 POP SWAP3 SWAP2 POP POP JUMP JUMPDEST PUSH0 DUP1 REVERT JUMPDEST PUSH0 DUP2 SWAP1 POP SWAP2 SWAP1 POP JUMP JUMPDEST PUSH2 0x1E3 DUP2 PUSH2 0x1D1 JUMP JUMPDEST DUP2 EQ PUSH2 0x1ED JUMPI PUSH0 DUP1 REVERT JUMPDEST POP JUMP JUMPDEST PUSH0 DUP2 CALLDATALOAD SWAP1 POP PUSH2 0x1FE DUP2 PUSH2 0x1DA JUMP JUMPDEST SWAP3 SWAP2 POP POP JUMP JUMPDEST PUSH0 PUSH1 0x20 DUP3 DUP5 SUB SLT ISZERO PUSH2 0x219 JUMPI PUSH2 0x218 PUSH2 0x1CD JUMP JUMPDEST JUMPDEST PUSH0 PUSH2 0x226 DUP5 DUP3 DUP6 ADD PUSH2 0x1F0 JUMP JUMPDEST SWAP2 POP POP SWAP3 SWAP2 POP POP JUMP JUMPDEST PUSH2 0x238 DUP2 PUSH2 0x1D1 JUMP JUMPDEST DUP3 MSTORE POP POP JUMP JUMPDEST PUSH0 PUSH1 0x20 DUP3 ADD SWAP1 POP PUSH2 0x251 PUSH0 DUP4 ADD DUP5 PUSH2 0x22F JUMP JUMPDEST SWAP3 SWAP2 POP POP JUMP JUMPDEST PUSH0 DUP1 PUSH1 0x40 DUP4 DUP6 SUB SLT ISZERO PUSH2 0x26D JUMPI PUSH2 0x26C PUSH2 0x1CD JUMP JUMPDEST JUMPDEST PUSH0 PUSH2 0x27A DUP6 DUP3 DUP7 ADD PUSH2 0x1F0 JUMP JUMPDEST SWAP3 POP POP PUSH1 0x20 PUSH2 0x28B DUP6 DUP3 DUP7 ADD PUSH2 0x1F0 JUMP JUMPDEST SWAP2 POP POP SWAP3 POP SWAP3 SWAP1 POP JUMP JUMPDEST PUSH0 PUSH20 0xFFFFFFFFFFFFFFFFFFFFFFFFFFFFFFFFFFFFFFFF DUP3 AND SWAP1 POP SWAP2 SWAP1 POP JUMP JUMPDEST PUSH0 PUSH2 0x2BE DUP3 PUSH2 0x295 JUMP JUMPDEST SWAP1 POP SWAP2 SWAP1 POP JUMP JUMPDEST PUSH2 0x2CE DUP2 PUSH2 0x2B4 JUMP JUMPDEST DUP3 MSTORE POP POP JUMP JUMPDEST PUSH0 PUSH1 0x20 DUP3 ADD SWAP1 POP PUSH2 0x2E7 PUSH0 DUP4 ADD DUP5 PUSH2 0x2C5 JUMP JUMPDEST SWAP3 SWAP2 POP POP JUMP JUMPDEST PUSH0 DUP3 DUP3 MSTORE PUSH1 0x20 DUP3 ADD SWAP1 POP SWAP3 SWAP2 POP POP JUMP JUMPDEST PUSH32 0x4F6E6C79206F776E65722063616E2063616C6C2074686973203A500000000000 PUSH0 DUP3 ADD MSTORE POP JUMP JUMPDEST PUSH0 PUSH2 0x331 PUSH1 0x1B DUP4 PUSH2 0x2ED JUMP JUMPDEST SWAP2 POP PUSH2 0x33C DUP3 PUSH2 0x2FD JUMP JUMPDEST PUSH1 0x20 DUP3 ADD SWAP1 POP SWAP2 SWAP1 POP JUMP JUMPDEST PUSH0 PUSH1 0x20 DUP3 ADD SWAP1 POP DUP2 DUP2 SUB PUSH0 DUP4 ADD MSTORE PUSH2 0x35E DUP2 PUSH2 0x325 JUMP JUMPDEST SWAP1 POP SWAP2 SWAP1 POP JUMP JUMPDEST PUSH32 0x4E487B7100000000000000000000000000000000000000000000000000000000 PUSH0 MSTORE PUSH1 0x11 PUSH1 0x4 MSTORE PUSH1 0x24 PUSH0 REVERT JUMPDEST PUSH0 PUSH2 0x39C DUP3 PUSH2 0x1D1 JUMP JUMPDEST SWAP2 POP PUSH2 0x3A7 DUP4 PUSH2 0x1D1 JUMP JUMPDEST SWAP3 POP DUP3 DUP3 MUL PUSH2 0x3B5 DUP2 PUSH2 0x1D1 JUMP JUMPDEST SWAP2 POP DUP3 DUP3 DIV DUP5 EQ DUP4 ISZERO OR PUSH2 0x3CC JUMPI PUSH2 0x3CB PUSH2 0x365 JUMP JUMPDEST JUMPDEST POP SWAP3 SWAP2 POP POP JUMP INVALID LOG2 PUSH5 0x6970667358 0x22 SLT KECCAK256 PUSH30 0x27006EB68A249E50A8EBE8EDD7DB265B5C169A037C63350C442D53EAF4BE 0xC1 PUSH5 0x736F6C6343 STOP ADDMOD BYTE STOP CALLER "
				},
				"gasEstimates": {
					"creation": {
						"codeDepositCost": "206600",
						"executionCost": "46627",
						"totalCost": "253227"
					},
					"external": {
						"combine(uint256,uint256)": "infinite",
						"get()": "2432",
						"owner()": "2552",
						"set(uint256)": "infinite"
					}
				},
				"methodIdentifiers": {
					"combine(uint256,uint256)": "8a50fecb",
					"get()": "6d4ce63c",
					"owner()": "8da5cb5b",
					"set(uint256)": "60fe47b1"
				}
			},
			"storageLayout": {
				"storage": [
					{
						"astId": 718,
						"contract": "contracts/1_Storage1.sol:SimpleStorage7",
						"label": "storedData",
						"offset": 0,
						"slot": "0",
						"type": "t_uint256"
					},
					{
						"astId": 720,
						"contract": "contracts/1_Storage1.sol:SimpleStorage7",
						"label": "owner",
						"offset": 0,
						"slot": "1",
						"type": "t_address"
					}
				],
				"types": {
					"t_address": {
						"encoding": "inplace",
						"label": "address",
						"numberOfBytes": "20"
					},
					"t_uint256": {
						"encoding": "inplace",
						"label": "uint256",
						"numberOfBytes": "32"
					}
				}
			},
			"userdoc": {
				"kind": "user",
				"methods": {},
				"version": 1
			}
		}
	}
}